{
  "contractName": "ArraysImpl",
  "abi": [
    {
      "inputs": [
        {
          "internalType": "uint256[]",
          "name": "array",
          "type": "uint256[]"
        }
      ],
      "stateMutability": "nonpayable",
      "type": "constructor"
    },
    {
      "inputs": [
        {
          "internalType": "uint256",
          "name": "element",
          "type": "uint256"
        }
      ],
      "name": "findUpperBound",
      "outputs": [
        {
          "internalType": "uint256",
          "name": "",
          "type": "uint256"
        }
      ],
      "stateMutability": "view",
      "type": "function"
    }
  ],
  "bytecode": "0x608060405234801561001057600080fd5b506040516102c53803806102c58339818101604052602081101561003357600080fd5b810190808051604051939291908464010000000082111561005357600080fd5b90830190602082018581111561006857600080fd5b825186602082028301116401000000008211171561008557600080fd5b82525081516020918201928201910280838360005b838110156100b257818101518382015260200161009a565b5050505091909101604052505082516100d492506000915060208401906100db565b5050610143565b828054828255906000526020600020908101928215610116579160200282015b828111156101165782518255916020019190600101906100fb565b50610122929150610126565b5090565b61014091905b80821115610122576000815560010161012c565b90565b610173806101526000396000f3fe608060405234801561001057600080fd5b506004361061002b5760003560e01c806333e3a58a14610030575b600080fd5b61004d6004803603602081101561004657600080fd5b503561005f565b60408051918252519081900360200190f35b6000610071818363ffffffff61007716565b92915050565b815460009061008857506000610071565b82546000905b808210156100d75760006100a28383610118565b9050848682815481106100b157fe5b906000526020600020015411156100ca578091506100d1565b8060010192505b5061008e565b6000821180156100ff5750838560018403815481106100f257fe5b9060005260206000200154145b156101105750600019019050610071565b509392505050565b6000600280830660028506018161012b57fe5b0460028304600285040101939250505056fea2646970667358221220c6d1159e04f466eca3f79ef1a0839fe602eb6b2882eaa18f86294e46d186ce9664736f6c63430006060033",
  "immutableReferences": {},
  "source": "// SPDX-License-Identifier: MIT\n\npragma solidity ^0.6.0;\n\nimport \"../utils/Arrays.sol\";\n\ncontract ArraysImpl {\n    using Arrays for uint256[];\n\n    uint256[] private _array;\n\n    constructor (uint256[] memory array) public {\n        _array = array;\n    }\n\n    function findUpperBound(uint256 element) external view returns (uint256) {\n        return _array.findUpperBound(element);\n    }\n}\n",
  "sourcePath": "/home/aaa/SYNCToken/CBOND-CONTRACT/contracts/openzeppelin/mocks/ArraysImpl.sol",
  "compiler": {
    "name": "solc",
    "version": "0.6.6+commit.6c089d02.Emscripten.clang"
  },
  "schemaVersion": "3.1.0",
  "updatedAt": "2020-10-08T19:13:24.972Z",
  "devdoc": {
    "methods": {}
  },
  "userdoc": {
    "methods": {}
  }
}