{
  "contractName": "ConditionalEscrowMock",
  "abi": [
    {
      "anonymous": false,
      "inputs": [
        {
          "indexed": true,
          "internalType": "address",
          "name": "payee",
          "type": "address"
        },
        {
          "indexed": false,
          "internalType": "uint256",
          "name": "weiAmount",
          "type": "uint256"
        }
      ],
      "name": "Deposited",
      "type": "event"
    },
    {
      "anonymous": false,
      "inputs": [
        {
          "indexed": true,
          "internalType": "address",
          "name": "previousOwner",
          "type": "address"
        },
        {
          "indexed": true,
          "internalType": "address",
          "name": "newOwner",
          "type": "address"
        }
      ],
      "name": "OwnershipTransferred",
      "type": "event"
    },
    {
      "anonymous": false,
      "inputs": [
        {
          "indexed": true,
          "internalType": "address",
          "name": "payee",
          "type": "address"
        },
        {
          "indexed": false,
          "internalType": "uint256",
          "name": "weiAmount",
          "type": "uint256"
        }
      ],
      "name": "Withdrawn",
      "type": "event"
    },
    {
      "inputs": [
        {
          "internalType": "address",
          "name": "payee",
          "type": "address"
        }
      ],
      "name": "deposit",
      "outputs": [],
      "stateMutability": "payable",
      "type": "function"
    },
    {
      "inputs": [
        {
          "internalType": "address",
          "name": "payee",
          "type": "address"
        }
      ],
      "name": "depositsOf",
      "outputs": [
        {
          "internalType": "uint256",
          "name": "",
          "type": "uint256"
        }
      ],
      "stateMutability": "view",
      "type": "function"
    },
    {
      "inputs": [],
      "name": "owner",
      "outputs": [
        {
          "internalType": "address",
          "name": "",
          "type": "address"
        }
      ],
      "stateMutability": "view",
      "type": "function"
    },
    {
      "inputs": [],
      "name": "renounceOwnership",
      "outputs": [],
      "stateMutability": "nonpayable",
      "type": "function"
    },
    {
      "inputs": [
        {
          "internalType": "address",
          "name": "newOwner",
          "type": "address"
        }
      ],
      "name": "transferOwnership",
      "outputs": [],
      "stateMutability": "nonpayable",
      "type": "function"
    },
    {
      "inputs": [
        {
          "internalType": "address payable",
          "name": "payee",
          "type": "address"
        }
      ],
      "name": "withdraw",
      "outputs": [],
      "stateMutability": "nonpayable",
      "type": "function"
    },
    {
      "inputs": [
        {
          "internalType": "address",
          "name": "payee",
          "type": "address"
        },
        {
          "internalType": "bool",
          "name": "allowed",
          "type": "bool"
        }
      ],
      "name": "setAllowed",
      "outputs": [],
      "stateMutability": "nonpayable",
      "type": "function"
    },
    {
      "inputs": [
        {
          "internalType": "address",
          "name": "payee",
          "type": "address"
        }
      ],
      "name": "withdrawalAllowed",
      "outputs": [
        {
          "internalType": "bool",
          "name": "",
          "type": "bool"
        }
      ],
      "stateMutability": "view",
      "type": "function"
    }
  ],
  "bytecode": "0x608060405260006100176001600160e01b0361006616565b600080546001600160a01b0319166001600160a01b0383169081178255604051929350917f8be0079c531659141344cd1fd0a4f28419497f9722a3daafe3b4186f6b6457e0908290a35061006a565b3390565b610852806100796000396000f3fe60806040526004361061007b5760003560e01c80638da5cb5b1161004e5780638da5cb5b1461014c578063e3a9db1a1461017d578063f2fde38b146101c2578063f340fa01146101f55761007b565b80634697f05d1461008057806351cff8d9146100bd578063685ca194146100f0578063715018a614610137575b600080fd5b34801561008c57600080fd5b506100bb600480360360408110156100a357600080fd5b506001600160a01b038135169060200135151561021b565b005b3480156100c957600080fd5b506100bb600480360360208110156100e057600080fd5b50356001600160a01b0316610246565b3480156100fc57600080fd5b506101236004803603602081101561011357600080fd5b50356001600160a01b0316610296565b604080519115158252519081900360200190f35b34801561014357600080fd5b506100bb6102b4565b34801561015857600080fd5b50610161610356565b604080516001600160a01b039092168252519081900360200190f35b34801561018957600080fd5b506101b0600480360360208110156101a057600080fd5b50356001600160a01b0316610365565b60408051918252519081900360200190f35b3480156101ce57600080fd5b506100bb600480360360208110156101e557600080fd5b50356001600160a01b0316610380565b6100bb6004803603602081101561020b57600080fd5b50356001600160a01b0316610478565b6001600160a01b03919091166000908152600260205260409020805460ff1916911515919091179055565b61024f81610296565b61028a5760405162461bcd60e51b81526004018080602001828103825260338152602001806107ca6033913960400191505060405180910390fd5b61029381610551565b50565b6001600160a01b031660009081526002602052604090205460ff1690565b6102bc61061a565b6000546001600160a01b0390811691161461030c576040805162461bcd60e51b815260206004820181905260248201526000805160206107fd833981519152604482015290519081900360640190fd5b600080546040516001600160a01b03909116907f8be0079c531659141344cd1fd0a4f28419497f9722a3daafe3b4186f6b6457e0908390a3600080546001600160a01b0319169055565b6000546001600160a01b031690565b6001600160a01b031660009081526001602052604090205490565b61038861061a565b6000546001600160a01b039081169116146103d8576040805162461bcd60e51b815260206004820181905260248201526000805160206107fd833981519152604482015290519081900360640190fd5b6001600160a01b03811661041d5760405162461bcd60e51b815260040180806020018281038252602681526020018061076a6026913960400191505060405180910390fd5b600080546040516001600160a01b03808516939216917f8be0079c531659141344cd1fd0a4f28419497f9722a3daafe3b4186f6b6457e091a3600080546001600160a01b0319166001600160a01b0392909216919091179055565b61048061061a565b6000546001600160a01b039081169116146104d0576040805162461bcd60e51b815260206004820181905260248201526000805160206107fd833981519152604482015290519081900360640190fd5b6001600160a01b03811660009081526001602052604090205434906104fb908263ffffffff61061e16565b6001600160a01b038316600081815260016020908152604091829020939093558051848152905191927f2da466a7b24304f47e87fa2e1e5a81b9831ce54fec19055ce277ca2f39ba42c492918290030190a25050565b61055961061a565b6000546001600160a01b039081169116146105a9576040805162461bcd60e51b815260206004820181905260248201526000805160206107fd833981519152604482015290519081900360640190fd5b6001600160a01b03811660008181526001602052604081208054919055906105d7908263ffffffff61067f16565b6040805182815290516001600160a01b038416917f7084f5476618d8e60b11ef0d7d3f06914655adb8793e28ff7f018d4c76d505d5919081900360200190a25050565b3390565b600082820183811015610678576040805162461bcd60e51b815260206004820152601b60248201527f536166654d6174683a206164646974696f6e206f766572666c6f770000000000604482015290519081900360640190fd5b9392505050565b804710156106d4576040805162461bcd60e51b815260206004820152601d60248201527f416464726573733a20696e73756666696369656e742062616c616e6365000000604482015290519081900360640190fd5b6040516000906001600160a01b0384169083908381818185875af1925050503d806000811461071f576040519150601f19603f3d011682016040523d82523d6000602084013e610724565b606091505b50509050806107645760405162461bcd60e51b815260040180806020018281038252603a815260200180610790603a913960400191505060405180910390fd5b50505056fe4f776e61626c653a206e6577206f776e657220697320746865207a65726f2061646472657373416464726573733a20756e61626c6520746f2073656e642076616c75652c20726563697069656e74206d61792068617665207265766572746564436f6e646974696f6e616c457363726f773a207061796565206973206e6f7420616c6c6f77656420746f2077697468647261774f776e61626c653a2063616c6c6572206973206e6f7420746865206f776e6572a2646970667358221220d256a45b1845c4ba84e63bb67fbda174e8649449c0c3c633b18770bb3299636c64736f6c63430006060033",
  "immutableReferences": {},
  "source": "// SPDX-License-Identifier: MIT\n\npragma solidity ^0.6.0;\n\nimport \"../payment/escrow/ConditionalEscrow.sol\";\n\n// mock class using ConditionalEscrow\ncontract ConditionalEscrowMock is ConditionalEscrow {\n    mapping(address => bool) private _allowed;\n\n    function setAllowed(address payee, bool allowed) public {\n        _allowed[payee] = allowed;\n    }\n\n    function withdrawalAllowed(address payee) public view override returns (bool) {\n        return _allowed[payee];\n    }\n}\n",
  "sourcePath": "/home/aaa/SYNCToken/CBOND-CONTRACT/contracts/openzeppelin/mocks/ConditionalEscrowMock.sol",
  "compiler": {
    "name": "solc",
    "version": "0.6.6+commit.6c089d02.Emscripten.clang"
  },
  "schemaVersion": "3.1.0",
  "updatedAt": "2020-10-08T19:13:24.974Z",
  "devdoc": {
    "methods": {
      "deposit(address)": {
        "details": "Stores the sent amount as credit to be withdrawn.",
        "params": {
          "payee": "The destination address of the funds."
        }
      },
      "owner()": {
        "details": "Returns the address of the current owner."
      },
      "renounceOwnership()": {
        "details": "Leaves the contract without owner. It will not be possible to call `onlyOwner` functions anymore. Can only be called by the current owner.     * NOTE: Renouncing ownership will leave the contract without an owner, thereby removing any functionality that is only available to the owner."
      },
      "transferOwnership(address)": {
        "details": "Transfers ownership of the contract to a new account (`newOwner`). Can only be called by the current owner."
      }
    }
  },
  "userdoc": {
    "methods": {}
  }
}