{
  "contractName": "EnumerableAddressSetMock",
  "abi": [
    {
      "anonymous": false,
      "inputs": [
        {
          "indexed": false,
          "internalType": "bool",
          "name": "result",
          "type": "bool"
        }
      ],
      "name": "OperationResult",
      "type": "event"
    },
    {
      "inputs": [
        {
          "internalType": "address",
          "name": "value",
          "type": "address"
        }
      ],
      "name": "contains",
      "outputs": [
        {
          "internalType": "bool",
          "name": "",
          "type": "bool"
        }
      ],
      "stateMutability": "view",
      "type": "function"
    },
    {
      "inputs": [
        {
          "internalType": "address",
          "name": "value",
          "type": "address"
        }
      ],
      "name": "add",
      "outputs": [],
      "stateMutability": "nonpayable",
      "type": "function"
    },
    {
      "inputs": [
        {
          "internalType": "address",
          "name": "value",
          "type": "address"
        }
      ],
      "name": "remove",
      "outputs": [],
      "stateMutability": "nonpayable",
      "type": "function"
    },
    {
      "inputs": [],
      "name": "length",
      "outputs": [
        {
          "internalType": "uint256",
          "name": "",
          "type": "uint256"
        }
      ],
      "stateMutability": "view",
      "type": "function"
    },
    {
      "inputs": [
        {
          "internalType": "uint256",
          "name": "index",
          "type": "uint256"
        }
      ],
      "name": "at",
      "outputs": [
        {
          "internalType": "address",
          "name": "",
          "type": "address"
        }
      ],
      "stateMutability": "view",
      "type": "function"
    }
  ],
  "bytecode": "0x608060405234801561001057600080fd5b50610418806100206000396000f3fe608060405234801561001057600080fd5b50600436106100575760003560e01c80630a3b0a4f1461005c5780631f7b6d321461008457806329092d0e1461009e5780635dbe47e8146100c4578063e0886f90146100fe575b600080fd5b6100826004803603602081101561007257600080fd5b50356001600160a01b0316610137565b005b61008c610186565b60408051918252519081900360200190f35b610082600480360360208110156100b457600080fd5b50356001600160a01b0316610197565b6100ea600480360360208110156100da57600080fd5b50356001600160a01b03166101a9565b604080519115158252519081900360200190f35b61011b6004803603602081101561011457600080fd5b50356101c1565b604080516001600160a01b039092168252519081900360200190f35b6000610149818363ffffffff6101d316565b60408051821515815290519192507fed9840e0775590557ad736875d96c95cf1458b766335f74339951a32c82a9e33919081900360200190a15050565b600061019260006101ef565b905090565b6000610149818363ffffffff6101fa16565b60006101bb818363ffffffff61020f16565b92915050565b60006101bb818363ffffffff61022416565b60006101e8836001600160a01b038416610230565b9392505050565b60006101bb8261027a565b60006101e8836001600160a01b03841661027e565b60006101e8836001600160a01b038416610344565b60006101e8838361035c565b600061023c8383610344565b610272575081546001818101845560008481526020808220909301849055845484825282860190935260409020919091556101bb565b5060006101bb565b5490565b6000818152600183016020526040812054801561033a57835460001980830191908101906000908790839081106102b157fe5b90600052602060002001549050808760000184815481106102ce57fe5b6000918252602080832090910192909255828152600189810190925260409020908401905586548790806102fe57fe5b600190038181906000526020600020016000905590558660010160008781526020019081526020016000206000905560019450505050506101bb565b60009150506101bb565b60009081526001919091016020526040902054151590565b8154600090821061039e5760405162461bcd60e51b81526004018080602001828103825260228152602001806103c16022913960400191505060405180910390fd5b8260000182815481106103ad57fe5b906000526020600020015490509291505056fe456e756d657261626c655365743a20696e646578206f7574206f6620626f756e6473a2646970667358221220cc7ccc9b5817547b518c970e4d4202fbb2038a3dd4af64849b7fd0ff0f6d062264736f6c63430006060033",
  "immutableReferences": {},
  "source": "// SPDX-License-Identifier: MIT\n\npragma solidity ^0.6.0;\n\nimport \"../utils/EnumerableSet.sol\";\n\n// AddressSet\ncontract EnumerableAddressSetMock {\n    using EnumerableSet for EnumerableSet.AddressSet;\n\n    event OperationResult(bool result);\n\n    EnumerableSet.AddressSet private _set;\n\n    function contains(address value) public view returns (bool) {\n        return _set.contains(value);\n    }\n\n    function add(address value) public {\n        bool result = _set.add(value);\n        emit OperationResult(result);\n    }\n\n    function remove(address value) public {\n        bool result = _set.remove(value);\n        emit OperationResult(result);\n    }\n\n    function length() public view returns (uint256) {\n        return _set.length();\n    }\n\n    function at(uint256 index) public view returns (address) {\n        return _set.at(index);\n    }\n}\n\n// UintSet\ncontract EnumerableUintSetMock {\n    using EnumerableSet for EnumerableSet.UintSet;\n\n    event OperationResult(bool result);\n\n    EnumerableSet.UintSet private _set;\n\n    function contains(uint256 value) public view returns (bool) {\n        return _set.contains(value);\n    }\n\n    function add(uint256 value) public {\n        bool result = _set.add(value);\n        emit OperationResult(result);\n    }\n\n    function remove(uint256 value) public {\n        bool result = _set.remove(value);\n        emit OperationResult(result);\n    }\n\n    function length() public view returns (uint256) {\n        return _set.length();\n    }\n\n    function at(uint256 index) public view returns (uint256) {\n        return _set.at(index);\n    }\n}",
  "sourcePath": "/home/aaa/SYNCToken/CBOND-CONTRACT/contracts/openzeppelin/mocks/EnumerableSetMock.sol",
  "compiler": {
    "name": "solc",
    "version": "0.6.6+commit.6c089d02.Emscripten.clang"
  },
  "schemaVersion": "3.1.0",
  "updatedAt": "2020-10-08T19:13:25.031Z",
  "devdoc": {
    "methods": {}
  },
  "userdoc": {
    "methods": {}
  }
}