{
  "contractName": "ERC1155PausableMock",
  "abi": [
    {
      "inputs": [
        {
          "internalType": "string",
          "name": "uri",
          "type": "string"
        }
      ],
      "stateMutability": "nonpayable",
      "type": "constructor"
    },
    {
      "anonymous": false,
      "inputs": [
        {
          "indexed": true,
          "internalType": "address",
          "name": "account",
          "type": "address"
        },
        {
          "indexed": true,
          "internalType": "address",
          "name": "operator",
          "type": "address"
        },
        {
          "indexed": false,
          "internalType": "bool",
          "name": "approved",
          "type": "bool"
        }
      ],
      "name": "ApprovalForAll",
      "type": "event"
    },
    {
      "anonymous": false,
      "inputs": [
        {
          "indexed": false,
          "internalType": "address",
          "name": "account",
          "type": "address"
        }
      ],
      "name": "Paused",
      "type": "event"
    },
    {
      "anonymous": false,
      "inputs": [
        {
          "indexed": true,
          "internalType": "address",
          "name": "operator",
          "type": "address"
        },
        {
          "indexed": true,
          "internalType": "address",
          "name": "from",
          "type": "address"
        },
        {
          "indexed": true,
          "internalType": "address",
          "name": "to",
          "type": "address"
        },
        {
          "indexed": false,
          "internalType": "uint256[]",
          "name": "ids",
          "type": "uint256[]"
        },
        {
          "indexed": false,
          "internalType": "uint256[]",
          "name": "values",
          "type": "uint256[]"
        }
      ],
      "name": "TransferBatch",
      "type": "event"
    },
    {
      "anonymous": false,
      "inputs": [
        {
          "indexed": true,
          "internalType": "address",
          "name": "operator",
          "type": "address"
        },
        {
          "indexed": true,
          "internalType": "address",
          "name": "from",
          "type": "address"
        },
        {
          "indexed": true,
          "internalType": "address",
          "name": "to",
          "type": "address"
        },
        {
          "indexed": false,
          "internalType": "uint256",
          "name": "id",
          "type": "uint256"
        },
        {
          "indexed": false,
          "internalType": "uint256",
          "name": "value",
          "type": "uint256"
        }
      ],
      "name": "TransferSingle",
      "type": "event"
    },
    {
      "anonymous": false,
      "inputs": [
        {
          "indexed": false,
          "internalType": "string",
          "name": "value",
          "type": "string"
        },
        {
          "indexed": true,
          "internalType": "uint256",
          "name": "id",
          "type": "uint256"
        }
      ],
      "name": "URI",
      "type": "event"
    },
    {
      "anonymous": false,
      "inputs": [
        {
          "indexed": false,
          "internalType": "address",
          "name": "account",
          "type": "address"
        }
      ],
      "name": "Unpaused",
      "type": "event"
    },
    {
      "inputs": [
        {
          "internalType": "address",
          "name": "account",
          "type": "address"
        },
        {
          "internalType": "uint256",
          "name": "id",
          "type": "uint256"
        }
      ],
      "name": "balanceOf",
      "outputs": [
        {
          "internalType": "uint256",
          "name": "",
          "type": "uint256"
        }
      ],
      "stateMutability": "view",
      "type": "function"
    },
    {
      "inputs": [
        {
          "internalType": "address[]",
          "name": "accounts",
          "type": "address[]"
        },
        {
          "internalType": "uint256[]",
          "name": "ids",
          "type": "uint256[]"
        }
      ],
      "name": "balanceOfBatch",
      "outputs": [
        {
          "internalType": "uint256[]",
          "name": "",
          "type": "uint256[]"
        }
      ],
      "stateMutability": "view",
      "type": "function"
    },
    {
      "inputs": [
        {
          "internalType": "address",
          "name": "owner",
          "type": "address"
        },
        {
          "internalType": "uint256",
          "name": "id",
          "type": "uint256"
        },
        {
          "internalType": "uint256",
          "name": "value",
          "type": "uint256"
        }
      ],
      "name": "burn",
      "outputs": [],
      "stateMutability": "nonpayable",
      "type": "function"
    },
    {
      "inputs": [
        {
          "internalType": "address",
          "name": "owner",
          "type": "address"
        },
        {
          "internalType": "uint256[]",
          "name": "ids",
          "type": "uint256[]"
        },
        {
          "internalType": "uint256[]",
          "name": "values",
          "type": "uint256[]"
        }
      ],
      "name": "burnBatch",
      "outputs": [],
      "stateMutability": "nonpayable",
      "type": "function"
    },
    {
      "inputs": [
        {
          "internalType": "address",
          "name": "account",
          "type": "address"
        },
        {
          "internalType": "address",
          "name": "operator",
          "type": "address"
        }
      ],
      "name": "isApprovedForAll",
      "outputs": [
        {
          "internalType": "bool",
          "name": "",
          "type": "bool"
        }
      ],
      "stateMutability": "view",
      "type": "function"
    },
    {
      "inputs": [
        {
          "internalType": "address",
          "name": "to",
          "type": "address"
        },
        {
          "internalType": "uint256",
          "name": "id",
          "type": "uint256"
        },
        {
          "internalType": "uint256",
          "name": "value",
          "type": "uint256"
        },
        {
          "internalType": "bytes",
          "name": "data",
          "type": "bytes"
        }
      ],
      "name": "mint",
      "outputs": [],
      "stateMutability": "nonpayable",
      "type": "function"
    },
    {
      "inputs": [
        {
          "internalType": "address",
          "name": "to",
          "type": "address"
        },
        {
          "internalType": "uint256[]",
          "name": "ids",
          "type": "uint256[]"
        },
        {
          "internalType": "uint256[]",
          "name": "values",
          "type": "uint256[]"
        },
        {
          "internalType": "bytes",
          "name": "data",
          "type": "bytes"
        }
      ],
      "name": "mintBatch",
      "outputs": [],
      "stateMutability": "nonpayable",
      "type": "function"
    },
    {
      "inputs": [],
      "name": "paused",
      "outputs": [
        {
          "internalType": "bool",
          "name": "",
          "type": "bool"
        }
      ],
      "stateMutability": "view",
      "type": "function"
    },
    {
      "inputs": [
        {
          "internalType": "address",
          "name": "from",
          "type": "address"
        },
        {
          "internalType": "address",
          "name": "to",
          "type": "address"
        },
        {
          "internalType": "uint256[]",
          "name": "ids",
          "type": "uint256[]"
        },
        {
          "internalType": "uint256[]",
          "name": "amounts",
          "type": "uint256[]"
        },
        {
          "internalType": "bytes",
          "name": "data",
          "type": "bytes"
        }
      ],
      "name": "safeBatchTransferFrom",
      "outputs": [],
      "stateMutability": "nonpayable",
      "type": "function"
    },
    {
      "inputs": [
        {
          "internalType": "address",
          "name": "from",
          "type": "address"
        },
        {
          "internalType": "address",
          "name": "to",
          "type": "address"
        },
        {
          "internalType": "uint256",
          "name": "id",
          "type": "uint256"
        },
        {
          "internalType": "uint256",
          "name": "amount",
          "type": "uint256"
        },
        {
          "internalType": "bytes",
          "name": "data",
          "type": "bytes"
        }
      ],
      "name": "safeTransferFrom",
      "outputs": [],
      "stateMutability": "nonpayable",
      "type": "function"
    },
    {
      "inputs": [
        {
          "internalType": "address",
          "name": "operator",
          "type": "address"
        },
        {
          "internalType": "bool",
          "name": "approved",
          "type": "bool"
        }
      ],
      "name": "setApprovalForAll",
      "outputs": [],
      "stateMutability": "nonpayable",
      "type": "function"
    },
    {
      "inputs": [
        {
          "internalType": "string",
          "name": "newuri",
          "type": "string"
        }
      ],
      "name": "setURI",
      "outputs": [],
      "stateMutability": "nonpayable",
      "type": "function"
    },
    {
      "inputs": [
        {
          "internalType": "bytes4",
          "name": "interfaceId",
          "type": "bytes4"
        }
      ],
      "name": "supportsInterface",
      "outputs": [
        {
          "internalType": "bool",
          "name": "",
          "type": "bool"
        }
      ],
      "stateMutability": "view",
      "type": "function"
    },
    {
      "inputs": [
        {
          "internalType": "uint256",
          "name": "",
          "type": "uint256"
        }
      ],
      "name": "uri",
      "outputs": [
        {
          "internalType": "string",
          "name": "",
          "type": "string"
        }
      ],
      "stateMutability": "view",
      "type": "function"
    },
    {
      "inputs": [],
      "name": "pause",
      "outputs": [],
      "stateMutability": "nonpayable",
      "type": "function"
    },
    {
      "inputs": [],
      "name": "unpause",
      "outputs": [],
      "stateMutability": "nonpayable",
      "type": "function"
    }
  ],
  "bytecode": "0x60806040523480156200001157600080fd5b506040516200289e3803806200289e833981810160405260208110156200003757600080fd5b81019080805160405193929190846401000000008211156200005857600080fd5b9083019060208201858111156200006e57600080fd5b82516401000000008111828201881017156200008957600080fd5b82525081516020918201929091019080838360005b83811015620000b85781810151838201526020016200009e565b50505050905090810190601f168015620000e65780820380516001836020036101000a031916815260200191505b50604052508291508190506200010c6301ffc9a760e01b6001600160e01b036200016916565b62000120816001600160e01b03620001ee16565b6200013b636cdb3d1360e11b6001600160e01b036200016916565b620001566303a24d0760e21b6001600160e01b036200016916565b50506004805460ff1916905550620002ac565b6001600160e01b03198082161415620001c9576040805162461bcd60e51b815260206004820152601c60248201527f4552433136353a20696e76616c696420696e7465726661636520696400000000604482015290519081900360640190fd5b6001600160e01b0319166000908152602081905260409020805460ff19166001179055565b80516200020390600390602084019062000207565b5050565b828054600181600116156101000203166002900490600052602060002090601f016020900481019282601f106200024a57805160ff19168380011785556200027a565b828001600101855582156200027a579182015b828111156200027a5782518255916020019190600101906200025d565b50620002889291506200028c565b5090565b620002a991905b8082111562000288576000815560010162000293565b90565b6125e280620002bc6000396000f3fe608060405234801561001057600080fd5b50600436106100ff5760003560e01c80635c975abb11610097578063a22cb46511610066578063a22cb465146109ac578063e985e9c5146109da578063f242432a14610a08578063f5298aca14610ad1576100ff565b80635c975abb146107a95780636b20c454146107b1578063731133e9146108e45780638456cb59146109a4576100ff565b80631f7fdffa116100d35780631f7fdffa146102b55780632eb2c2d61461046d5780633f4ba83a1461062e5780634e1273f414610636576100ff565b8062fdd58e1461010457806301ffc9a71461014257806302fe53051461017d5780630e89341c14610223575b600080fd5b6101306004803603604081101561011a57600080fd5b506001600160a01b038135169060200135610b03565b60408051918252519081900360200190f35b6101696004803603602081101561015857600080fd5b50356001600160e01b031916610b72565b604080519115158252519081900360200190f35b6102216004803603602081101561019357600080fd5b810190602081018135600160201b8111156101ad57600080fd5b8201836020820111156101bf57600080fd5b803590602001918460018302840111600160201b831117156101e057600080fd5b91908080601f016020809104026020016040519081016040528093929190818152602001838380828437600092019190915250929550610b91945050505050565b005b6102406004803603602081101561023957600080fd5b5035610b9d565b6040805160208082528351818301528351919283929083019185019080838360005b8381101561027a578181015183820152602001610262565b50505050905090810190601f1680156102a75780820380516001836020036101000a031916815260200191505b509250505060405180910390f35b610221600480360360808110156102cb57600080fd5b6001600160a01b038235169190810190604081016020820135600160201b8111156102f557600080fd5b82018360208201111561030757600080fd5b803590602001918460208302840111600160201b8311171561032857600080fd5b9190808060200260200160405190810160405280939291908181526020018383602002808284376000920191909152509295949360208101935035915050600160201b81111561037757600080fd5b82018360208201111561038957600080fd5b803590602001918460208302840111600160201b831117156103aa57600080fd5b9190808060200260200160405190810160405280939291908181526020018383602002808284376000920191909152509295949360208101935035915050600160201b8111156103f957600080fd5b82018360208201111561040b57600080fd5b803590602001918460018302840111600160201b8311171561042c57600080fd5b91908080601f016020809104026020016040519081016040528093929190818152602001838380828437600092019190915250929550610c35945050505050565b610221600480360360a081101561048357600080fd5b6001600160a01b038235811692602081013590911691810190606081016040820135600160201b8111156104b657600080fd5b8201836020820111156104c857600080fd5b803590602001918460208302840111600160201b831117156104e957600080fd5b9190808060200260200160405190810160405280939291908181526020018383602002808284376000920191909152509295949360208101935035915050600160201b81111561053857600080fd5b82018360208201111561054a57600080fd5b803590602001918460208302840111600160201b8311171561056b57600080fd5b9190808060200260200160405190810160405280939291908181526020018383602002808284376000920191909152509295949360208101935035915050600160201b8111156105ba57600080fd5b8201836020820111156105cc57600080fd5b803590602001918460018302840111600160201b831117156105ed57600080fd5b91908080601f016020809104026020016040519081016040528093929190818152602001838380828437600092019190915250929550610c47945050505050565b610221610f45565b6107596004803603604081101561064c57600080fd5b810190602081018135600160201b81111561066657600080fd5b82018360208201111561067857600080fd5b803590602001918460208302840111600160201b8311171561069957600080fd5b9190808060200260200160405190810160405280939291908181526020018383602002808284376000920191909152509295949360208101935035915050600160201b8111156106e857600080fd5b8201836020820111156106fa57600080fd5b803590602001918460208302840111600160201b8311171561071b57600080fd5b919080806020026020016040519081016040528093929190818152602001838360200280828437600092019190915250929550610f4f945050505050565b60408051602080825283518183015283519192839290830191858101910280838360005b8381101561079557818101518382015260200161077d565b505050509050019250505060405180910390f35b6101696110cd565b610221600480360360608110156107c757600080fd5b6001600160a01b038235169190810190604081016020820135600160201b8111156107f157600080fd5b82018360208201111561080357600080fd5b803590602001918460208302840111600160201b8311171561082457600080fd5b9190808060200260200160405190810160405280939291908181526020018383602002808284376000920191909152509295949360208101935035915050600160201b81111561087357600080fd5b82018360208201111561088557600080fd5b803590602001918460208302840111600160201b831117156108a657600080fd5b9190808060200260200160405190810160405280939291908181526020018383602002808284376000920191909152509295506110d7945050505050565b610221600480360360808110156108fa57600080fd5b6001600160a01b038235169160208101359160408201359190810190608081016060820135600160201b81111561093057600080fd5b82018360208201111561094257600080fd5b803590602001918460018302840111600160201b8311171561096357600080fd5b91908080601f0160208091040260200160405190810160405280939291908181526020018383808284376000920191909152509295506110e7945050505050565b6102216110f3565b610221600480360360408110156109c257600080fd5b506001600160a01b03813516906020013515156110fb565b610169600480360360408110156109f057600080fd5b506001600160a01b03813581169160200135166111ea565b610221600480360360a0811015610a1e57600080fd5b6001600160a01b03823581169260208101359091169160408201359160608101359181019060a081016080820135600160201b811115610a5d57600080fd5b820183602082011115610a6f57600080fd5b803590602001918460018302840111600160201b83111715610a9057600080fd5b91908080601f016020809104026020016040519081016040528093929190818152602001838380828437600092019190915250929550611218945050505050565b61022160048036036060811015610ae757600080fd5b506001600160a01b0381351690602081013590604001356113e9565b60006001600160a01b038316610b4a5760405162461bcd60e51b815260040180806020018281038252602b815260200180612399602b913960400191505060405180910390fd5b5060009081526001602090815260408083206001600160a01b03949094168352929052205490565b6001600160e01b03191660009081526020819052604090205460ff1690565b610b9a816113f4565b50565b60038054604080516020601f6002600019610100600188161502019095169490940493840181900481028201810190925282815260609390929091830182828015610c295780601f10610bfe57610100808354040283529160200191610c29565b820191906000526020600020905b815481529060010190602001808311610c0c57829003601f168201915b50505050509050919050565b610c418484848461140b565b50505050565b8151835114610c875760405162461bcd60e51b81526004018080602001828103825260288152602001806125646028913960400191505060405180910390fd5b6001600160a01b038416610ccc5760405162461bcd60e51b815260040180806020018281038252602581526020018061246e6025913960400191505060405180910390fd5b610cd4611660565b6001600160a01b0316856001600160a01b03161480610cff5750610cff85610cfa611660565b6111ea565b610d3a5760405162461bcd60e51b81526004018080602001828103825260328152602001806124936032913960400191505060405180910390fd5b6000610d44611660565b9050610d54818787878787611664565b60005b8451811015610e55576000858281518110610d6e57fe5b602002602001015190506000858381518110610d8657fe5b60200260200101519050610df3816040518060600160405280602a81526020016124e8602a91396001600086815260200190815260200160002060008d6001600160a01b03166001600160a01b03168152602001908152602001600020546116729092919063ffffffff16565b60008381526001602090815260408083206001600160a01b038e811685529252808320939093558a1681522054610e2a9082611709565b60009283526001602081815260408086206001600160a01b038d168752909152909320555001610d57565b50846001600160a01b0316866001600160a01b0316826001600160a01b03167f4a39dc06d4c0dbc64b70af90fd698a233a518aa5d07e595d983b8c0526c8f7fb8787604051808060200180602001838103835285818151815260200191508051906020019060200280838360005b83811015610edb578181015183820152602001610ec3565b50505050905001838103825284818151815260200191508051906020019060200280838360005b83811015610f1a578181015183820152602001610f02565b5050505090500194505050505060405180910390a4610f3d81878787878761176a565b505050505050565b610f4d611aa8565b565b60608151835114610f915760405162461bcd60e51b815260040180806020018281038252602981526020018061253b6029913960400191505060405180910390fd5b6060835167ffffffffffffffff81118015610fab57600080fd5b50604051908082528060200260200182016040528015610fd5578160200160208202803683370190505b50905060005b84518110156110c55760006001600160a01b0316858281518110610ffb57fe5b60200260200101516001600160a01b031614156110495760405162461bcd60e51b81526004018080602001828103825260318152602001806123c46031913960400191505060405180910390fd5b6001600085838151811061105957fe5b60200260200101518152602001908152602001600020600086838151811061107d57fe5b60200260200101516001600160a01b03166001600160a01b03168152602001908152602001600020548282815181106110b257fe5b6020908102919091010152600101610fdb565b509392505050565b60045460ff165b90565b6110e2838383611b46565b505050565b610c4184848484611db4565b610f4d611ebb565b816001600160a01b031661110d611660565b6001600160a01b031614156111535760405162461bcd60e51b81526004018080602001828103825260298152602001806125126029913960400191505060405180910390fd5b8060026000611160611660565b6001600160a01b03908116825260208083019390935260409182016000908120918716808252919093529120805460ff1916921515929092179091556111a4611660565b60408051841515815290516001600160a01b0392909216917f17307eab39ab6107e8899845ad3d59bd9653f200f220920489ca2b5937696c319181900360200190a35050565b6001600160a01b03918216600090815260026020908152604080832093909416825291909152205460ff1690565b6001600160a01b03841661125d5760405162461bcd60e51b815260040180806020018281038252602581526020018061246e6025913960400191505060405180910390fd5b611265611660565b6001600160a01b0316856001600160a01b0316148061128b575061128b85610cfa611660565b6112c65760405162461bcd60e51b81526004018080602001828103825260298152602001806124456029913960400191505060405180910390fd5b60006112d0611660565b90506112f08187876112e188611f3c565b6112ea88611f3c565b87611664565b61133d836040518060600160405280602a81526020016124e8602a913960008781526001602090815260408083206001600160a01b038d168452909152902054919063ffffffff61167216565b60008581526001602090815260408083206001600160a01b038b811685529252808320939093558716815220546113749084611709565b60008581526001602090815260408083206001600160a01b03808b168086529184529382902094909455805188815291820187905280518a8416938616927fc3d58168c5ae7397731d063d5bbf3d657854427343f4c083240f7aacaa2d0f6292908290030190a4610f3d818787878787611f80565b6110e2838383612113565b80516114079060039060208401906122a4565b5050565b6001600160a01b0384166114505760405162461bcd60e51b815260040180806020018281038252602181526020018061258c6021913960400191505060405180910390fd5b81518351146114905760405162461bcd60e51b81526004018080602001828103825260288152602001806125646028913960400191505060405180910390fd5b600061149a611660565b90506114ab81600087878787611664565b60005b845181101561156f57611526600160008784815181106114ca57fe5b602002602001015181526020019081526020016000206000886001600160a01b03166001600160a01b031681526020019081526020016000205485838151811061151057fe5b602002602001015161170990919063ffffffff16565b6001600087848151811061153657fe5b602090810291909101810151825281810192909252604090810160009081206001600160a01b038b1682529092529020556001016114ae565b50846001600160a01b031660006001600160a01b0316826001600160a01b03167f4a39dc06d4c0dbc64b70af90fd698a233a518aa5d07e595d983b8c0526c8f7fb8787604051808060200180602001838103835285818151815260200191508051906020019060200280838360005b838110156115f65781810151838201526020016115de565b50505050905001838103825284818151815260200191508051906020019060200280838360005b8381101561163557818101518382015260200161161d565b5050505090500194505050505060405180910390a46116598160008787878761176a565b5050505050565b3390565b610f3d86868686868661224c565b600081848411156117015760405162461bcd60e51b81526004018080602001828103825283818151815260200191508051906020019080838360005b838110156116c65781810151838201526020016116ae565b50505050905090810190601f1680156116f35780820380516001836020036101000a031916815260200191505b509250505060405180910390fd5b505050900390565b600082820183811015611763576040805162461bcd60e51b815260206004820152601b60248201527f536166654d6174683a206164646974696f6e206f766572666c6f770000000000604482015290519081900360640190fd5b9392505050565b61177c846001600160a01b031661229e565b15610f3d57836001600160a01b031663bc197c8187878686866040518663ffffffff1660e01b815260040180866001600160a01b03166001600160a01b03168152602001856001600160a01b03166001600160a01b03168152602001806020018060200180602001848103845287818151815260200191508051906020019060200280838360005b8381101561181c578181015183820152602001611804565b50505050905001848103835286818151815260200191508051906020019060200280838360005b8381101561185b578181015183820152602001611843565b50505050905001848103825285818151815260200191508051906020019080838360005b8381101561189757818101518382015260200161187f565b50505050905090810190601f1680156118c45780820380516001836020036101000a031916815260200191505b5098505050505050505050602060405180830381600087803b1580156118e957600080fd5b505af192505050801561190e57506040513d602081101561190957600080fd5b505160015b611a50576040516000815260443d101561192a575060006119c7565b60046000803e60005160e01c6308c379a0811461194b5760009150506119c7565b60043d036004833e81513d602482011167ffffffffffffffff82111715611977576000925050506119c7565b808301805167ffffffffffffffff8111156119995760009450505050506119c7565b8060208301013d86018111156119b7576000955050505050506119c7565b601f01601f191660405250925050505b806119d25750611a19565b60405162461bcd60e51b81526020600482018181528351602484015283518493919283926044019190850190808383600083156116c65781810151838201526020016116ae565b60405162461bcd60e51b815260040180806020018281038252603481526020018061233d6034913960400191505060405180910390fd5b6001600160e01b0319811663bc197c8160e01b14611a9f5760405162461bcd60e51b81526004018080602001828103825260288152602001806123716028913960400191505060405180910390fd5b50505050505050565b60045460ff16611af6576040805162461bcd60e51b815260206004820152601460248201527314185d5cd8589b194e881b9bdd081c185d5cd95960621b604482015290519081900360640190fd5b6004805460ff191690557f5db9ee0a495bf2e6ff9c91a7834c1ba4fdd244a5e8aa4e537bd38aeae4b073aa611b29611660565b604080516001600160a01b039092168252519081900360200190a1565b6001600160a01b038316611b8b5760405162461bcd60e51b81526004018080602001828103825260238152602001806124c56023913960400191505060405180910390fd5b8051825114611bcb5760405162461bcd60e51b81526004018080602001828103825260288152602001806125646028913960400191505060405180910390fd5b6000611bd5611660565b9050611bf581856000868660405180602001604052806000815250611664565b60005b8351811015611cd357611c8a838281518110611c1057fe5b60200260200101516040518060600160405280602481526020016123f56024913960016000888681518110611c4157fe5b602002602001015181526020019081526020016000206000896001600160a01b03166001600160a01b03168152602001908152602001600020546116729092919063ffffffff16565b60016000868481518110611c9a57fe5b602090810291909101810151825281810192909252604090810160009081206001600160a01b038a168252909252902055600101611bf8565b5060006001600160a01b0316846001600160a01b0316826001600160a01b03167f4a39dc06d4c0dbc64b70af90fd698a233a518aa5d07e595d983b8c0526c8f7fb8686604051808060200180602001838103835285818151815260200191508051906020019060200280838360005b83811015611d5a578181015183820152602001611d42565b50505050905001838103825284818151815260200191508051906020019060200280838360005b83811015611d99578181015183820152602001611d81565b5050505090500194505050505060405180910390a450505050565b6001600160a01b038416611df95760405162461bcd60e51b815260040180806020018281038252602181526020018061258c6021913960400191505060405180910390fd5b6000611e03611660565b9050611e15816000876112e188611f3c565b60008481526001602090815260408083206001600160a01b0389168452909152902054611e48908463ffffffff61170916565b60008581526001602090815260408083206001600160a01b03808b16808652918452828520959095558151898152928301889052815190948616927fc3d58168c5ae7397731d063d5bbf3d657854427343f4c083240f7aacaa2d0f6292908290030190a461165981600087878787611f80565b60045460ff1615611f06576040805162461bcd60e51b815260206004820152601060248201526f14185d5cd8589b194e881c185d5cd95960821b604482015290519081900360640190fd5b6004805460ff191660011790557f62e78cea01bee320cd4e420270b5ea74000d11b0c9f74754ebdbfc544b05a258611b29611660565b604080516001808252818301909252606091829190602080830190803683370190505090508281600081518110611f6f57fe5b602090810291909101015292915050565b611f92846001600160a01b031661229e565b15610f3d57836001600160a01b031663f23a6e6187878686866040518663ffffffff1660e01b815260040180866001600160a01b03166001600160a01b03168152602001856001600160a01b03166001600160a01b0316815260200184815260200183815260200180602001828103825283818151815260200191508051906020019080838360005b8381101561203357818101518382015260200161201b565b50505050905090810190601f1680156120605780820380516001836020036101000a031916815260200191505b509650505050505050602060405180830381600087803b15801561208357600080fd5b505af19250505080156120a857506040513d60208110156120a357600080fd5b505160015b6120c4576040516000815260443d101561192a575060006119c7565b6001600160e01b0319811663f23a6e6160e01b14611a9f5760405162461bcd60e51b81526004018080602001828103825260288152602001806123716028913960400191505060405180910390fd5b6001600160a01b0383166121585760405162461bcd60e51b81526004018080602001828103825260238152602001806124c56023913960400191505060405180910390fd5b6000612162611660565b90506121928185600061217487611f3c565b61217d87611f3c565b60405180602001604052806000815250611664565b6121df826040518060600160405280602481526020016123f56024913960008681526001602090815260408083206001600160a01b038b168452909152902054919063ffffffff61167216565b60008481526001602090815260408083206001600160a01b03808a16808652918452828520959095558151888152928301879052815193949093908616927fc3d58168c5ae7397731d063d5bbf3d657854427343f4c083240f7aacaa2d0f6292908290030190a450505050565b61225a868686868686610f3d565b6122626110cd565b15610f3d5760405162461bcd60e51b815260040180806020018281038252602c815260200180612419602c913960400191505060405180910390fd5b3b151590565b828054600181600116156101000203166002900490600052602060002090601f016020900481019282601f106122e557805160ff1916838001178555612312565b82800160010185558215612312579182015b828111156123125782518255916020019190600101906122f7565b5061231e929150612322565b5090565b6110d491905b8082111561231e576000815560010161232856fe455243313135353a207472616e7366657220746f206e6f6e2045524331313535526563656976657220696d706c656d656e746572455243313135353a204552433131353552656365697665722072656a656374656420746f6b656e73455243313135353a2062616c616e636520717565727920666f7220746865207a65726f2061646472657373455243313135353a2062617463682062616c616e636520717565727920666f7220746865207a65726f2061646472657373455243313135353a206275726e20616d6f756e7420657863656564732062616c616e6365455243313135355061757361626c653a20746f6b656e207472616e73666572207768696c6520706175736564455243313135353a2063616c6c6572206973206e6f74206f776e6572206e6f7220617070726f766564455243313135353a207472616e7366657220746f20746865207a65726f2061646472657373455243313135353a207472616e736665722063616c6c6572206973206e6f74206f776e6572206e6f7220617070726f766564455243313135353a206275726e2066726f6d20746865207a65726f2061646472657373455243313135353a20696e73756666696369656e742062616c616e636520666f72207472616e73666572455243313135353a2073657474696e6720617070726f76616c2073746174757320666f722073656c66455243313135353a206163636f756e747320616e6420696473206c656e677468206d69736d61746368455243313135353a2069647320616e6420616d6f756e7473206c656e677468206d69736d61746368455243313135353a206d696e7420746f20746865207a65726f2061646472657373a26469706673582212202c8e33d7cadb908b5717a3172ad21c89f899bb40f009e4a6529df7568f1a750364736f6c63430006060033",
  "immutableReferences": {},
  "source": "// SPDX-License-Identifier: MIT\n\npragma solidity ^0.6.0;\n\nimport \"./ERC1155Mock.sol\";\nimport \"../token/ERC1155/ERC1155Pausable.sol\";\n\ncontract ERC1155PausableMock is ERC1155Mock, ERC1155Pausable {\n    constructor(string memory uri) public ERC1155Mock(uri) { }\n\n    function pause() external {\n        _pause();\n    }\n\n    function unpause() external {\n        _unpause();\n    }\n\n    function _beforeTokenTransfer(\n        address operator,\n        address from,\n        address to,\n        uint256[] memory ids,\n        uint256[] memory amounts,\n        bytes memory data\n    )\n        internal virtual override(ERC1155, ERC1155Pausable)\n    {\n        super._beforeTokenTransfer(operator, from, to, ids, amounts, data);\n    }\n}\n",
  "sourcePath": "/home/aaa/SYNCToken/CBOND-CONTRACT/contracts/openzeppelin/mocks/ERC1155PausableMock.sol",
  "compiler": {
    "name": "solc",
    "version": "0.6.6+commit.6c089d02.Emscripten.clang"
  },
  "schemaVersion": "3.1.0",
  "updatedAt": "2020-10-08T19:13:24.986Z",
  "devdoc": {
    "methods": {
      "balanceOf(address,uint256)": {
        "details": "See {IERC1155-balanceOf}.     * Requirements:     * - `account` cannot be the zero address."
      },
      "balanceOfBatch(address[],uint256[])": {
        "details": "See {IERC1155-balanceOfBatch}.     * Requirements:     * - `accounts` and `ids` must have the same length."
      },
      "isApprovedForAll(address,address)": {
        "details": "See {IERC1155-isApprovedForAll}."
      },
      "paused()": {
        "details": "Returns true if the contract is paused, and false otherwise."
      },
      "safeBatchTransferFrom(address,address,uint256[],uint256[],bytes)": {
        "details": "See {IERC1155-safeBatchTransferFrom}."
      },
      "safeTransferFrom(address,address,uint256,uint256,bytes)": {
        "details": "See {IERC1155-safeTransferFrom}."
      },
      "setApprovalForAll(address,bool)": {
        "details": "See {IERC1155-setApprovalForAll}."
      },
      "supportsInterface(bytes4)": {
        "details": "See {IERC165-supportsInterface}.     * Time complexity O(1), guaranteed to always use less than 30 000 gas."
      },
      "uri(uint256)": {
        "details": "See {IERC1155MetadataURI-uri}.     * This implementation returns the same URI for *all* token types. It relies on the token type ID substituion mechanism https://eips.ethereum.org/EIPS/eip-1155#metadata[defined in the EIP].     * Clients calling this function must replace the `\\{id\\}` substring with the actual token type ID."
      }
    }
  },
  "userdoc": {
    "methods": {}
  }
}