{
  "contractName": "ERC165Mock",
  "abi": [
    {
      "inputs": [
        {
          "internalType": "bytes4",
          "name": "interfaceId",
          "type": "bytes4"
        }
      ],
      "name": "supportsInterface",
      "outputs": [
        {
          "internalType": "bool",
          "name": "",
          "type": "bool"
        }
      ],
      "stateMutability": "view",
      "type": "function"
    },
    {
      "inputs": [
        {
          "internalType": "bytes4",
          "name": "interfaceId",
          "type": "bytes4"
        }
      ],
      "name": "registerInterface",
      "outputs": [],
      "stateMutability": "nonpayable",
      "type": "function"
    }
  ],
  "bytecode": "0x608060405261001d6301ffc9a760e01b6001600160e01b0361002216565b6100a6565b6001600160e01b03198082161415610081576040805162461bcd60e51b815260206004820152601c60248201527f4552433136353a20696e76616c696420696e7465726661636520696400000000604482015290519081900360640190fd5b6001600160e01b0319166000908152602081905260409020805460ff19166001179055565b610184806100b56000396000f3fe608060405234801561001057600080fd5b50600436106100365760003560e01c806301ffc9a71461003b578063214cdb8014610076575b600080fd5b6100626004803603602081101561005157600080fd5b50356001600160e01b03191661009f565b604080519115158252519081900360200190f35b61009d6004803603602081101561008c57600080fd5b50356001600160e01b0319166100be565b005b6001600160e01b03191660009081526020819052604090205460ff1690565b6100c7816100ca565b50565b6001600160e01b03198082161415610129576040805162461bcd60e51b815260206004820152601c60248201527f4552433136353a20696e76616c696420696e7465726661636520696400000000604482015290519081900360640190fd5b6001600160e01b0319166000908152602081905260409020805460ff1916600117905556fea2646970667358221220cbff9653f20b11e7207d732db7c3a6b0bd23b6395e8dde9b36853651cb14868164736f6c63430006060033",
  "immutableReferences": {},
  "source": "// SPDX-License-Identifier: MIT\n\npragma solidity ^0.6.0;\n\nimport \"../introspection/ERC165.sol\";\n\ncontract ERC165Mock is ERC165 {\n    function registerInterface(bytes4 interfaceId) public {\n        _registerInterface(interfaceId);\n    }\n}\n",
  "sourcePath": "/home/aaa/SYNCToken/CBOND-CONTRACT/contracts/openzeppelin/mocks/ERC165Mock.sol",
  "compiler": {
    "name": "solc",
    "version": "0.6.6+commit.6c089d02.Emscripten.clang"
  },
  "schemaVersion": "3.1.0",
  "updatedAt": "2020-10-08T19:13:24.998Z",
  "devdoc": {
    "methods": {
      "supportsInterface(bytes4)": {
        "details": "See {IERC165-supportsInterface}.     * Time complexity O(1), guaranteed to always use less than 30 000 gas."
      }
    }
  },
  "userdoc": {
    "methods": {}
  }
}