{
  "contractName": "ERC777Mock",
  "abi": [
    {
      "inputs": [
        {
          "internalType": "address",
          "name": "initialHolder",
          "type": "address"
        },
        {
          "internalType": "uint256",
          "name": "initialBalance",
          "type": "uint256"
        },
        {
          "internalType": "string",
          "name": "name",
          "type": "string"
        },
        {
          "internalType": "string",
          "name": "symbol",
          "type": "string"
        },
        {
          "internalType": "address[]",
          "name": "defaultOperators",
          "type": "address[]"
        }
      ],
      "stateMutability": "nonpayable",
      "type": "constructor"
    },
    {
      "anonymous": false,
      "inputs": [
        {
          "indexed": true,
          "internalType": "address",
          "name": "owner",
          "type": "address"
        },
        {
          "indexed": true,
          "internalType": "address",
          "name": "spender",
          "type": "address"
        },
        {
          "indexed": false,
          "internalType": "uint256",
          "name": "value",
          "type": "uint256"
        }
      ],
      "name": "Approval",
      "type": "event"
    },
    {
      "anonymous": false,
      "inputs": [
        {
          "indexed": true,
          "internalType": "address",
          "name": "operator",
          "type": "address"
        },
        {
          "indexed": true,
          "internalType": "address",
          "name": "tokenHolder",
          "type": "address"
        }
      ],
      "name": "AuthorizedOperator",
      "type": "event"
    },
    {
      "anonymous": false,
      "inputs": [
        {
          "indexed": true,
          "internalType": "address",
          "name": "operator",
          "type": "address"
        },
        {
          "indexed": true,
          "internalType": "address",
          "name": "from",
          "type": "address"
        },
        {
          "indexed": false,
          "internalType": "uint256",
          "name": "amount",
          "type": "uint256"
        },
        {
          "indexed": false,
          "internalType": "bytes",
          "name": "data",
          "type": "bytes"
        },
        {
          "indexed": false,
          "internalType": "bytes",
          "name": "operatorData",
          "type": "bytes"
        }
      ],
      "name": "Burned",
      "type": "event"
    },
    {
      "anonymous": false,
      "inputs": [
        {
          "indexed": true,
          "internalType": "address",
          "name": "operator",
          "type": "address"
        },
        {
          "indexed": true,
          "internalType": "address",
          "name": "to",
          "type": "address"
        },
        {
          "indexed": false,
          "internalType": "uint256",
          "name": "amount",
          "type": "uint256"
        },
        {
          "indexed": false,
          "internalType": "bytes",
          "name": "data",
          "type": "bytes"
        },
        {
          "indexed": false,
          "internalType": "bytes",
          "name": "operatorData",
          "type": "bytes"
        }
      ],
      "name": "Minted",
      "type": "event"
    },
    {
      "anonymous": false,
      "inputs": [
        {
          "indexed": true,
          "internalType": "address",
          "name": "operator",
          "type": "address"
        },
        {
          "indexed": true,
          "internalType": "address",
          "name": "tokenHolder",
          "type": "address"
        }
      ],
      "name": "RevokedOperator",
      "type": "event"
    },
    {
      "anonymous": false,
      "inputs": [
        {
          "indexed": true,
          "internalType": "address",
          "name": "operator",
          "type": "address"
        },
        {
          "indexed": true,
          "internalType": "address",
          "name": "from",
          "type": "address"
        },
        {
          "indexed": true,
          "internalType": "address",
          "name": "to",
          "type": "address"
        },
        {
          "indexed": false,
          "internalType": "uint256",
          "name": "amount",
          "type": "uint256"
        },
        {
          "indexed": false,
          "internalType": "bytes",
          "name": "data",
          "type": "bytes"
        },
        {
          "indexed": false,
          "internalType": "bytes",
          "name": "operatorData",
          "type": "bytes"
        }
      ],
      "name": "Sent",
      "type": "event"
    },
    {
      "anonymous": false,
      "inputs": [
        {
          "indexed": true,
          "internalType": "address",
          "name": "from",
          "type": "address"
        },
        {
          "indexed": true,
          "internalType": "address",
          "name": "to",
          "type": "address"
        },
        {
          "indexed": false,
          "internalType": "uint256",
          "name": "value",
          "type": "uint256"
        }
      ],
      "name": "Transfer",
      "type": "event"
    },
    {
      "inputs": [
        {
          "internalType": "address",
          "name": "holder",
          "type": "address"
        },
        {
          "internalType": "address",
          "name": "spender",
          "type": "address"
        }
      ],
      "name": "allowance",
      "outputs": [
        {
          "internalType": "uint256",
          "name": "",
          "type": "uint256"
        }
      ],
      "stateMutability": "view",
      "type": "function"
    },
    {
      "inputs": [
        {
          "internalType": "address",
          "name": "spender",
          "type": "address"
        },
        {
          "internalType": "uint256",
          "name": "value",
          "type": "uint256"
        }
      ],
      "name": "approve",
      "outputs": [
        {
          "internalType": "bool",
          "name": "",
          "type": "bool"
        }
      ],
      "stateMutability": "nonpayable",
      "type": "function"
    },
    {
      "inputs": [
        {
          "internalType": "address",
          "name": "operator",
          "type": "address"
        }
      ],
      "name": "authorizeOperator",
      "outputs": [],
      "stateMutability": "nonpayable",
      "type": "function"
    },
    {
      "inputs": [
        {
          "internalType": "address",
          "name": "tokenHolder",
          "type": "address"
        }
      ],
      "name": "balanceOf",
      "outputs": [
        {
          "internalType": "uint256",
          "name": "",
          "type": "uint256"
        }
      ],
      "stateMutability": "view",
      "type": "function"
    },
    {
      "inputs": [
        {
          "internalType": "uint256",
          "name": "amount",
          "type": "uint256"
        },
        {
          "internalType": "bytes",
          "name": "data",
          "type": "bytes"
        }
      ],
      "name": "burn",
      "outputs": [],
      "stateMutability": "nonpayable",
      "type": "function"
    },
    {
      "inputs": [],
      "name": "decimals",
      "outputs": [
        {
          "internalType": "uint8",
          "name": "",
          "type": "uint8"
        }
      ],
      "stateMutability": "pure",
      "type": "function"
    },
    {
      "inputs": [],
      "name": "defaultOperators",
      "outputs": [
        {
          "internalType": "address[]",
          "name": "",
          "type": "address[]"
        }
      ],
      "stateMutability": "view",
      "type": "function"
    },
    {
      "inputs": [],
      "name": "granularity",
      "outputs": [
        {
          "internalType": "uint256",
          "name": "",
          "type": "uint256"
        }
      ],
      "stateMutability": "view",
      "type": "function"
    },
    {
      "inputs": [
        {
          "internalType": "address",
          "name": "operator",
          "type": "address"
        },
        {
          "internalType": "address",
          "name": "tokenHolder",
          "type": "address"
        }
      ],
      "name": "isOperatorFor",
      "outputs": [
        {
          "internalType": "bool",
          "name": "",
          "type": "bool"
        }
      ],
      "stateMutability": "view",
      "type": "function"
    },
    {
      "inputs": [],
      "name": "name",
      "outputs": [
        {
          "internalType": "string",
          "name": "",
          "type": "string"
        }
      ],
      "stateMutability": "view",
      "type": "function"
    },
    {
      "inputs": [
        {
          "internalType": "address",
          "name": "account",
          "type": "address"
        },
        {
          "internalType": "uint256",
          "name": "amount",
          "type": "uint256"
        },
        {
          "internalType": "bytes",
          "name": "data",
          "type": "bytes"
        },
        {
          "internalType": "bytes",
          "name": "operatorData",
          "type": "bytes"
        }
      ],
      "name": "operatorBurn",
      "outputs": [],
      "stateMutability": "nonpayable",
      "type": "function"
    },
    {
      "inputs": [
        {
          "internalType": "address",
          "name": "sender",
          "type": "address"
        },
        {
          "internalType": "address",
          "name": "recipient",
          "type": "address"
        },
        {
          "internalType": "uint256",
          "name": "amount",
          "type": "uint256"
        },
        {
          "internalType": "bytes",
          "name": "data",
          "type": "bytes"
        },
        {
          "internalType": "bytes",
          "name": "operatorData",
          "type": "bytes"
        }
      ],
      "name": "operatorSend",
      "outputs": [],
      "stateMutability": "nonpayable",
      "type": "function"
    },
    {
      "inputs": [
        {
          "internalType": "address",
          "name": "operator",
          "type": "address"
        }
      ],
      "name": "revokeOperator",
      "outputs": [],
      "stateMutability": "nonpayable",
      "type": "function"
    },
    {
      "inputs": [
        {
          "internalType": "address",
          "name": "recipient",
          "type": "address"
        },
        {
          "internalType": "uint256",
          "name": "amount",
          "type": "uint256"
        },
        {
          "internalType": "bytes",
          "name": "data",
          "type": "bytes"
        }
      ],
      "name": "send",
      "outputs": [],
      "stateMutability": "nonpayable",
      "type": "function"
    },
    {
      "inputs": [],
      "name": "symbol",
      "outputs": [
        {
          "internalType": "string",
          "name": "",
          "type": "string"
        }
      ],
      "stateMutability": "view",
      "type": "function"
    },
    {
      "inputs": [],
      "name": "totalSupply",
      "outputs": [
        {
          "internalType": "uint256",
          "name": "",
          "type": "uint256"
        }
      ],
      "stateMutability": "view",
      "type": "function"
    },
    {
      "inputs": [
        {
          "internalType": "address",
          "name": "recipient",
          "type": "address"
        },
        {
          "internalType": "uint256",
          "name": "amount",
          "type": "uint256"
        }
      ],
      "name": "transfer",
      "outputs": [
        {
          "internalType": "bool",
          "name": "",
          "type": "bool"
        }
      ],
      "stateMutability": "nonpayable",
      "type": "function"
    },
    {
      "inputs": [
        {
          "internalType": "address",
          "name": "holder",
          "type": "address"
        },
        {
          "internalType": "address",
          "name": "recipient",
          "type": "address"
        },
        {
          "internalType": "uint256",
          "name": "amount",
          "type": "uint256"
        }
      ],
      "name": "transferFrom",
      "outputs": [
        {
          "internalType": "bool",
          "name": "",
          "type": "bool"
        }
      ],
      "stateMutability": "nonpayable",
      "type": "function"
    },
    {
      "inputs": [
        {
          "internalType": "address",
          "name": "to",
          "type": "address"
        },
        {
          "internalType": "uint256",
          "name": "amount",
          "type": "uint256"
        },
        {
          "internalType": "bytes",
          "name": "userData",
          "type": "bytes"
        },
        {
          "internalType": "bytes",
          "name": "operatorData",
          "type": "bytes"
        }
      ],
      "name": "mintInternal",
      "outputs": [],
      "stateMutability": "nonpayable",
      "type": "function"
    },
    {
      "inputs": [
        {
          "internalType": "address",
          "name": "holder",
          "type": "address"
        },
        {
          "internalType": "address",
          "name": "spender",
          "type": "address"
        },
        {
          "internalType": "uint256",
          "name": "value",
          "type": "uint256"
        }
      ],
      "name": "approveInternal",
      "outputs": [],
      "stateMutability": "nonpayable",
      "type": "function"
    }
  ],
  "bytecode": "0x60806040523480156200001157600080fd5b5060405162002df938038062002df9833981810160405260a08110156200003757600080fd5b815160208301516040808501805191519395929483019291846401000000008211156200006357600080fd5b9083019060208201858111156200007957600080fd5b82516401000000008111828201881017156200009457600080fd5b82525081516020918201929091019080838360005b83811015620000c3578181015183820152602001620000a9565b50505050905090810190601f168015620000f15780820380516001836020036101000a031916815260200191505b50604052602001805160405193929190846401000000008211156200011557600080fd5b9083019060208201858111156200012b57600080fd5b82516401000000008111828201881017156200014657600080fd5b82525081516020918201929091019080838360005b83811015620001755781810151838201526020016200015b565b50505050905090810190601f168015620001a35780820380516001836020036101000a031916815260200191505b5060405260200180516040519392919084640100000000821115620001c757600080fd5b908301906020820185811115620001dd57600080fd5b8251866020820283011164010000000082111715620001fb57600080fd5b82525081516020918201928201910280838360005b838110156200022a57818101518382015260200162000210565b50505050905001604052505050828282826002908051906020019062000252929190620009f8565b50815162000268906003906020850190620009f8565b5080516200027e90600490602084019062000a7d565b5060005b600454811015620002de5760016005600060048481548110620002a157fe5b6000918252602080832091909101546001600160a01b031683528201929092526040019020805460ff191691151591909117905560010162000282565b50604080516a22a9219b9b9baa37b5b2b760a91b8152815190819003600b0181206329965a1d60e01b82523060048301819052602483019190915260448201529051731820a4b7618bde71dce8cdc73aab6c95905fad24916329965a1d91606480830192600092919082900301818387803b1580156200035d57600080fd5b505af115801562000372573d6000803e3d6000fd5b5050604080516922a92199182a37b5b2b760b11b8152815190819003600a0181206329965a1d60e01b82523060048301819052602483019190915260448201529051731820a4b7618bde71dce8cdc73aab6c95905fad2493506329965a1d9250606480830192600092919082900301818387803b158015620003f357600080fd5b505af115801562000408573d6000803e3d6000fd5b5050505050505062000441858560405180602001604052806000815250604051806020016040528060008152506200044c60201b60201c565b505050505062000b27565b6001600160a01b038416620004a8576040805162461bcd60e51b815260206004820181905260248201527f4552433737373a206d696e7420746f20746865207a65726f2061646472657373604482015290519081900360640190fd5b6000620004bd6001600160e01b03620006c816565b9050620004d781600087876001600160e01b03620006cd16565b620004f384600154620006d360201b62001f961790919060201c565b6001556001600160a01b038516600090815260208181526040909120546200052691869062001f96620006d3821b17901c565b6001600160a01b0386166000908152602081905260408120919091556200055e9082908787878760016001600160e01b036200073516565b846001600160a01b0316816001600160a01b03167f2fe5be0146f74c5bce36c0b80911af6c7d86ff27e89d5cfa61fc681327954e5d868686604051808481526020018060200180602001838103835285818151815260200191508051906020019080838360005b83811015620005df578181015183820152602001620005c5565b50505050905090810190601f1680156200060d5780820380516001836020036101000a031916815260200191505b50838103825284518152845160209182019186019080838360005b838110156200064257818101518382015260200162000628565b50505050905090810190601f168015620006705780820380516001836020036101000a031916815260200191505b509550505050505060405180910390a36040805185815290516001600160a01b038716916000917fddf252ad1be2c89b69c2b068fc378daa952ba7f163c4a11628f55a4df523b3ef9181900360200190a35050505050565b335b90565b50505050565b6000828201838110156200072e576040805162461bcd60e51b815260206004820152601b60248201527f536166654d6174683a206164646974696f6e206f766572666c6f770000000000604482015290519081900360640190fd5b9392505050565b6040805163555ddc6560e11b81526001600160a01b03871660048201527fb281fc8c12954d22544db45de3159a39272895b169a852b314f9cc762e44c53b60248201529051600091731820a4b7618bde71dce8cdc73aab6c95905fad249163aabbb8ca91604480820192602092909190829003018186803b158015620007ba57600080fd5b505afa158015620007cf573d6000803e3d6000fd5b505050506040513d6020811015620007e657600080fd5b505190506001600160a01b038116156200098457806001600160a01b03166223de298989898989896040518763ffffffff1660e01b815260040180876001600160a01b03166001600160a01b03168152602001866001600160a01b03166001600160a01b03168152602001856001600160a01b03166001600160a01b031681526020018481526020018060200180602001838103835285818151815260200191508051906020019080838360005b83811015620008ae57818101518382015260200162000894565b50505050905090810190601f168015620008dc5780820380516001836020036101000a031916815260200191505b50838103825284518152845160209182019186019080838360005b8381101562000911578181015183820152602001620008f7565b50505050905090810190601f1680156200093f5780820380516001836020036101000a031916815260200191505b5098505050505050505050600060405180830381600087803b1580156200096557600080fd5b505af11580156200097a573d6000803e3d6000fd5b50505050620009e8565b8115620009e857620009aa866001600160a01b0316620009f260201b62001ff01760201c565b15620009e85760405162461bcd60e51b815260040180806020018281038252604d81526020018062002dac604d913960600191505060405180910390fd5b5050505050505050565b3b151590565b828054600181600116156101000203166002900490600052602060002090601f016020900481019282601f1062000a3b57805160ff191683800117855562000a6b565b8280016001018555821562000a6b579182015b8281111562000a6b57825182559160200191906001019062000a4e565b5062000a7992915062000ae3565b5090565b82805482825590600052602060002090810192821562000ad5579160200282015b8281111562000ad557825182546001600160a01b0319166001600160a01b0390911617825560209092019160019091019062000a9e565b5062000a7992915062000b00565b620006ca91905b8082111562000a79576000815560010162000aea565b620006ca91905b8082111562000a795780546001600160a01b031916815560010162000b07565b6122758062000b376000396000f3fe608060405234801561001057600080fd5b506004361061012c5760003560e01c8063959b8c3f116100ad578063d95b637111610071578063d95b6371146106b4578063dd62ed3e146106e2578063fad8b32a14610710578063fc673c4f14610736578063fe9d9303146108745761012c565b8063959b8c3f1461046357806395d89b41146104895780639bd9bbc614610491578063a9059cbb1461054a578063b1f0b5be146105765761012c565b8063313ce567116100f4578063313ce56714610296578063556f0dc7146102b457806356189cb4146102bc57806362ad1b83146102f457806370a082311461043d5761012c565b806306e485381461013157806306fdde0314610189578063095ea7b31461020657806318160ddd1461024657806323b872dd14610260575b600080fd5b61013961091f565b60408051602080825283518183015283519192839290830191858101910280838360005b8381101561017557818101518382015260200161015d565b505050509050019250505060405180910390f35b610191610981565b6040805160208082528351818301528351919283929083019185019080838360005b838110156101cb5781810151838201526020016101b3565b50505050905090810190601f1680156101f85780820380516001836020036101000a031916815260200191505b509250505060405180910390f35b6102326004803603604081101561021c57600080fd5b506001600160a01b038135169060200135610a0b565b604080519115158252519081900360200190f35b61024e610a2d565b60408051918252519081900360200190f35b6102326004803603606081101561027657600080fd5b506001600160a01b03813581169160208101359091169060400135610a33565b61029e610bb6565b6040805160ff9092168252519081900360200190f35b61024e610bbb565b6102f2600480360360608110156102d257600080fd5b506001600160a01b03813581169160208101359091169060400135610bc0565b005b6102f2600480360360a081101561030a57600080fd5b6001600160a01b03823581169260208101359091169160408201359190810190608081016060820135600160201b81111561034457600080fd5b82018360208201111561035657600080fd5b803590602001918460018302840111600160201b8311171561037757600080fd5b91908080601f0160208091040260200160405190810160405280939291908181526020018383808284376000920191909152509295949360208101935035915050600160201b8111156103c957600080fd5b8201836020820111156103db57600080fd5b803590602001918460018302840111600160201b831117156103fc57600080fd5b91908080601f016020809104026020016040519081016040528093929190818152602001838380828437600092019190915250929550610bd0945050505050565b61024e6004803603602081101561045357600080fd5b50356001600160a01b0316610c32565b6102f26004803603602081101561047957600080fd5b50356001600160a01b0316610c4d565b610191610d99565b6102f2600480360360608110156104a757600080fd5b6001600160a01b0382351691602081013591810190606081016040820135600160201b8111156104d657600080fd5b8201836020820111156104e857600080fd5b803590602001918460018302840111600160201b8311171561050957600080fd5b91908080601f016020809104026020016040519081016040528093929190818152602001838380828437600092019190915250929550610dfa945050505050565b6102326004803603604081101561056057600080fd5b506001600160a01b038135169060200135610e1f565b6102f26004803603608081101561058c57600080fd5b6001600160a01b0382351691602081013591810190606081016040820135600160201b8111156105bb57600080fd5b8201836020820111156105cd57600080fd5b803590602001918460018302840111600160201b831117156105ee57600080fd5b91908080601f0160208091040260200160405190810160405280939291908181526020018383808284376000920191909152509295949360208101935035915050600160201b81111561064057600080fd5b82018360208201111561065257600080fd5b803590602001918460018302840111600160201b8311171561067357600080fd5b91908080601f016020809104026020016040519081016040528093929190818152602001838380828437600092019190915250929550610ef8945050505050565b610232600480360360408110156106ca57600080fd5b506001600160a01b0381358116916020013516610f0a565b61024e600480360360408110156106f857600080fd5b506001600160a01b0381358116916020013516610fac565b6102f26004803603602081101561072657600080fd5b50356001600160a01b0316610fd7565b6102f26004803603608081101561074c57600080fd5b6001600160a01b0382351691602081013591810190606081016040820135600160201b81111561077b57600080fd5b82018360208201111561078d57600080fd5b803590602001918460018302840111600160201b831117156107ae57600080fd5b91908080601f0160208091040260200160405190810160405280939291908181526020018383808284376000920191909152509295949360208101935035915050600160201b81111561080057600080fd5b82018360208201111561081257600080fd5b803590602001918460018302840111600160201b8311171561083357600080fd5b91908080601f016020809104026020016040519081016040528093929190818152602001838380828437600092019190915250929550611123945050505050565b6102f26004803603604081101561088a57600080fd5b81359190810190604081016020820135600160201b8111156108ab57600080fd5b8201836020820111156108bd57600080fd5b803590602001918460018302840111600160201b831117156108de57600080fd5b91908080601f01602080910402602001604051908101604052809392919081815260200183838082843760009201919091525092955061117b945050505050565b6060600480548060200260200160405190810160405280929190818152602001828054801561097757602002820191906000526020600020905b81546001600160a01b03168152600190910190602001808311610959575b5050505050905090565b60028054604080516020601f60001961010060018716150201909416859004938401819004810282018101909252828152606093909290918301828280156109775780601f106109df57610100808354040283529160200191610977565b820191906000526020600020905b8154815290600101906020018083116109ed57509395945050505050565b600080610a166111a1565b9050610a238185856111a5565b5060019392505050565b60015490565b60006001600160a01b038316610a7a5760405162461bcd60e51b815260040180806020018281038252602481526020018061215b6024913960400191505060405180910390fd5b6001600160a01b038416610abf5760405162461bcd60e51b81526004018080602001828103825260268152602001806121d46026913960400191505060405180910390fd5b6000610ac96111a1565b9050610af7818686866040518060200160405280600081525060405180602001604052806000815250611291565b610b238186868660405180602001604052806000815250604051806020016040528060008152506114d9565b610b7d8582610b78866040518060600160405280602981526020016121ab602991396001600160a01b03808c166000908152600860209081526040808320938b1683529290522054919063ffffffff6116fe16565b6111a5565b610bab8186868660405180602001604052806000815250604051806020016040528060008152506000611795565b506001949350505050565b601290565b600190565b610bcb8383836111a5565b505050565b610be1610bdb6111a1565b86610f0a565b610c1c5760405162461bcd60e51b815260040180806020018281038252602c81526020018061217f602c913960400191505060405180910390fd5b610c2b85858585856001611a35565b5050505050565b6001600160a01b031660009081526020819052604090205490565b806001600160a01b0316610c5f6111a1565b6001600160a01b03161415610ca55760405162461bcd60e51b81526004018080602001828103825260248152602001806120c96024913960400191505060405180910390fd5b6001600160a01b03811660009081526005602052604090205460ff1615610d085760076000610cd26111a1565b6001600160a01b03908116825260208083019390935260409182016000908120918516815292529020805460ff19169055610d4f565b600160066000610d166111a1565b6001600160a01b03908116825260208083019390935260409182016000908120918616815292529020805460ff19169115159190911790555b610d576111a1565b6001600160a01b0316816001600160a01b03167ff4caeb2d6ca8932a215a353d0703c326ec2d81fc68170f320eb2ab49e9df61f960405160405180910390a350565b60038054604080516020601f60026000196101006001881615020190951694909404938401819004810282018101909252828152606093909290918301828280156109775780601f106109df57610100808354040283529160200191610977565b610bcb610e056111a1565b848484604051806020016040528060008152506001611a35565b60006001600160a01b038316610e665760405162461bcd60e51b815260040180806020018281038252602481526020018061215b6024913960400191505060405180910390fd5b6000610e706111a1565b9050610e9e818286866040518060200160405280600081525060405180602001604052806000815250611291565b610eca8182868660405180602001604052806000815250604051806020016040528060008152506114d9565b610a238182868660405180602001604052806000815250604051806020016040528060008152506000611795565b610f0484848484611b0c565b50505050565b6000816001600160a01b0316836001600160a01b03161480610f7557506001600160a01b03831660009081526005602052604090205460ff168015610f7557506001600160a01b0380831660009081526007602090815260408083209387168352929052205460ff16155b80610fa557506001600160a01b0380831660009081526006602090815260408083209387168352929052205460ff165b9392505050565b6001600160a01b03918216600090815260086020908152604080832093909416825291909152205490565b610fdf6111a1565b6001600160a01b0316816001600160a01b0316141561102f5760405162461bcd60e51b81526004018080602001828103825260218152602001806120ed6021913960400191505060405180910390fd5b6001600160a01b03811660009081526005602052604090205460ff161561109b5760016007600061105e6111a1565b6001600160a01b03908116825260208083019390935260409182016000908120918616815292529020805460ff19169115159190911790556110d9565b600660006110a76111a1565b6001600160a01b03908116825260208083019390935260409182016000908120918516815292529020805460ff191690555b6110e16111a1565b6001600160a01b0316816001600160a01b03167f50546e66e5f44d728365dc3908c63bc5cfeeab470722c1677e3073a6ac294aa160405160405180910390a350565b61113461112e6111a1565b85610f0a565b61116f5760405162461bcd60e51b815260040180806020018281038252602c81526020018061217f602c913960400191505060405180910390fd5b610f0484848484611d50565b61119d6111866111a1565b838360405180602001604052806000815250611d50565b5050565b3390565b6001600160a01b0383166111ea5760405162461bcd60e51b81526004018080602001828103825260258152602001806120396025913960400191505060405180910390fd5b6001600160a01b03821661122f5760405162461bcd60e51b815260040180806020018281038252602381526020018061221d6023913960400191505060405180910390fd5b6001600160a01b03808416600081815260086020908152604080832094871680845294825291829020859055815185815291517f8c5be1e5ebec7d5bd14f71427d1e84f3dd0314c0f7b2291e5b200ac8c7c3b9259281900390910190a3505050565b6040805163555ddc6560e11b81526001600160a01b03871660048201527f29ddb589b1fb5fc7cf394961c1adf5f8c6454761adf795e67fe149f658abe89560248201529051600091731820a4b7618bde71dce8cdc73aab6c95905fad249163aabbb8ca91604480820192602092909190829003018186803b15801561131557600080fd5b505afa158015611329573d6000803e3d6000fd5b505050506040513d602081101561133f57600080fd5b505190506001600160a01b038116156114d057806001600160a01b03166375ab97828888888888886040518763ffffffff1660e01b815260040180876001600160a01b03166001600160a01b03168152602001866001600160a01b03166001600160a01b03168152602001856001600160a01b03166001600160a01b031681526020018481526020018060200180602001838103835285818151815260200191508051906020019080838360005b838110156114055781810151838201526020016113ed565b50505050905090810190601f1680156114325780820380516001836020036101000a031916815260200191505b50838103825284518152845160209182019186019080838360005b8381101561146557818101518382015260200161144d565b50505050905090810190601f1680156114925780820380516001836020036101000a031916815260200191505b5098505050505050505050600060405180830381600087803b1580156114b757600080fd5b505af11580156114cb573d6000803e3d6000fd5b505050505b50505050505050565b6114e586868686610f04565b61152883604051806060016040528060278152602001612080602791396001600160a01b038816600090815260208190526040902054919063ffffffff6116fe16565b6001600160a01b03808716600090815260208190526040808220939093559086168152205461155d908463ffffffff611f9616565b600080866001600160a01b03166001600160a01b0316815260200190815260200160002081905550836001600160a01b0316856001600160a01b0316876001600160a01b03167f06b541ddaa720db2b10a4d0cdac39b8d360425fc073085fac19bc82614677987868686604051808481526020018060200180602001838103835285818151815260200191508051906020019080838360005b8381101561160e5781810151838201526020016115f6565b50505050905090810190601f16801561163b5780820380516001836020036101000a031916815260200191505b50838103825284518152845160209182019186019080838360005b8381101561166e578181015183820152602001611656565b50505050905090810190601f16801561169b5780820380516001836020036101000a031916815260200191505b509550505050505060405180910390a4836001600160a01b0316856001600160a01b03167fddf252ad1be2c89b69c2b068fc378daa952ba7f163c4a11628f55a4df523b3ef856040518082815260200191505060405180910390a3505050505050565b6000818484111561178d5760405162461bcd60e51b81526004018080602001828103825283818151815260200191508051906020019080838360005b8381101561175257818101518382015260200161173a565b50505050905090810190601f16801561177f5780820380516001836020036101000a031916815260200191505b509250505060405180910390fd5b505050900390565b6040805163555ddc6560e11b81526001600160a01b03871660048201527fb281fc8c12954d22544db45de3159a39272895b169a852b314f9cc762e44c53b60248201529051600091731820a4b7618bde71dce8cdc73aab6c95905fad249163aabbb8ca91604480820192602092909190829003018186803b15801561181957600080fd5b505afa15801561182d573d6000803e3d6000fd5b505050506040513d602081101561184357600080fd5b505190506001600160a01b038116156119d757806001600160a01b03166223de298989898989896040518763ffffffff1660e01b815260040180876001600160a01b03166001600160a01b03168152602001866001600160a01b03166001600160a01b03168152602001856001600160a01b03166001600160a01b031681526020018481526020018060200180602001838103835285818151815260200191508051906020019080838360005b838110156119085781810151838201526020016118f0565b50505050905090810190601f1680156119355780820380516001836020036101000a031916815260200191505b50838103825284518152845160209182019186019080838360005b83811015611968578181015183820152602001611950565b50505050905090810190601f1680156119955780820380516001836020036101000a031916815260200191505b5098505050505050505050600060405180830381600087803b1580156119ba57600080fd5b505af11580156119ce573d6000803e3d6000fd5b50505050611a2b565b8115611a2b576119ef866001600160a01b0316611ff0565b15611a2b5760405162461bcd60e51b815260040180806020018281038252604d81526020018061210e604d913960600191505060405180910390fd5b5050505050505050565b6001600160a01b038616611a7a5760405162461bcd60e51b815260040180806020018281038252602281526020018061205e6022913960400191505060405180910390fd5b6001600160a01b038516611ad5576040805162461bcd60e51b815260206004820181905260248201527f4552433737373a2073656e6420746f20746865207a65726f2061646472657373604482015290519081900360640190fd5b6000611adf6111a1565b9050611aef818888888888611291565b611afd8188888888886114d9565b6114d081888888888888611795565b6001600160a01b038416611b67576040805162461bcd60e51b815260206004820181905260248201527f4552433737373a206d696e7420746f20746865207a65726f2061646472657373604482015290519081900360640190fd5b6000611b716111a1565b9050611b808160008787610f04565b600154611b93908563ffffffff611f9616565b6001556001600160a01b038516600090815260208190526040902054611bbf908563ffffffff611f9616565b6001600160a01b038616600090815260208190526040812091909155611bec908290878787876001611795565b846001600160a01b0316816001600160a01b03167f2fe5be0146f74c5bce36c0b80911af6c7d86ff27e89d5cfa61fc681327954e5d868686604051808481526020018060200180602001838103835285818151815260200191508051906020019080838360005b83811015611c6b578181015183820152602001611c53565b50505050905090810190601f168015611c985780820380516001836020036101000a031916815260200191505b50838103825284518152845160209182019186019080838360005b83811015611ccb578181015183820152602001611cb3565b50505050905090810190601f168015611cf85780820380516001836020036101000a031916815260200191505b509550505050505060405180910390a36040805185815290516001600160a01b038716916000917fddf252ad1be2c89b69c2b068fc378daa952ba7f163c4a11628f55a4df523b3ef9181900360200190a35050505050565b6001600160a01b038416611d955760405162461bcd60e51b81526004018080602001828103825260228152602001806120a76022913960400191505060405180910390fd5b6000611d9f6111a1565b9050611dae8186600087610f04565b611dbd81866000878787611291565b611e00846040518060600160405280602381526020016121fa602391396001600160a01b038816600090815260208190526040902054919063ffffffff6116fe16565b6001600160a01b038616600090815260208190526040902055600154611e2c908563ffffffff611ff616565b600181905550846001600160a01b0316816001600160a01b03167fa78a9be3a7b862d26933ad85fb11d80ef66b8f972d7cbba06621d583943a4098868686604051808481526020018060200180602001838103835285818151815260200191508051906020019080838360005b83811015611eb1578181015183820152602001611e99565b50505050905090810190601f168015611ede5780820380516001836020036101000a031916815260200191505b50838103825284518152845160209182019186019080838360005b83811015611f11578181015183820152602001611ef9565b50505050905090810190601f168015611f3e5780820380516001836020036101000a031916815260200191505b509550505050505060405180910390a36040805185815290516000916001600160a01b038816917fddf252ad1be2c89b69c2b068fc378daa952ba7f163c4a11628f55a4df523b3ef9181900360200190a35050505050565b600082820183811015610fa5576040805162461bcd60e51b815260206004820152601b60248201527f536166654d6174683a206164646974696f6e206f766572666c6f770000000000604482015290519081900360640190fd5b3b151590565b6000610fa583836040518060400160405280601e81526020017f536166654d6174683a207375627472616374696f6e206f766572666c6f7700008152506116fe56fe4552433737373a20617070726f76652066726f6d20746865207a65726f20616464726573734552433737373a2073656e642066726f6d20746865207a65726f20616464726573734552433737373a207472616e7366657220616d6f756e7420657863656564732062616c616e63654552433737373a206275726e2066726f6d20746865207a65726f20616464726573734552433737373a20617574686f72697a696e672073656c66206173206f70657261746f724552433737373a207265766f6b696e672073656c66206173206f70657261746f724552433737373a20746f6b656e20726563697069656e7420636f6e747261637420686173206e6f20696d706c656d656e74657220666f7220455243373737546f6b656e73526563697069656e744552433737373a207472616e7366657220746f20746865207a65726f20616464726573734552433737373a2063616c6c6572206973206e6f7420616e206f70657261746f7220666f7220686f6c6465724552433737373a207472616e7366657220616d6f756e74206578636565647320616c6c6f77616e63654552433737373a207472616e736665722066726f6d20746865207a65726f20616464726573734552433737373a206275726e20616d6f756e7420657863656564732062616c616e63654552433737373a20617070726f766520746f20746865207a65726f2061646472657373a26469706673582212206f79b560569b17fa0de2905e49825fb6ddb4c28d0332f37ef68284fdc35f1ae064736f6c634300060600334552433737373a20746f6b656e20726563697069656e7420636f6e747261637420686173206e6f20696d706c656d656e74657220666f7220455243373737546f6b656e73526563697069656e74",
  "immutableReferences": {},
  "source": "// SPDX-License-Identifier: MIT\n\npragma solidity ^0.6.0;\n\nimport \"../GSN/Context.sol\";\nimport \"../token/ERC777/ERC777.sol\";\n\ncontract ERC777Mock is Context, ERC777 {\n    constructor(\n        address initialHolder,\n        uint256 initialBalance,\n        string memory name,\n        string memory symbol,\n        address[] memory defaultOperators\n    ) public ERC777(name, symbol, defaultOperators) {\n        _mint(initialHolder, initialBalance, \"\", \"\");\n    }\n\n    function mintInternal (\n        address to,\n        uint256 amount,\n        bytes memory userData,\n        bytes memory operatorData\n    ) public {\n        _mint(to, amount, userData, operatorData);\n    }\n\n    function approveInternal(address holder, address spender, uint256 value) public {\n        _approve(holder, spender, value);\n    }\n}\n",
  "sourcePath": "/home/aaa/SYNCToken/CBOND-CONTRACT/contracts/openzeppelin/mocks/ERC777Mock.sol",
  "compiler": {
    "name": "solc",
    "version": "0.6.6+commit.6c089d02.Emscripten.clang"
  },
  "schemaVersion": "3.1.0",
  "updatedAt": "2020-10-08T19:13:25.020Z",
  "devdoc": {
    "methods": {
      "allowance(address,address)": {
        "details": "See {IERC20-allowance}.     * Note that operator and allowance concepts are orthogonal: operators may not have allowance, and accounts with allowance may not be operators themselves."
      },
      "approve(address,uint256)": {
        "details": "See {IERC20-approve}.     * Note that accounts cannot have allowance issued by their operators."
      },
      "authorizeOperator(address)": {
        "details": "See {IERC777-authorizeOperator}."
      },
      "balanceOf(address)": {
        "details": "Returns the amount of tokens owned by an account (`tokenHolder`)."
      },
      "burn(uint256,bytes)": {
        "details": "See {IERC777-burn}.     * Also emits a {IERC20-Transfer} event for ERC20 compatibility."
      },
      "decimals()": {
        "details": "See {ERC20-decimals}.     * Always returns 18, as per the [ERC777 EIP](https://eips.ethereum.org/EIPS/eip-777#backward-compatibility)."
      },
      "defaultOperators()": {
        "details": "See {IERC777-defaultOperators}."
      },
      "granularity()": {
        "details": "See {IERC777-granularity}.     * This implementation always returns `1`."
      },
      "isOperatorFor(address,address)": {
        "details": "See {IERC777-isOperatorFor}."
      },
      "name()": {
        "details": "See {IERC777-name}."
      },
      "operatorBurn(address,uint256,bytes,bytes)": {
        "details": "See {IERC777-operatorBurn}.     * Emits {Burned} and {IERC20-Transfer} events."
      },
      "operatorSend(address,address,uint256,bytes,bytes)": {
        "details": "See {IERC777-operatorSend}.     * Emits {Sent} and {IERC20-Transfer} events."
      },
      "revokeOperator(address)": {
        "details": "See {IERC777-revokeOperator}."
      },
      "send(address,uint256,bytes)": {
        "details": "See {IERC777-send}.     * Also emits a {IERC20-Transfer} event for ERC20 compatibility."
      },
      "symbol()": {
        "details": "See {IERC777-symbol}."
      },
      "totalSupply()": {
        "details": "See {IERC777-totalSupply}."
      },
      "transfer(address,uint256)": {
        "details": "See {IERC20-transfer}.     * Unlike `send`, `recipient` is _not_ required to implement the {IERC777Recipient} interface if it is a contract.     * Also emits a {Sent} event."
      },
      "transferFrom(address,address,uint256)": {
        "details": "See {IERC20-transferFrom}.    * Note that operator and allowance concepts are orthogonal: operators cannot call `transferFrom` (unless they have allowance), and accounts with allowance cannot call `operatorSend` (unless they are operators).    * Emits {Sent}, {IERC20-Transfer} and {IERC20-Approval} events."
      }
    }
  },
  "userdoc": {
    "methods": {}
  }
}