{
  "contractName": "ERC721BurnableMock",
  "abi": [
    {
      "inputs": [
        {
          "internalType": "string",
          "name": "name",
          "type": "string"
        },
        {
          "internalType": "string",
          "name": "symbol",
          "type": "string"
        }
      ],
      "stateMutability": "nonpayable",
      "type": "constructor"
    },
    {
      "anonymous": false,
      "inputs": [
        {
          "indexed": true,
          "internalType": "address",
          "name": "owner",
          "type": "address"
        },
        {
          "indexed": true,
          "internalType": "address",
          "name": "approved",
          "type": "address"
        },
        {
          "indexed": true,
          "internalType": "uint256",
          "name": "tokenId",
          "type": "uint256"
        }
      ],
      "name": "Approval",
      "type": "event"
    },
    {
      "anonymous": false,
      "inputs": [
        {
          "indexed": true,
          "internalType": "address",
          "name": "owner",
          "type": "address"
        },
        {
          "indexed": true,
          "internalType": "address",
          "name": "operator",
          "type": "address"
        },
        {
          "indexed": false,
          "internalType": "bool",
          "name": "approved",
          "type": "bool"
        }
      ],
      "name": "ApprovalForAll",
      "type": "event"
    },
    {
      "anonymous": false,
      "inputs": [
        {
          "indexed": true,
          "internalType": "address",
          "name": "from",
          "type": "address"
        },
        {
          "indexed": true,
          "internalType": "address",
          "name": "to",
          "type": "address"
        },
        {
          "indexed": true,
          "internalType": "uint256",
          "name": "tokenId",
          "type": "uint256"
        }
      ],
      "name": "Transfer",
      "type": "event"
    },
    {
      "inputs": [
        {
          "internalType": "address",
          "name": "to",
          "type": "address"
        },
        {
          "internalType": "uint256",
          "name": "tokenId",
          "type": "uint256"
        }
      ],
      "name": "approve",
      "outputs": [],
      "stateMutability": "nonpayable",
      "type": "function"
    },
    {
      "inputs": [
        {
          "internalType": "address",
          "name": "owner",
          "type": "address"
        }
      ],
      "name": "balanceOf",
      "outputs": [
        {
          "internalType": "uint256",
          "name": "",
          "type": "uint256"
        }
      ],
      "stateMutability": "view",
      "type": "function"
    },
    {
      "inputs": [],
      "name": "baseURI",
      "outputs": [
        {
          "internalType": "string",
          "name": "",
          "type": "string"
        }
      ],
      "stateMutability": "view",
      "type": "function"
    },
    {
      "inputs": [
        {
          "internalType": "uint256",
          "name": "tokenId",
          "type": "uint256"
        }
      ],
      "name": "burn",
      "outputs": [],
      "stateMutability": "nonpayable",
      "type": "function"
    },
    {
      "inputs": [
        {
          "internalType": "uint256",
          "name": "tokenId",
          "type": "uint256"
        }
      ],
      "name": "getApproved",
      "outputs": [
        {
          "internalType": "address",
          "name": "",
          "type": "address"
        }
      ],
      "stateMutability": "view",
      "type": "function"
    },
    {
      "inputs": [
        {
          "internalType": "address",
          "name": "owner",
          "type": "address"
        },
        {
          "internalType": "address",
          "name": "operator",
          "type": "address"
        }
      ],
      "name": "isApprovedForAll",
      "outputs": [
        {
          "internalType": "bool",
          "name": "",
          "type": "bool"
        }
      ],
      "stateMutability": "view",
      "type": "function"
    },
    {
      "inputs": [],
      "name": "name",
      "outputs": [
        {
          "internalType": "string",
          "name": "",
          "type": "string"
        }
      ],
      "stateMutability": "view",
      "type": "function"
    },
    {
      "inputs": [
        {
          "internalType": "uint256",
          "name": "tokenId",
          "type": "uint256"
        }
      ],
      "name": "ownerOf",
      "outputs": [
        {
          "internalType": "address",
          "name": "",
          "type": "address"
        }
      ],
      "stateMutability": "view",
      "type": "function"
    },
    {
      "inputs": [
        {
          "internalType": "address",
          "name": "from",
          "type": "address"
        },
        {
          "internalType": "address",
          "name": "to",
          "type": "address"
        },
        {
          "internalType": "uint256",
          "name": "tokenId",
          "type": "uint256"
        }
      ],
      "name": "safeTransferFrom",
      "outputs": [],
      "stateMutability": "nonpayable",
      "type": "function"
    },
    {
      "inputs": [
        {
          "internalType": "address",
          "name": "from",
          "type": "address"
        },
        {
          "internalType": "address",
          "name": "to",
          "type": "address"
        },
        {
          "internalType": "uint256",
          "name": "tokenId",
          "type": "uint256"
        },
        {
          "internalType": "bytes",
          "name": "_data",
          "type": "bytes"
        }
      ],
      "name": "safeTransferFrom",
      "outputs": [],
      "stateMutability": "nonpayable",
      "type": "function"
    },
    {
      "inputs": [
        {
          "internalType": "address",
          "name": "operator",
          "type": "address"
        },
        {
          "internalType": "bool",
          "name": "approved",
          "type": "bool"
        }
      ],
      "name": "setApprovalForAll",
      "outputs": [],
      "stateMutability": "nonpayable",
      "type": "function"
    },
    {
      "inputs": [
        {
          "internalType": "bytes4",
          "name": "interfaceId",
          "type": "bytes4"
        }
      ],
      "name": "supportsInterface",
      "outputs": [
        {
          "internalType": "bool",
          "name": "",
          "type": "bool"
        }
      ],
      "stateMutability": "view",
      "type": "function"
    },
    {
      "inputs": [],
      "name": "symbol",
      "outputs": [
        {
          "internalType": "string",
          "name": "",
          "type": "string"
        }
      ],
      "stateMutability": "view",
      "type": "function"
    },
    {
      "inputs": [
        {
          "internalType": "uint256",
          "name": "index",
          "type": "uint256"
        }
      ],
      "name": "tokenByIndex",
      "outputs": [
        {
          "internalType": "uint256",
          "name": "",
          "type": "uint256"
        }
      ],
      "stateMutability": "view",
      "type": "function"
    },
    {
      "inputs": [
        {
          "internalType": "address",
          "name": "owner",
          "type": "address"
        },
        {
          "internalType": "uint256",
          "name": "index",
          "type": "uint256"
        }
      ],
      "name": "tokenOfOwnerByIndex",
      "outputs": [
        {
          "internalType": "uint256",
          "name": "",
          "type": "uint256"
        }
      ],
      "stateMutability": "view",
      "type": "function"
    },
    {
      "inputs": [
        {
          "internalType": "uint256",
          "name": "tokenId",
          "type": "uint256"
        }
      ],
      "name": "tokenURI",
      "outputs": [
        {
          "internalType": "string",
          "name": "",
          "type": "string"
        }
      ],
      "stateMutability": "view",
      "type": "function"
    },
    {
      "inputs": [],
      "name": "totalSupply",
      "outputs": [
        {
          "internalType": "uint256",
          "name": "",
          "type": "uint256"
        }
      ],
      "stateMutability": "view",
      "type": "function"
    },
    {
      "inputs": [
        {
          "internalType": "address",
          "name": "from",
          "type": "address"
        },
        {
          "internalType": "address",
          "name": "to",
          "type": "address"
        },
        {
          "internalType": "uint256",
          "name": "tokenId",
          "type": "uint256"
        }
      ],
      "name": "transferFrom",
      "outputs": [],
      "stateMutability": "nonpayable",
      "type": "function"
    },
    {
      "inputs": [
        {
          "internalType": "address",
          "name": "to",
          "type": "address"
        },
        {
          "internalType": "uint256",
          "name": "tokenId",
          "type": "uint256"
        }
      ],
      "name": "mint",
      "outputs": [],
      "stateMutability": "nonpayable",
      "type": "function"
    }
  ],
  "bytecode": "0x60806040523480156200001157600080fd5b5060405162001df038038062001df0833981810160405260408110156200003757600080fd5b81019080805160405193929190846401000000008211156200005857600080fd5b9083019060208201858111156200006e57600080fd5b82516401000000008111828201881017156200008957600080fd5b82525081516020918201929091019080838360005b83811015620000b85781810151838201526020016200009e565b50505050905090810190601f168015620000e65780820380516001836020036101000a031916815260200191505b50604052602001805160405193929190846401000000008211156200010a57600080fd5b9083019060208201858111156200012057600080fd5b82516401000000008111828201881017156200013b57600080fd5b82525081516020918201929091019080838360005b838110156200016a57818101518382015260200162000150565b50505050905090810190601f168015620001985780820380516001836020036101000a031916815260200191505b5060405250839150829050620001be6301ffc9a760e01b6001600160e01b036200024516565b8151620001d3906006906020850190620002ca565b508051620001e9906007906020840190620002ca565b50620002056380ac58cd60e01b6001600160e01b036200024516565b62000220635b5e139f60e01b6001600160e01b036200024516565b6200023b63780e9d6360e01b6001600160e01b036200024516565b505050506200036f565b6001600160e01b03198082161415620002a5576040805162461bcd60e51b815260206004820152601c60248201527f4552433136353a20696e76616c696420696e7465726661636520696400000000604482015290519081900360640190fd5b6001600160e01b0319166000908152602081905260409020805460ff19166001179055565b828054600181600116156101000203166002900490600052602060002090601f016020900481019282601f106200030d57805160ff19168380011785556200033d565b828001600101855582156200033d579182015b828111156200033d57825182559160200191906001019062000320565b506200034b9291506200034f565b5090565b6200036c91905b808211156200034b576000815560010162000356565b90565b611a71806200037f6000396000f3fe608060405234801561001057600080fd5b50600436106101215760003560e01c806342966c68116100ad57806395d89b411161007157806395d89b41146103a8578063a22cb465146103b0578063b88d4fde146103de578063c87b56dd146104a4578063e985e9c5146104c157610121565b806342966c68146103235780634f6ccce7146103405780636352211e1461035d5780636c0360eb1461037a57806370a082311461038257610121565b806318160ddd116100f457806318160ddd1461024557806323b872dd1461025f5780632f745c591461029557806340c10f19146102c157806342842e0e146102ed57610121565b806301ffc9a71461012657806306fdde0314610161578063081812fc146101de578063095ea7b314610217575b600080fd5b61014d6004803603602081101561013c57600080fd5b50356001600160e01b0319166104ef565b604080519115158252519081900360200190f35b61016961050e565b6040805160208082528351818301528351919283929083019185019080838360005b838110156101a357818101518382015260200161018b565b50505050905090810190601f1680156101d05780820380516001836020036101000a031916815260200191505b509250505060405180910390f35b6101fb600480360360208110156101f457600080fd5b50356105a5565b604080516001600160a01b039092168252519081900360200190f35b6102436004803603604081101561022d57600080fd5b506001600160a01b038135169060200135610607565b005b61024d6106e2565b60408051918252519081900360200190f35b6102436004803603606081101561027557600080fd5b506001600160a01b038135811691602081013590911690604001356106f3565b61024d600480360360408110156102ab57600080fd5b506001600160a01b03813516906020013561074a565b610243600480360360408110156102d757600080fd5b506001600160a01b03813516906020013561077b565b6102436004803603606081101561030357600080fd5b506001600160a01b03813581169160208101359091169060400135610789565b6102436004803603602081101561033957600080fd5b50356107a4565b61024d6004803603602081101561035657600080fd5b50356107f6565b6101fb6004803603602081101561037357600080fd5b5035610812565b610169610840565b61024d6004803603602081101561039857600080fd5b50356001600160a01b03166108a1565b610169610909565b610243600480360360408110156103c657600080fd5b506001600160a01b038135169060200135151561096a565b610243600480360360808110156103f457600080fd5b6001600160a01b0382358116926020810135909116916040820135919081019060808101606082013564010000000081111561042f57600080fd5b82018360208201111561044157600080fd5b8035906020019184600183028401116401000000008311171561046357600080fd5b91908080601f016020809104026020016040519081016040528093929190818152602001838380828437600092019190915250929550610a6f945050505050565b610169600480360360208110156104ba57600080fd5b5035610acd565b61014d600480360360408110156104d757600080fd5b506001600160a01b0381358116916020013516610ad3565b6001600160e01b03191660009081526020819052604090205460ff1690565b60068054604080516020601f600260001961010060018816150201909516949094049384018190048102820181019092528281526060939092909183018282801561059a5780601f1061056f5761010080835404028352916020019161059a565b820191906000526020600020905b81548152906001019060200180831161057d57829003601f168201915b505050505090505b90565b60006105b082610b01565b6105eb5760405162461bcd60e51b815260040180806020018281038252602c815260200180611965602c913960400191505060405180910390fd5b506000908152600460205260409020546001600160a01b031690565b600061061282610812565b9050806001600160a01b0316836001600160a01b031614156106655760405162461bcd60e51b81526004018080602001828103825260218152602001806119ba6021913960400191505060405180910390fd5b806001600160a01b0316610677610b14565b6001600160a01b03161480610698575061069881610693610b14565b610ad3565b6106d35760405162461bcd60e51b81526004018080602001828103825260388152602001806118b86038913960400191505060405180910390fd5b6106dd8383610b18565b505050565b60006106ee6002610b86565b905090565b6107046106fe610b14565b82610b91565b61073f5760405162461bcd60e51b81526004018080602001828103825260318152602001806119db6031913960400191505060405180910390fd5b6106dd838383610c35565b6001600160a01b0382166000908152600160205260408120610772908363ffffffff610d9316565b90505b92915050565b6107858282610d9f565b5050565b6106dd83838360405180602001604052806000815250610a6f565b6107af6106fe610b14565b6107ea5760405162461bcd60e51b8152600401808060200182810382526030815260200180611a0c6030913960400191505060405180910390fd5b6107f381610ed9565b50565b60008061080a60028463ffffffff610fb216565b509392505050565b60006107758260405180606001604052806029815260200161191a602991396002919063ffffffff610fce16565b60098054604080516020601f600260001961010060018816150201909516949094049384018190048102820181019092528281526060939092909183018282801561059a5780601f1061056f5761010080835404028352916020019161059a565b60006001600160a01b0382166108e85760405162461bcd60e51b815260040180806020018281038252602a8152602001806118f0602a913960400191505060405180910390fd5b6001600160a01b038216600090815260016020526040902061077590610b86565b60078054604080516020601f600260001961010060018816150201909516949094049384018190048102820181019092528281526060939092909183018282801561059a5780601f1061056f5761010080835404028352916020019161059a565b610972610b14565b6001600160a01b0316826001600160a01b031614156109d8576040805162461bcd60e51b815260206004820152601960248201527f4552433732313a20617070726f766520746f2063616c6c657200000000000000604482015290519081900360640190fd5b80600560006109e5610b14565b6001600160a01b03908116825260208083019390935260409182016000908120918716808252919093529120805460ff191692151592909217909155610a29610b14565b60408051841515815290516001600160a01b0392909216917f17307eab39ab6107e8899845ad3d59bd9653f200f220920489ca2b5937696c319181900360200190a35050565b610a80610a7a610b14565b83610b91565b610abb5760405162461bcd60e51b81526004018080602001828103825260318152602001806119db6031913960400191505060405180910390fd5b610ac784848484610fe5565b50505050565b50606090565b6001600160a01b03918216600090815260056020908152604080832093909416825291909152205460ff1690565b600061077560028363ffffffff61103716565b3390565b600081815260046020526040902080546001600160a01b0319166001600160a01b0384169081179091558190610b4d82610812565b6001600160a01b03167f8c5be1e5ebec7d5bd14f71427d1e84f3dd0314c0f7b2291e5b200ac8c7c3b92560405160405180910390a45050565b600061077582611043565b6000610b9c82610b01565b610bd75760405162461bcd60e51b815260040180806020018281038252602c81526020018061188c602c913960400191505060405180910390fd5b6000610be283610812565b9050806001600160a01b0316846001600160a01b03161480610c1d5750836001600160a01b0316610c12846105a5565b6001600160a01b0316145b80610c2d5750610c2d8185610ad3565b949350505050565b826001600160a01b0316610c4882610812565b6001600160a01b031614610c8d5760405162461bcd60e51b81526004018080602001828103825260298152602001806119916029913960400191505060405180910390fd5b6001600160a01b038216610cd25760405162461bcd60e51b81526004018080602001828103825260248152602001806118686024913960400191505060405180910390fd5b610cdd8383836106dd565b610ce8600082610b18565b6001600160a01b0383166000908152600160205260409020610d10908263ffffffff61104716565b506001600160a01b0382166000908152600160205260409020610d39908263ffffffff61105316565b50610d4c6002828463ffffffff61105f16565b5080826001600160a01b0316846001600160a01b03167fddf252ad1be2c89b69c2b068fc378daa952ba7f163c4a11628f55a4df523b3ef60405160405180910390a4505050565b60006107728383611075565b6001600160a01b038216610dfa576040805162461bcd60e51b815260206004820181905260248201527f4552433732313a206d696e7420746f20746865207a65726f2061646472657373604482015290519081900360640190fd5b610e0381610b01565b15610e55576040805162461bcd60e51b815260206004820152601c60248201527f4552433732313a20746f6b656e20616c7265616479206d696e74656400000000604482015290519081900360640190fd5b610e61600083836106dd565b6001600160a01b0382166000908152600160205260409020610e89908263ffffffff61105316565b50610e9c6002828463ffffffff61105f16565b5060405181906001600160a01b038416906000907fddf252ad1be2c89b69c2b068fc378daa952ba7f163c4a11628f55a4df523b3ef908290a45050565b6000610ee482610812565b9050610ef2816000846106dd565b610efd600083610b18565b6000828152600860205260409020546002600019610100600184161502019091160415610f3b576000828152600860205260408120610f3b916117ba565b6001600160a01b0381166000908152600160205260409020610f63908363ffffffff61104716565b50610f7560028363ffffffff6110d916565b5060405182906000906001600160a01b038416907fddf252ad1be2c89b69c2b068fc378daa952ba7f163c4a11628f55a4df523b3ef908390a45050565b6000808080610fc186866110e5565b9097909650945050505050565b6000610fdb848484611160565b90505b9392505050565b610ff0848484610c35565b610ffc8484848461122a565b610ac75760405162461bcd60e51b81526004018080602001828103825260328152602001806118366032913960400191505060405180910390fd5b600061077283836113aa565b5490565b600061077283836113c2565b60006107728383611488565b6000610fdb84846001600160a01b0385166114d2565b815460009082106110b75760405162461bcd60e51b81526004018080602001828103825260228152602001806118146022913960400191505060405180910390fd5b8260000182815481106110c657fe5b9060005260206000200154905092915050565b60006107728383611569565b8154600090819083106111295760405162461bcd60e51b81526004018080602001828103825260228152602001806119436022913960400191505060405180910390fd5b600084600001848154811061113a57fe5b906000526020600020906002020190508060000154816001015492509250509250929050565b600082815260018401602052604081205482816111fb5760405162461bcd60e51b81526004018080602001828103825283818151815260200191508051906020019080838360005b838110156111c05781810151838201526020016111a8565b50505050905090810190601f1680156111ed5780820380516001836020036101000a031916815260200191505b509250505060405180910390fd5b5084600001600182038154811061120e57fe5b9060005260206000209060020201600101549150509392505050565b600061123e846001600160a01b031661163d565b61124a57506001610c2d565b6060611370630a85bd0160e11b61125f610b14565b88878760405160240180856001600160a01b03166001600160a01b03168152602001846001600160a01b03166001600160a01b0316815260200183815260200180602001828103825283818151815260200191508051906020019080838360005b838110156112d85781810151838201526020016112c0565b50505050905090810190601f1680156113055780820380516001836020036101000a031916815260200191505b5095505050505050604051602081830303815290604052906001600160e01b0319166020820180516001600160e01b038381831617835250505050604051806060016040528060328152602001611836603291396001600160a01b038816919063ffffffff61164316565b9050600081806020019051602081101561138957600080fd5b50516001600160e01b031916630a85bd0160e11b1492505050949350505050565b60009081526001919091016020526040902054151590565b6000818152600183016020526040812054801561147e57835460001980830191908101906000908790839081106113f557fe5b906000526020600020015490508087600001848154811061141257fe5b60009182526020808320909101929092558281526001898101909252604090209084019055865487908061144257fe5b60019003818190600052602060002001600090559055866001016000878152602001908152602001600020600090556001945050505050610775565b6000915050610775565b600061149483836113aa565b6114ca57508154600181810184556000848152602080822090930184905584548482528286019093526040902091909155610775565b506000610775565b600082815260018401602052604081205480611537575050604080518082018252838152602080820184815286546001818101895560008981528481209551600290930290950191825591519082015586548684528188019092529290912055610fde565b8285600001600183038154811061154a57fe5b9060005260206000209060020201600101819055506000915050610fde565b6000818152600183016020526040812054801561147e578354600019808301919081019060009087908390811061159c57fe5b90600052602060002090600202019050808760000184815481106115bc57fe5b6000918252602080832084546002909302019182556001938401549184019190915583548252898301905260409020908401905586548790806115fb57fe5b60008281526020808220600260001990940193840201828155600190810183905592909355888152898201909252604082209190915594506107759350505050565b3b151590565b6060610fdb848460008560606116588561163d565b6116a9576040805162461bcd60e51b815260206004820152601d60248201527f416464726573733a2063616c6c20746f206e6f6e2d636f6e7472616374000000604482015290519081900360640190fd5b60006060866001600160a01b031685876040518082805190602001908083835b602083106116e85780518252601f1990920191602091820191016116c9565b6001836020036101000a03801982511681845116808217855250505050505090500191505060006040518083038185875af1925050503d806000811461174a576040519150601f19603f3d011682016040523d82523d6000602084013e61174f565b606091505b50915091508115611763579150610c2d9050565b8051156117735780518082602001fd5b60405162461bcd60e51b81526020600482018181528651602484015286518793919283926044019190850190808383600083156111c05781810151838201526020016111a8565b50805460018160011615610100020316600290046000825580601f106117e057506107f3565b60009182526020918290206107f3926105a292601f01048101905b8082111561180f57600081556001016117fb565b509056fe456e756d657261626c655365743a20696e646578206f7574206f6620626f756e64734552433732313a207472616e7366657220746f206e6f6e20455243373231526563656976657220696d706c656d656e7465724552433732313a207472616e7366657220746f20746865207a65726f20616464726573734552433732313a206f70657261746f7220717565727920666f72206e6f6e6578697374656e7420746f6b656e4552433732313a20617070726f76652063616c6c6572206973206e6f74206f776e6572206e6f7220617070726f76656420666f7220616c6c4552433732313a2062616c616e636520717565727920666f7220746865207a65726f20616464726573734552433732313a206f776e657220717565727920666f72206e6f6e6578697374656e7420746f6b656e456e756d657261626c654d61703a20696e646578206f7574206f6620626f756e64734552433732313a20617070726f76656420717565727920666f72206e6f6e6578697374656e7420746f6b656e4552433732313a207472616e73666572206f6620746f6b656e2074686174206973206e6f74206f776e4552433732313a20617070726f76616c20746f2063757272656e74206f776e65724552433732313a207472616e736665722063616c6c6572206973206e6f74206f776e6572206e6f7220617070726f7665644552433732314275726e61626c653a2063616c6c6572206973206e6f74206f776e6572206e6f7220617070726f766564a264697066735822122076d69c01e260b1a479485386782a42c193ef09dd14a9c6da1abc42272e5ceb7264736f6c63430006060033",
  "immutableReferences": {},
  "source": "// SPDX-License-Identifier: MIT\n\npragma solidity ^0.6.0;\n\nimport \"../token/ERC721/ERC721Burnable.sol\";\n\ncontract ERC721BurnableMock is ERC721Burnable {\n    constructor(string memory name, string memory symbol) public ERC721(name, symbol) { }\n\n    function mint(address to, uint256 tokenId) public {\n        _mint(to, tokenId);\n    }\n}\n",
  "sourcePath": "/home/aaa/SYNCToken/CBOND-CONTRACT/contracts/openzeppelin/mocks/ERC721BurnableMock.sol",
  "compiler": {
    "name": "solc",
    "version": "0.6.6+commit.6c089d02.Emscripten.clang"
  },
  "schemaVersion": "3.1.0",
  "updatedAt": "2020-10-08T19:13:25.008Z",
  "devdoc": {
    "methods": {
      "approve(address,uint256)": {
        "details": "See {IERC721-approve}."
      },
      "balanceOf(address)": {
        "details": "See {IERC721-balanceOf}."
      },
      "baseURI()": {
        "details": "Returns the base URI set via {_setBaseURI}. This will be automatically added as a prefix in {tokenURI} to each token's URI, or to the token ID if no specific URI is set for that token ID."
      },
      "burn(uint256)": {
        "details": "Burns `tokenId`. See {ERC721-_burn}.     * Requirements:     * - The caller must own `tokenId` or be an approved operator."
      },
      "getApproved(uint256)": {
        "details": "See {IERC721-getApproved}."
      },
      "isApprovedForAll(address,address)": {
        "details": "See {IERC721-isApprovedForAll}."
      },
      "name()": {
        "details": "See {IERC721Metadata-name}."
      },
      "ownerOf(uint256)": {
        "details": "See {IERC721-ownerOf}."
      },
      "safeTransferFrom(address,address,uint256)": {
        "details": "See {IERC721-safeTransferFrom}."
      },
      "safeTransferFrom(address,address,uint256,bytes)": {
        "details": "See {IERC721-safeTransferFrom}."
      },
      "setApprovalForAll(address,bool)": {
        "details": "See {IERC721-setApprovalForAll}."
      },
      "supportsInterface(bytes4)": {
        "details": "See {IERC165-supportsInterface}.     * Time complexity O(1), guaranteed to always use less than 30 000 gas."
      },
      "symbol()": {
        "details": "See {IERC721Metadata-symbol}."
      },
      "tokenByIndex(uint256)": {
        "details": "See {IERC721Enumerable-tokenByIndex}."
      },
      "tokenOfOwnerByIndex(address,uint256)": {
        "details": "See {IERC721Enumerable-tokenOfOwnerByIndex}."
      },
      "tokenURI(uint256)": {
        "details": "See {IERC721Metadata-tokenURI}."
      },
      "totalSupply()": {
        "details": "See {IERC721Enumerable-totalSupply}."
      },
      "transferFrom(address,address,uint256)": {
        "details": "See {IERC721-transferFrom}."
      }
    }
  },
  "userdoc": {
    "methods": {}
  }
}