{
  "contractName": "ERC721PausableMock",
  "abi": [
    {
      "inputs": [
        {
          "internalType": "string",
          "name": "name",
          "type": "string"
        },
        {
          "internalType": "string",
          "name": "symbol",
          "type": "string"
        }
      ],
      "stateMutability": "nonpayable",
      "type": "constructor"
    },
    {
      "anonymous": false,
      "inputs": [
        {
          "indexed": true,
          "internalType": "address",
          "name": "owner",
          "type": "address"
        },
        {
          "indexed": true,
          "internalType": "address",
          "name": "approved",
          "type": "address"
        },
        {
          "indexed": true,
          "internalType": "uint256",
          "name": "tokenId",
          "type": "uint256"
        }
      ],
      "name": "Approval",
      "type": "event"
    },
    {
      "anonymous": false,
      "inputs": [
        {
          "indexed": true,
          "internalType": "address",
          "name": "owner",
          "type": "address"
        },
        {
          "indexed": true,
          "internalType": "address",
          "name": "operator",
          "type": "address"
        },
        {
          "indexed": false,
          "internalType": "bool",
          "name": "approved",
          "type": "bool"
        }
      ],
      "name": "ApprovalForAll",
      "type": "event"
    },
    {
      "anonymous": false,
      "inputs": [
        {
          "indexed": false,
          "internalType": "address",
          "name": "account",
          "type": "address"
        }
      ],
      "name": "Paused",
      "type": "event"
    },
    {
      "anonymous": false,
      "inputs": [
        {
          "indexed": true,
          "internalType": "address",
          "name": "from",
          "type": "address"
        },
        {
          "indexed": true,
          "internalType": "address",
          "name": "to",
          "type": "address"
        },
        {
          "indexed": true,
          "internalType": "uint256",
          "name": "tokenId",
          "type": "uint256"
        }
      ],
      "name": "Transfer",
      "type": "event"
    },
    {
      "anonymous": false,
      "inputs": [
        {
          "indexed": false,
          "internalType": "address",
          "name": "account",
          "type": "address"
        }
      ],
      "name": "Unpaused",
      "type": "event"
    },
    {
      "inputs": [
        {
          "internalType": "address",
          "name": "to",
          "type": "address"
        },
        {
          "internalType": "uint256",
          "name": "tokenId",
          "type": "uint256"
        }
      ],
      "name": "approve",
      "outputs": [],
      "stateMutability": "nonpayable",
      "type": "function"
    },
    {
      "inputs": [
        {
          "internalType": "address",
          "name": "owner",
          "type": "address"
        }
      ],
      "name": "balanceOf",
      "outputs": [
        {
          "internalType": "uint256",
          "name": "",
          "type": "uint256"
        }
      ],
      "stateMutability": "view",
      "type": "function"
    },
    {
      "inputs": [],
      "name": "baseURI",
      "outputs": [
        {
          "internalType": "string",
          "name": "",
          "type": "string"
        }
      ],
      "stateMutability": "view",
      "type": "function"
    },
    {
      "inputs": [
        {
          "internalType": "uint256",
          "name": "tokenId",
          "type": "uint256"
        }
      ],
      "name": "getApproved",
      "outputs": [
        {
          "internalType": "address",
          "name": "",
          "type": "address"
        }
      ],
      "stateMutability": "view",
      "type": "function"
    },
    {
      "inputs": [
        {
          "internalType": "address",
          "name": "owner",
          "type": "address"
        },
        {
          "internalType": "address",
          "name": "operator",
          "type": "address"
        }
      ],
      "name": "isApprovedForAll",
      "outputs": [
        {
          "internalType": "bool",
          "name": "",
          "type": "bool"
        }
      ],
      "stateMutability": "view",
      "type": "function"
    },
    {
      "inputs": [],
      "name": "name",
      "outputs": [
        {
          "internalType": "string",
          "name": "",
          "type": "string"
        }
      ],
      "stateMutability": "view",
      "type": "function"
    },
    {
      "inputs": [
        {
          "internalType": "uint256",
          "name": "tokenId",
          "type": "uint256"
        }
      ],
      "name": "ownerOf",
      "outputs": [
        {
          "internalType": "address",
          "name": "",
          "type": "address"
        }
      ],
      "stateMutability": "view",
      "type": "function"
    },
    {
      "inputs": [],
      "name": "paused",
      "outputs": [
        {
          "internalType": "bool",
          "name": "",
          "type": "bool"
        }
      ],
      "stateMutability": "view",
      "type": "function"
    },
    {
      "inputs": [
        {
          "internalType": "address",
          "name": "from",
          "type": "address"
        },
        {
          "internalType": "address",
          "name": "to",
          "type": "address"
        },
        {
          "internalType": "uint256",
          "name": "tokenId",
          "type": "uint256"
        }
      ],
      "name": "safeTransferFrom",
      "outputs": [],
      "stateMutability": "nonpayable",
      "type": "function"
    },
    {
      "inputs": [
        {
          "internalType": "address",
          "name": "from",
          "type": "address"
        },
        {
          "internalType": "address",
          "name": "to",
          "type": "address"
        },
        {
          "internalType": "uint256",
          "name": "tokenId",
          "type": "uint256"
        },
        {
          "internalType": "bytes",
          "name": "_data",
          "type": "bytes"
        }
      ],
      "name": "safeTransferFrom",
      "outputs": [],
      "stateMutability": "nonpayable",
      "type": "function"
    },
    {
      "inputs": [
        {
          "internalType": "address",
          "name": "operator",
          "type": "address"
        },
        {
          "internalType": "bool",
          "name": "approved",
          "type": "bool"
        }
      ],
      "name": "setApprovalForAll",
      "outputs": [],
      "stateMutability": "nonpayable",
      "type": "function"
    },
    {
      "inputs": [
        {
          "internalType": "bytes4",
          "name": "interfaceId",
          "type": "bytes4"
        }
      ],
      "name": "supportsInterface",
      "outputs": [
        {
          "internalType": "bool",
          "name": "",
          "type": "bool"
        }
      ],
      "stateMutability": "view",
      "type": "function"
    },
    {
      "inputs": [],
      "name": "symbol",
      "outputs": [
        {
          "internalType": "string",
          "name": "",
          "type": "string"
        }
      ],
      "stateMutability": "view",
      "type": "function"
    },
    {
      "inputs": [
        {
          "internalType": "uint256",
          "name": "index",
          "type": "uint256"
        }
      ],
      "name": "tokenByIndex",
      "outputs": [
        {
          "internalType": "uint256",
          "name": "",
          "type": "uint256"
        }
      ],
      "stateMutability": "view",
      "type": "function"
    },
    {
      "inputs": [
        {
          "internalType": "address",
          "name": "owner",
          "type": "address"
        },
        {
          "internalType": "uint256",
          "name": "index",
          "type": "uint256"
        }
      ],
      "name": "tokenOfOwnerByIndex",
      "outputs": [
        {
          "internalType": "uint256",
          "name": "",
          "type": "uint256"
        }
      ],
      "stateMutability": "view",
      "type": "function"
    },
    {
      "inputs": [
        {
          "internalType": "uint256",
          "name": "tokenId",
          "type": "uint256"
        }
      ],
      "name": "tokenURI",
      "outputs": [
        {
          "internalType": "string",
          "name": "",
          "type": "string"
        }
      ],
      "stateMutability": "view",
      "type": "function"
    },
    {
      "inputs": [],
      "name": "totalSupply",
      "outputs": [
        {
          "internalType": "uint256",
          "name": "",
          "type": "uint256"
        }
      ],
      "stateMutability": "view",
      "type": "function"
    },
    {
      "inputs": [
        {
          "internalType": "address",
          "name": "from",
          "type": "address"
        },
        {
          "internalType": "address",
          "name": "to",
          "type": "address"
        },
        {
          "internalType": "uint256",
          "name": "tokenId",
          "type": "uint256"
        }
      ],
      "name": "transferFrom",
      "outputs": [],
      "stateMutability": "nonpayable",
      "type": "function"
    },
    {
      "inputs": [
        {
          "internalType": "address",
          "name": "to",
          "type": "address"
        },
        {
          "internalType": "uint256",
          "name": "tokenId",
          "type": "uint256"
        }
      ],
      "name": "mint",
      "outputs": [],
      "stateMutability": "nonpayable",
      "type": "function"
    },
    {
      "inputs": [
        {
          "internalType": "uint256",
          "name": "tokenId",
          "type": "uint256"
        }
      ],
      "name": "burn",
      "outputs": [],
      "stateMutability": "nonpayable",
      "type": "function"
    },
    {
      "inputs": [
        {
          "internalType": "uint256",
          "name": "tokenId",
          "type": "uint256"
        }
      ],
      "name": "exists",
      "outputs": [
        {
          "internalType": "bool",
          "name": "",
          "type": "bool"
        }
      ],
      "stateMutability": "view",
      "type": "function"
    },
    {
      "inputs": [],
      "name": "pause",
      "outputs": [],
      "stateMutability": "nonpayable",
      "type": "function"
    },
    {
      "inputs": [],
      "name": "unpause",
      "outputs": [],
      "stateMutability": "nonpayable",
      "type": "function"
    }
  ],
  "bytecode": "0x60806040523480156200001157600080fd5b5060405162001fa538038062001fa5833981810160405260408110156200003757600080fd5b81019080805160405193929190846401000000008211156200005857600080fd5b9083019060208201858111156200006e57600080fd5b82516401000000008111828201881017156200008957600080fd5b82525081516020918201929091019080838360005b83811015620000b85781810151838201526020016200009e565b50505050905090810190601f168015620000e65780820380516001836020036101000a031916815260200191505b50604052602001805160405193929190846401000000008211156200010a57600080fd5b9083019060208201858111156200012057600080fd5b82516401000000008111828201881017156200013b57600080fd5b82525081516020918201929091019080838360005b838110156200016a57818101518382015260200162000150565b50505050905090810190601f168015620001985780820380516001836020036101000a031916815260200191505b5060405250839150829050620001be6301ffc9a760e01b6001600160e01b036200025016565b8151620001d3906006906020850190620002d5565b508051620001e9906007906020840190620002d5565b50620002056380ac58cd60e01b6001600160e01b036200025016565b62000220635b5e139f60e01b6001600160e01b036200025016565b6200023b63780e9d6360e01b6001600160e01b036200025016565b5050600a805460ff19169055506200037a9050565b6001600160e01b03198082161415620002b0576040805162461bcd60e51b815260206004820152601c60248201527f4552433136353a20696e76616c696420696e7465726661636520696400000000604482015290519081900360640190fd5b6001600160e01b0319166000908152602081905260409020805460ff19166001179055565b828054600181600116156101000203166002900490600052602060002090601f016020900481019282601f106200031857805160ff191683800117855562000348565b8280016001018555821562000348579182015b82811115620003485782518255916020019190600101906200032b565b50620003569291506200035a565b5090565b6200037791905b8082111562000356576000815560010162000361565b90565b611c1b806200038a6000396000f3fe608060405234801561001057600080fd5b506004361061014d5760003560e01c80634f558e79116100c35780638456cb591161007c5780638456cb591461040157806395d89b4114610409578063a22cb46514610411578063b88d4fde1461043f578063c87b56dd14610505578063e985e9c5146105225761014d565b80634f558e79146103745780634f6ccce7146103915780635c975abb146103ae5780636352211e146103b65780636c0360eb146103d357806370a08231146103db5761014d565b806323b872dd1161011557806323b872dd1461028b5780632f745c59146102c15780633f4ba83a146102ed57806340c10f19146102f557806342842e0e1461032157806342966c68146103575761014d565b806301ffc9a71461015257806306fdde031461018d578063081812fc1461020a578063095ea7b31461024357806318160ddd14610271575b600080fd5b6101796004803603602081101561016857600080fd5b50356001600160e01b031916610550565b604080519115158252519081900360200190f35b61019561056f565b6040805160208082528351818301528351919283929083019185019080838360005b838110156101cf5781810151838201526020016101b7565b50505050905090810190601f1680156101fc5780820380516001836020036101000a031916815260200191505b509250505060405180910390f35b6102276004803603602081101561022057600080fd5b5035610606565b604080516001600160a01b039092168252519081900360200190f35b61026f6004803603604081101561025957600080fd5b506001600160a01b038135169060200135610668565b005b610279610743565b60408051918252519081900360200190f35b61026f600480360360608110156102a157600080fd5b506001600160a01b03813581169160208101359091169060400135610754565b610279600480360360408110156102d757600080fd5b506001600160a01b0381351690602001356107ab565b61026f6107dc565b61026f6004803603604081101561030b57600080fd5b506001600160a01b0381351690602001356107e6565b61026f6004803603606081101561033757600080fd5b506001600160a01b038135811691602081013590911690604001356107f4565b61026f6004803603602081101561036d57600080fd5b503561080f565b6101796004803603602081101561038a57600080fd5b503561081b565b610279600480360360208110156103a757600080fd5b5035610826565b610179610842565b610227600480360360208110156103cc57600080fd5b503561084b565b610195610879565b610279600480360360208110156103f157600080fd5b50356001600160a01b03166108da565b61026f610942565b61019561094a565b61026f6004803603604081101561042757600080fd5b506001600160a01b03813516906020013515156109ab565b61026f6004803603608081101561045557600080fd5b6001600160a01b0382358116926020810135909116916040820135919081019060808101606082013564010000000081111561049057600080fd5b8201836020820111156104a257600080fd5b803590602001918460018302840111640100000000831117156104c457600080fd5b91908080601f016020809104026020016040519081016040528093929190818152602001838380828437600092019190915250929550610ab0945050505050565b6101956004803603602081101561051b57600080fd5b5035610b0e565b6101796004803603604081101561053857600080fd5b506001600160a01b0381358116916020013516610b14565b6001600160e01b03191660009081526020819052604090205460ff1690565b60068054604080516020601f60026000196101006001881615020190951694909404938401819004810282018101909252828152606093909290918301828280156105fb5780601f106105d0576101008083540402835291602001916105fb565b820191906000526020600020905b8154815290600101906020018083116105de57829003601f168201915b505050505090505b90565b600061061182610b42565b61064c5760405162461bcd60e51b815260040180806020018281038252602c815260200180611b3f602c913960400191505060405180910390fd5b506000908152600460205260409020546001600160a01b031690565b60006106738261084b565b9050806001600160a01b0316836001600160a01b031614156106c65760405162461bcd60e51b8152600401808060200182810382526021815260200180611b946021913960400191505060405180910390fd5b806001600160a01b03166106d8610b55565b6001600160a01b031614806106f957506106f9816106f4610b55565b610b14565b6107345760405162461bcd60e51b8152600401808060200182810382526038815260200180611a926038913960400191505060405180910390fd5b61073e8383610b59565b505050565b600061074f6002610bc7565b905090565b61076561075f610b55565b82610bd2565b6107a05760405162461bcd60e51b8152600401808060200182810382526031815260200180611bb56031913960400191505060405180910390fd5b61073e838383610c76565b6001600160a01b03821660009081526001602052604081206107d3908363ffffffff610dd416565b90505b92915050565b6107e4610de0565b565b6107f08282610e7e565b5050565b61073e83838360405180602001604052806000815250610ab0565b61081881610fb8565b50565b60006107d682610b42565b60008061083a60028463ffffffff61109116565b509392505050565b600a5460ff1690565b60006107d682604051806060016040528060298152602001611af4602991396002919063ffffffff6110ad16565b60098054604080516020601f60026000196101006001881615020190951694909404938401819004810282018101909252828152606093909290918301828280156105fb5780601f106105d0576101008083540402835291602001916105fb565b60006001600160a01b0382166109215760405162461bcd60e51b815260040180806020018281038252602a815260200180611aca602a913960400191505060405180910390fd5b6001600160a01b03821660009081526001602052604090206107d690610bc7565b6107e46110c4565b60078054604080516020601f60026000196101006001881615020190951694909404938401819004810282018101909252828152606093909290918301828280156105fb5780601f106105d0576101008083540402835291602001916105fb565b6109b3610b55565b6001600160a01b0316826001600160a01b03161415610a19576040805162461bcd60e51b815260206004820152601960248201527f4552433732313a20617070726f766520746f2063616c6c657200000000000000604482015290519081900360640190fd5b8060056000610a26610b55565b6001600160a01b03908116825260208083019390935260409182016000908120918716808252919093529120805460ff191692151592909217909155610a6a610b55565b60408051841515815290516001600160a01b0392909216917f17307eab39ab6107e8899845ad3d59bd9653f200f220920489ca2b5937696c319181900360200190a35050565b610ac1610abb610b55565b83610bd2565b610afc5760405162461bcd60e51b8152600401808060200182810382526031815260200180611bb56031913960400191505060405180910390fd5b610b0884848484611145565b50505050565b50606090565b6001600160a01b03918216600090815260056020908152604080832093909416825291909152205460ff1690565b60006107d660028363ffffffff61119716565b3390565b600081815260046020526040902080546001600160a01b0319166001600160a01b0384169081179091558190610b8e8261084b565b6001600160a01b03167f8c5be1e5ebec7d5bd14f71427d1e84f3dd0314c0f7b2291e5b200ac8c7c3b92560405160405180910390a45050565b60006107d6826111a3565b6000610bdd82610b42565b610c185760405162461bcd60e51b815260040180806020018281038252602c815260200180611a66602c913960400191505060405180910390fd5b6000610c238361084b565b9050806001600160a01b0316846001600160a01b03161480610c5e5750836001600160a01b0316610c5384610606565b6001600160a01b0316145b80610c6e5750610c6e8185610b14565b949350505050565b826001600160a01b0316610c898261084b565b6001600160a01b031614610cce5760405162461bcd60e51b8152600401808060200182810382526029815260200180611b6b6029913960400191505060405180910390fd5b6001600160a01b038216610d135760405162461bcd60e51b8152600401808060200182810382526024815260200180611a426024913960400191505060405180910390fd5b610d1e8383836111a7565b610d29600082610b59565b6001600160a01b0383166000908152600160205260409020610d51908263ffffffff6111f616565b506001600160a01b0382166000908152600160205260409020610d7a908263ffffffff61120216565b50610d8d6002828463ffffffff61120e16565b5080826001600160a01b0316846001600160a01b03167fddf252ad1be2c89b69c2b068fc378daa952ba7f163c4a11628f55a4df523b3ef60405160405180910390a4505050565b60006107d38383611224565b600a5460ff16610e2e576040805162461bcd60e51b815260206004820152601460248201527314185d5cd8589b194e881b9bdd081c185d5cd95960621b604482015290519081900360640190fd5b600a805460ff191690557f5db9ee0a495bf2e6ff9c91a7834c1ba4fdd244a5e8aa4e537bd38aeae4b073aa610e61610b55565b604080516001600160a01b039092168252519081900360200190a1565b6001600160a01b038216610ed9576040805162461bcd60e51b815260206004820181905260248201527f4552433732313a206d696e7420746f20746865207a65726f2061646472657373604482015290519081900360640190fd5b610ee281610b42565b15610f34576040805162461bcd60e51b815260206004820152601c60248201527f4552433732313a20746f6b656e20616c7265616479206d696e74656400000000604482015290519081900360640190fd5b610f40600083836111a7565b6001600160a01b0382166000908152600160205260409020610f68908263ffffffff61120216565b50610f7b6002828463ffffffff61120e16565b5060405181906001600160a01b038416906000907fddf252ad1be2c89b69c2b068fc378daa952ba7f163c4a11628f55a4df523b3ef908290a45050565b6000610fc38261084b565b9050610fd1816000846111a7565b610fdc600083610b59565b600082815260086020526040902054600260001961010060018416150201909116041561101a57600082815260086020526040812061101a91611969565b6001600160a01b0381166000908152600160205260409020611042908363ffffffff6111f616565b5061105460028363ffffffff61128816565b5060405182906000906001600160a01b038416907fddf252ad1be2c89b69c2b068fc378daa952ba7f163c4a11628f55a4df523b3ef908390a45050565b60008080806110a08686611294565b9097909650945050505050565b60006110ba84848461130f565b90505b9392505050565b600a5460ff161561110f576040805162461bcd60e51b815260206004820152601060248201526f14185d5cd8589b194e881c185d5cd95960821b604482015290519081900360640190fd5b600a805460ff191660011790557f62e78cea01bee320cd4e420270b5ea74000d11b0c9f74754ebdbfc544b05a258610e61610b55565b611150848484610c76565b61115c848484846113d9565b610b085760405162461bcd60e51b8152600401808060200182810382526032815260200180611a106032913960400191505060405180910390fd5b60006107d38383611559565b5490565b6111b283838361073e565b6111ba610842565b1561073e5760405162461bcd60e51b815260040180806020018281038252602b8152602001806119e5602b913960400191505060405180910390fd5b60006107d38383611571565b60006107d38383611637565b60006110ba84846001600160a01b038516611681565b815460009082106112665760405162461bcd60e51b81526004018080602001828103825260228152602001806119c36022913960400191505060405180910390fd5b82600001828154811061127557fe5b9060005260206000200154905092915050565b60006107d38383611718565b8154600090819083106112d85760405162461bcd60e51b8152600401808060200182810382526022815260200180611b1d6022913960400191505060405180910390fd5b60008460000184815481106112e957fe5b906000526020600020906002020190508060000154816001015492509250509250929050565b600082815260018401602052604081205482816113aa5760405162461bcd60e51b81526004018080602001828103825283818151815260200191508051906020019080838360005b8381101561136f578181015183820152602001611357565b50505050905090810190601f16801561139c5780820380516001836020036101000a031916815260200191505b509250505060405180910390fd5b508460000160018203815481106113bd57fe5b9060005260206000209060020201600101549150509392505050565b60006113ed846001600160a01b03166117ec565b6113f957506001610c6e565b606061151f630a85bd0160e11b61140e610b55565b88878760405160240180856001600160a01b03166001600160a01b03168152602001846001600160a01b03166001600160a01b0316815260200183815260200180602001828103825283818151815260200191508051906020019080838360005b8381101561148757818101518382015260200161146f565b50505050905090810190601f1680156114b45780820380516001836020036101000a031916815260200191505b5095505050505050604051602081830303815290604052906001600160e01b0319166020820180516001600160e01b038381831617835250505050604051806060016040528060328152602001611a10603291396001600160a01b038816919063ffffffff6117f216565b9050600081806020019051602081101561153857600080fd5b50516001600160e01b031916630a85bd0160e11b1492505050949350505050565b60009081526001919091016020526040902054151590565b6000818152600183016020526040812054801561162d57835460001980830191908101906000908790839081106115a457fe5b90600052602060002001549050808760000184815481106115c157fe5b6000918252602080832090910192909255828152600189810190925260409020908401905586548790806115f157fe5b600190038181906000526020600020016000905590558660010160008781526020019081526020016000206000905560019450505050506107d6565b60009150506107d6565b60006116438383611559565b611679575081546001818101845560008481526020808220909301849055845484825282860190935260409020919091556107d6565b5060006107d6565b6000828152600184016020526040812054806116e65750506040805180820182528381526020808201848152865460018181018955600089815284812095516002909302909501918255915190820155865486845281880190925292909120556110bd565b828560000160018303815481106116f957fe5b90600052602060002090600202016001018190555060009150506110bd565b6000818152600183016020526040812054801561162d578354600019808301919081019060009087908390811061174b57fe5b906000526020600020906002020190508087600001848154811061176b57fe5b6000918252602080832084546002909302019182556001938401549184019190915583548252898301905260409020908401905586548790806117aa57fe5b60008281526020808220600260001990940193840201828155600190810183905592909355888152898201909252604082209190915594506107d69350505050565b3b151590565b60606110ba84846000856060611807856117ec565b611858576040805162461bcd60e51b815260206004820152601d60248201527f416464726573733a2063616c6c20746f206e6f6e2d636f6e7472616374000000604482015290519081900360640190fd5b60006060866001600160a01b031685876040518082805190602001908083835b602083106118975780518252601f199092019160209182019101611878565b6001836020036101000a03801982511681845116808217855250505050505090500191505060006040518083038185875af1925050503d80600081146118f9576040519150601f19603f3d011682016040523d82523d6000602084013e6118fe565b606091505b50915091508115611912579150610c6e9050565b8051156119225780518082602001fd5b60405162461bcd60e51b815260206004820181815286516024840152865187939192839260440191908501908083836000831561136f578181015183820152602001611357565b50805460018160011615610100020316600290046000825580601f1061198f5750610818565b60009182526020918290206108189261060392601f01048101905b808211156119be57600081556001016119aa565b509056fe456e756d657261626c655365743a20696e646578206f7574206f6620626f756e64734552433732315061757361626c653a20746f6b656e207472616e73666572207768696c65207061757365644552433732313a207472616e7366657220746f206e6f6e20455243373231526563656976657220696d706c656d656e7465724552433732313a207472616e7366657220746f20746865207a65726f20616464726573734552433732313a206f70657261746f7220717565727920666f72206e6f6e6578697374656e7420746f6b656e4552433732313a20617070726f76652063616c6c6572206973206e6f74206f776e6572206e6f7220617070726f76656420666f7220616c6c4552433732313a2062616c616e636520717565727920666f7220746865207a65726f20616464726573734552433732313a206f776e657220717565727920666f72206e6f6e6578697374656e7420746f6b656e456e756d657261626c654d61703a20696e646578206f7574206f6620626f756e64734552433732313a20617070726f76656420717565727920666f72206e6f6e6578697374656e7420746f6b656e4552433732313a207472616e73666572206f6620746f6b656e2074686174206973206e6f74206f776e4552433732313a20617070726f76616c20746f2063757272656e74206f776e65724552433732313a207472616e736665722063616c6c6572206973206e6f74206f776e6572206e6f7220617070726f766564a264697066735822122032b18390801c0d919e67a54cf27cf5fca4b32eb5cbac56782533c253ef360f7264736f6c63430006060033",
  "immutableReferences": {},
  "source": "// SPDX-License-Identifier: MIT\n\npragma solidity ^0.6.0;\n\nimport \"../token/ERC721/ERC721Pausable.sol\";\n\n/**\n * @title ERC721PausableMock\n * This mock just provides a public mint, burn and exists functions for testing purposes\n */\ncontract ERC721PausableMock is ERC721Pausable {\n    constructor (string memory name, string memory symbol) public ERC721(name, symbol) { }\n\n    function mint(address to, uint256 tokenId) public {\n        super._mint(to, tokenId);\n    }\n\n    function burn(uint256 tokenId) public {\n        super._burn(tokenId);\n    }\n\n    function exists(uint256 tokenId) public view returns (bool) {\n        return super._exists(tokenId);\n    }\n\n    function pause() external {\n        _pause();\n    }\n\n    function unpause() external {\n        _unpause();\n    }\n}\n",
  "sourcePath": "/home/aaa/SYNCToken/CBOND-CONTRACT/contracts/openzeppelin/mocks/ERC721PausableMock.sol",
  "compiler": {
    "name": "solc",
    "version": "0.6.6+commit.6c089d02.Emscripten.clang"
  },
  "schemaVersion": "3.1.0",
  "updatedAt": "2020-10-08T19:13:25.015Z",
  "devdoc": {
    "methods": {
      "approve(address,uint256)": {
        "details": "See {IERC721-approve}."
      },
      "balanceOf(address)": {
        "details": "See {IERC721-balanceOf}."
      },
      "baseURI()": {
        "details": "Returns the base URI set via {_setBaseURI}. This will be automatically added as a prefix in {tokenURI} to each token's URI, or to the token ID if no specific URI is set for that token ID."
      },
      "getApproved(uint256)": {
        "details": "See {IERC721-getApproved}."
      },
      "isApprovedForAll(address,address)": {
        "details": "See {IERC721-isApprovedForAll}."
      },
      "name()": {
        "details": "See {IERC721Metadata-name}."
      },
      "ownerOf(uint256)": {
        "details": "See {IERC721-ownerOf}."
      },
      "paused()": {
        "details": "Returns true if the contract is paused, and false otherwise."
      },
      "safeTransferFrom(address,address,uint256)": {
        "details": "See {IERC721-safeTransferFrom}."
      },
      "safeTransferFrom(address,address,uint256,bytes)": {
        "details": "See {IERC721-safeTransferFrom}."
      },
      "setApprovalForAll(address,bool)": {
        "details": "See {IERC721-setApprovalForAll}."
      },
      "supportsInterface(bytes4)": {
        "details": "See {IERC165-supportsInterface}.     * Time complexity O(1), guaranteed to always use less than 30 000 gas."
      },
      "symbol()": {
        "details": "See {IERC721Metadata-symbol}."
      },
      "tokenByIndex(uint256)": {
        "details": "See {IERC721Enumerable-tokenByIndex}."
      },
      "tokenOfOwnerByIndex(address,uint256)": {
        "details": "See {IERC721Enumerable-tokenOfOwnerByIndex}."
      },
      "tokenURI(uint256)": {
        "details": "See {IERC721Metadata-tokenURI}."
      },
      "totalSupply()": {
        "details": "See {IERC721Enumerable-totalSupply}."
      },
      "transferFrom(address,address,uint256)": {
        "details": "See {IERC721-transferFrom}."
      }
    },
    "title": "ERC721PausableMock This mock just provides a public mint, burn and exists functions for testing purposes"
  },
  "userdoc": {
    "methods": {}
  }
}