{
  "contractName": "GSNRecipientSignatureMock",
  "abi": [
    {
      "inputs": [
        {
          "internalType": "address",
          "name": "trustedSigner",
          "type": "address"
        }
      ],
      "stateMutability": "nonpayable",
      "type": "constructor"
    },
    {
      "anonymous": false,
      "inputs": [],
      "name": "MockFunctionCalled",
      "type": "event"
    },
    {
      "anonymous": false,
      "inputs": [
        {
          "indexed": true,
          "internalType": "address",
          "name": "oldRelayHub",
          "type": "address"
        },
        {
          "indexed": true,
          "internalType": "address",
          "name": "newRelayHub",
          "type": "address"
        }
      ],
      "name": "RelayHubChanged",
      "type": "event"
    },
    {
      "inputs": [
        {
          "internalType": "address",
          "name": "relay",
          "type": "address"
        },
        {
          "internalType": "address",
          "name": "from",
          "type": "address"
        },
        {
          "internalType": "bytes",
          "name": "encodedFunction",
          "type": "bytes"
        },
        {
          "internalType": "uint256",
          "name": "transactionFee",
          "type": "uint256"
        },
        {
          "internalType": "uint256",
          "name": "gasPrice",
          "type": "uint256"
        },
        {
          "internalType": "uint256",
          "name": "gasLimit",
          "type": "uint256"
        },
        {
          "internalType": "uint256",
          "name": "nonce",
          "type": "uint256"
        },
        {
          "internalType": "bytes",
          "name": "approvalData",
          "type": "bytes"
        },
        {
          "internalType": "uint256",
          "name": "",
          "type": "uint256"
        }
      ],
      "name": "acceptRelayedCall",
      "outputs": [
        {
          "internalType": "uint256",
          "name": "",
          "type": "uint256"
        },
        {
          "internalType": "bytes",
          "name": "",
          "type": "bytes"
        }
      ],
      "stateMutability": "view",
      "type": "function"
    },
    {
      "inputs": [],
      "name": "getHubAddr",
      "outputs": [
        {
          "internalType": "address",
          "name": "",
          "type": "address"
        }
      ],
      "stateMutability": "view",
      "type": "function"
    },
    {
      "inputs": [
        {
          "internalType": "bytes",
          "name": "context",
          "type": "bytes"
        },
        {
          "internalType": "bool",
          "name": "success",
          "type": "bool"
        },
        {
          "internalType": "uint256",
          "name": "actualCharge",
          "type": "uint256"
        },
        {
          "internalType": "bytes32",
          "name": "preRetVal",
          "type": "bytes32"
        }
      ],
      "name": "postRelayedCall",
      "outputs": [],
      "stateMutability": "nonpayable",
      "type": "function"
    },
    {
      "inputs": [
        {
          "internalType": "bytes",
          "name": "context",
          "type": "bytes"
        }
      ],
      "name": "preRelayedCall",
      "outputs": [
        {
          "internalType": "bytes32",
          "name": "",
          "type": "bytes32"
        }
      ],
      "stateMutability": "nonpayable",
      "type": "function"
    },
    {
      "inputs": [],
      "name": "relayHubVersion",
      "outputs": [
        {
          "internalType": "string",
          "name": "",
          "type": "string"
        }
      ],
      "stateMutability": "view",
      "type": "function"
    },
    {
      "inputs": [],
      "name": "mockFunction",
      "outputs": [],
      "stateMutability": "nonpayable",
      "type": "function"
    }
  ],
  "bytecode": "0x6080604052600080546001600160a01b03191673d216153c06e857cd7f72665e0af1d7d82172f49417905534801561003657600080fd5b50604051610afb380380610afb8339818101604052602081101561005957600080fd5b5051806001600160a01b0381166100a15760405162461bcd60e51b8152600401808060200182810382526039815260200180610ac26039913960400191505060405180910390fd5b600180546001600160a01b0319166001600160a01b0392909216919091179055506109f1806100d16000396000f3fe608060405234801561001057600080fd5b50600436106100625760003560e01c80633e6fec041461006757806374e861d61461007157806380274db71461009557806383947ea01461014b578063ad61ccd514610327578063e06e0e22146103a4575b600080fd5b61006f610455565b005b610079610480565b604080516001600160a01b039092168252519081900360200190f35b610139600480360360208110156100ab57600080fd5b810190602081018135600160201b8111156100c557600080fd5b8201836020820111156100d757600080fd5b803590602001918460018302840111600160201b831117156100f857600080fd5b91908080601f01602080910402602001604051908101604052809392919081815260200183838082843760009201919091525092955061048f945050505050565b60408051918252519081900360200190f35b6102a8600480360361012081101561016257600080fd5b6001600160a01b038235811692602081013590911691810190606081016040820135600160201b81111561019557600080fd5b8201836020820111156101a757600080fd5b803590602001918460018302840111600160201b831117156101c857600080fd5b91908080601f016020809104026020016040519081016040528093929190818152602001838380828437600092019190915250929584359560208601359560408101359550606081013594509192509060a081019060800135600160201b81111561023257600080fd5b82018360208201111561024457600080fd5b803590602001918460018302840111600160201b8311171561026557600080fd5b91908080601f01602080910402602001604051908101604052809392919081815260200183838082843760009201919091525092955050913592506104f7915050565b6040518083815260200180602001828103825283818151815260200191508051906020019080838360005b838110156102eb5781810151838201526020016102d3565b50505050905090810190601f1680156103185780820380516001836020036101000a031916815260200191505b50935050505060405180910390f35b61032f610650565b6040805160208082528351818301528351919283929083019185019080838360005b83811015610369578181015183820152602001610351565b50505050905090810190601f1680156103965780820380516001836020036101000a031916815260200191505b509250505060405180910390f35b61006f600480360360808110156103ba57600080fd5b810190602081018135600160201b8111156103d457600080fd5b8201836020820111156103e657600080fd5b803590602001918460018302840111600160201b8311171561040757600080fd5b91908080601f0160208091040260200160405190810160405280939291908181526020018383808284376000920191909152509295505050508035151591506020810135906040013561066f565b6040517f52c66ed6ec9ca819cba26fe2b2650059270d8981b295af300187a964f54a8c2390600090a1565b6000546001600160a01b031690565b6000610499610480565b6001600160a01b0316336001600160a01b0316146104e85760405162461bcd60e51b81526004018080602001828103825260248152602001806109986024913960400191505060405180910390fd5b6104f1826106d4565b92915050565b60006060808b8b8b8b8b8b8b61050b610480565b30604051602001808a6001600160a01b03166001600160a01b031660601b8152601401896001600160a01b03166001600160a01b031660601b815260140188805190602001908083835b602083106105745780518252601f199092019160209182019101610555565b51815160209384036101000a6000190180199092169116179052920198895250878101969096525060408087019490945260608087019390935290821b6bffffffffffffffffffffffff199081166080870152911b1660948401528051808403608801815260a890930190526001548251918301919091209195506001600160a01b03169350610617925088915061060b906106da565b9063ffffffff61072b16565b6001600160a01b031614156106385761062e610912565b9250925050610642565b61062e6000610936565b995099975050505050505050565b6040805180820190915260058152640312e302e360dc1b602082015290565b610677610480565b6001600160a01b0316336001600160a01b0316146106c65760405162461bcd60e51b81526004018080602001828103825260248152602001806109986024913960400191505060405180910390fd5b6106ce848484845b50505050565b50600090565b604080517f19457468657265756d205369676e6564204d6573736167653a0a333200000000602080830191909152603c8083019490945282518083039094018452605c909101909152815191012090565b60008151604114610783576040805162461bcd60e51b815260206004820152601f60248201527f45434453413a20696e76616c6964207369676e6174757265206c656e67746800604482015290519081900360640190fd5b60208201516040830151606084015160001a7f7fffffffffffffffffffffffffffffff5d576e7357a4501ddfe92f46681b20a08211156107f45760405162461bcd60e51b81526004018080602001828103825260228152602001806109546022913960400191505060405180910390fd5b8060ff16601b1415801561080c57508060ff16601c14155b156108485760405162461bcd60e51b81526004018080602001828103825260228152602001806109766022913960400191505060405180910390fd5b60408051600080825260208083018085528a905260ff85168385015260608301879052608083018690529251909260019260a080820193601f1981019281900390910190855afa1580156108a0573d6000803e3d6000fd5b5050604051601f1901519150506001600160a01b038116610908576040805162461bcd60e51b815260206004820152601860248201527f45434453413a20696e76616c6964207369676e61747572650000000000000000604482015290519081900360640190fd5b9695505050505050565b6000606061092e6040518060200160405280600081525061094e565b915091509091565b604080516020810190915260008152600b9190910191565b60009156fe45434453413a20696e76616c6964207369676e6174757265202773272076616c756545434453413a20696e76616c6964207369676e6174757265202776272076616c756547534e526563697069656e743a2063616c6c6572206973206e6f742052656c6179487562a26469706673582212201b5ab685d07204a1c38378f7f258edc5b3e20c9ba85ff2466f5aea151a97ab9964736f6c6343000606003347534e526563697069656e745369676e61747572653a2074727573746564207369676e657220697320746865207a65726f2061646472657373",
  "immutableReferences": {},
  "source": "// SPDX-License-Identifier: MIT\n\npragma solidity ^0.6.0;\n\nimport \"../GSN/GSNRecipient.sol\";\nimport \"../GSN/GSNRecipientSignature.sol\";\n\ncontract GSNRecipientSignatureMock is GSNRecipient, GSNRecipientSignature {\n    constructor(address trustedSigner) public GSNRecipientSignature(trustedSigner) { }\n\n    event MockFunctionCalled();\n\n    function mockFunction() public {\n        emit MockFunctionCalled();\n    }\n}\n",
  "sourcePath": "/home/aaa/SYNCToken/CBOND-CONTRACT/contracts/openzeppelin/mocks/GSNRecipientSignatureMock.sol",
  "compiler": {
    "name": "solc",
    "version": "0.6.6+commit.6c089d02.Emscripten.clang"
  },
  "schemaVersion": "3.1.0",
  "updatedAt": "2020-10-08T19:13:25.041Z",
  "devdoc": {
    "methods": {
      "acceptRelayedCall(address,address,bytes,uint256,uint256,uint256,uint256,bytes,uint256)": {
        "details": "Ensures that only transactions with a trusted signature can be relayed through the GSN."
      },
      "getHubAddr()": {
        "details": "Returns the address of the {IRelayHub} contract for this recipient."
      },
      "postRelayedCall(bytes,bool,uint256,bytes32)": {
        "details": "See `IRelayRecipient.postRelayedCall`.     * This function should not be overriden directly, use `_postRelayedCall` instead.     * * Requirements:     * - the caller must be the `RelayHub` contract."
      },
      "preRelayedCall(bytes)": {
        "details": "See `IRelayRecipient.preRelayedCall`.     * This function should not be overriden directly, use `_preRelayedCall` instead.     * * Requirements:     * - the caller must be the `RelayHub` contract."
      },
      "relayHubVersion()": {
        "details": "Returns the version string of the {IRelayHub} for which this recipient implementation was built. If {_upgradeRelayHub} is used, the new {IRelayHub} instance should be compatible with this version."
      }
    }
  },
  "userdoc": {
    "methods": {}
  }
}