{
  "contractName": "ReentrancyAttack",
  "abi": [
    {
      "inputs": [
        {
          "internalType": "bytes4",
          "name": "data",
          "type": "bytes4"
        }
      ],
      "name": "callSender",
      "outputs": [],
      "stateMutability": "nonpayable",
      "type": "function"
    }
  ],
  "bytecode": "0x608060405234801561001057600080fd5b506101c4806100206000396000f3fe608060405234801561001057600080fd5b506004361061002b5760003560e01c80630a2df1ed14610030575b600080fd5b6100576004803603602081101561004657600080fd5b50356001600160e01b031916610059565b005b600061006361018a565b60408051600481526024810182526020810180516001600160e01b03166001600160e01b03198716178152915181516001600160a01b039490941693919290918291908083835b602083106100c95780518252601f1990920191602091820191016100aa565b6001836020036101000a0380198251168184511680821785525050505050509050019150506000604051808303816000865af19150503d806000811461012b576040519150601f19603f3d011682016040523d82523d6000602084013e610130565b606091505b5050905080610186576040805162461bcd60e51b815260206004820152601d60248201527f5265656e7472616e637941747461636b3a206661696c65642063616c6c000000604482015290519081900360640190fd5b5050565b339056fea264697066735822122003a58eb744142f6e8580a41892bdf4ef95cb21e9f6408084a16d3b161c41eb4364736f6c63430006060033",
  "immutableReferences": {},
  "source": "// SPDX-License-Identifier: MIT\n\npragma solidity ^0.6.0;\n\nimport \"../GSN/Context.sol\";\ncontract ReentrancyAttack is Context {\n    function callSender(bytes4 data) public {\n        // solhint-disable-next-line avoid-low-level-calls\n        (bool success,) = _msgSender().call(abi.encodeWithSelector(data));\n        require(success, \"ReentrancyAttack: failed call\");\n    }\n}\n",
  "sourcePath": "/home/aaa/SYNCToken/CBOND-CONTRACT/contracts/openzeppelin/mocks/ReentrancyAttack.sol",
  "compiler": {
    "name": "solc",
    "version": "0.6.6+commit.6c089d02.Emscripten.clang"
  },
  "schemaVersion": "3.1.0",
  "updatedAt": "2020-10-08T19:13:25.047Z",
  "devdoc": {
    "methods": {}
  },
  "userdoc": {
    "methods": {}
  }
}