{
  "contractName": "SafeCastMock",
  "abi": [
    {
      "inputs": [
        {
          "internalType": "int256",
          "name": "a",
          "type": "int256"
        }
      ],
      "name": "toUint256",
      "outputs": [
        {
          "internalType": "uint256",
          "name": "",
          "type": "uint256"
        }
      ],
      "stateMutability": "pure",
      "type": "function"
    },
    {
      "inputs": [
        {
          "internalType": "uint256",
          "name": "a",
          "type": "uint256"
        }
      ],
      "name": "toInt256",
      "outputs": [
        {
          "internalType": "int256",
          "name": "",
          "type": "int256"
        }
      ],
      "stateMutability": "pure",
      "type": "function"
    },
    {
      "inputs": [
        {
          "internalType": "uint256",
          "name": "a",
          "type": "uint256"
        }
      ],
      "name": "toUint128",
      "outputs": [
        {
          "internalType": "uint128",
          "name": "",
          "type": "uint128"
        }
      ],
      "stateMutability": "pure",
      "type": "function"
    },
    {
      "inputs": [
        {
          "internalType": "uint256",
          "name": "a",
          "type": "uint256"
        }
      ],
      "name": "toUint64",
      "outputs": [
        {
          "internalType": "uint64",
          "name": "",
          "type": "uint64"
        }
      ],
      "stateMutability": "pure",
      "type": "function"
    },
    {
      "inputs": [
        {
          "internalType": "uint256",
          "name": "a",
          "type": "uint256"
        }
      ],
      "name": "toUint32",
      "outputs": [
        {
          "internalType": "uint32",
          "name": "",
          "type": "uint32"
        }
      ],
      "stateMutability": "pure",
      "type": "function"
    },
    {
      "inputs": [
        {
          "internalType": "uint256",
          "name": "a",
          "type": "uint256"
        }
      ],
      "name": "toUint16",
      "outputs": [
        {
          "internalType": "uint16",
          "name": "",
          "type": "uint16"
        }
      ],
      "stateMutability": "pure",
      "type": "function"
    },
    {
      "inputs": [
        {
          "internalType": "uint256",
          "name": "a",
          "type": "uint256"
        }
      ],
      "name": "toUint8",
      "outputs": [
        {
          "internalType": "uint8",
          "name": "",
          "type": "uint8"
        }
      ],
      "stateMutability": "pure",
      "type": "function"
    },
    {
      "inputs": [
        {
          "internalType": "int256",
          "name": "a",
          "type": "int256"
        }
      ],
      "name": "toInt128",
      "outputs": [
        {
          "internalType": "int128",
          "name": "",
          "type": "int128"
        }
      ],
      "stateMutability": "pure",
      "type": "function"
    },
    {
      "inputs": [
        {
          "internalType": "int256",
          "name": "a",
          "type": "int256"
        }
      ],
      "name": "toInt64",
      "outputs": [
        {
          "internalType": "int64",
          "name": "",
          "type": "int64"
        }
      ],
      "stateMutability": "pure",
      "type": "function"
    },
    {
      "inputs": [
        {
          "internalType": "int256",
          "name": "a",
          "type": "int256"
        }
      ],
      "name": "toInt32",
      "outputs": [
        {
          "internalType": "int32",
          "name": "",
          "type": "int32"
        }
      ],
      "stateMutability": "pure",
      "type": "function"
    },
    {
      "inputs": [
        {
          "internalType": "int256",
          "name": "a",
          "type": "int256"
        }
      ],
      "name": "toInt16",
      "outputs": [
        {
          "internalType": "int16",
          "name": "",
          "type": "int16"
        }
      ],
      "stateMutability": "pure",
      "type": "function"
    },
    {
      "inputs": [
        {
          "internalType": "int256",
          "name": "a",
          "type": "int256"
        }
      ],
      "name": "toInt8",
      "outputs": [
        {
          "internalType": "int8",
          "name": "",
          "type": "int8"
        }
      ],
      "stateMutability": "pure",
      "type": "function"
    }
  ],
  "bytecode": "0x608060405234801561001057600080fd5b5061087b806100206000396000f3fe608060405234801561001057600080fd5b50600436106100b45760003560e01c8063cf65b4d311610071578063cf65b4d314610208578063d6bd32aa1461023e578063dd2a031614610274578063dfbe873b146102aa578063f136dc02146102d9578063fdcf791b1461030f576100b4565b80630cc4681e146100b95780632665fad0146100ec578063809fdd33146101265780639374068f146101685780639c6f59be1461019c578063c8193255146101d2575b600080fd5b6100d6600480360360208110156100cf57600080fd5b503561032c565b6040805160ff9092168252519081900360200190f35b6101096004803603602081101561010257600080fd5b503561033d565b6040805167ffffffffffffffff9092168252519081900360200190f35b6101436004803603602081101561013c57600080fd5b5035610348565b604080516fffffffffffffffffffffffffffffffff9092168252519081900360200190f35b6101856004803603602081101561017e57600080fd5b5035610353565b6040805161ffff9092168252519081900360200190f35b6101b9600480360360208110156101b257600080fd5b503561035e565b60408051600392830b90920b8252519081900360200190f35b6101ef600480360360208110156101e857600080fd5b5035610369565b6040805163ffffffff9092168252519081900360200190f35b6102256004803603602081101561021e57600080fd5b5035610374565b60408051600192830b90920b8252519081900360200190f35b61025b6004803603602081101561025457600080fd5b503561037f565b60408051600792830b90920b8252519081900360200190f35b6102916004803603602081101561028a57600080fd5b503561038a565b60408051600f92830b90920b8252519081900360200190f35b6102c7600480360360208110156102c057600080fd5b5035610395565b60408051918252519081900360200190f35b6102f6600480360360208110156102ef57600080fd5b50356103a0565b60408051600092830b90920b8252519081900360200190f35b6102c76004803603602081101561032557600080fd5b50356103ab565b6000610337826103b6565b92915050565b6000610337826103fc565b600061033782610445565b600061033782610489565b6000610337826104cc565b600061033782610521565b600061033782610566565b6000610337826105b7565b600061033782610614565b600061033782610675565b6000610337826106b9565b600061033782610708565b600061010082106103f85760405162461bcd60e51b81526004018080602001828103825260258152602001806107866025913960400191505060405180910390fd5b5090565b60006801000000000000000082106103f85760405162461bcd60e51b81526004018080602001828103825260268152602001806107d26026913960400191505060405180910390fd5b6000600160801b82106103f85760405162461bcd60e51b81526004018080602001828103825260278152602001806107ab6027913960400191505060405180910390fd5b60006201000082106103f85760405162461bcd60e51b81526004018080602001828103825260268152602001806107606026913960400191505060405180910390fd5b6000637fffffff1982121580156104e65750638000000082125b6103f85760405162461bcd60e51b81526004018080602001828103825260268152602001806107f86026913960400191505060405180910390fd5b600064010000000082106103f85760405162461bcd60e51b81526004018080602001828103825260268152602001806107f86026913960400191505060405180910390fd5b6000617fff19821215801561057c575061800082125b6103f85760405162461bcd60e51b81526004018080602001828103825260268152602001806107606026913960400191505060405180910390fd5b6000677fffffffffffffff1982121580156105d9575067800000000000000082125b6103f85760405162461bcd60e51b81526004018080602001828103825260268152602001806107d26026913960400191505060405180910390fd5b60006f7fffffffffffffffffffffffffffffff19821215801561063a57506001607f1b82125b6103f85760405162461bcd60e51b81526004018080602001828103825260278152602001806107ab6027913960400191505060405180910390fd5b6000600160ff1b82106103f85760405162461bcd60e51b815260040180806020018281038252602881526020018061081e6028913960400191505060405180910390fd5b6000607f1982121580156106cd5750608082125b6103f85760405162461bcd60e51b81526004018080602001828103825260258152602001806107866025913960400191505060405180910390fd5b6000808212156103f8576040805162461bcd60e51b815260206004820181905260248201527f53616665436173743a2076616c7565206d75737420626520706f736974697665604482015290519081900360640190fdfe53616665436173743a2076616c756520646f65736e27742066697420696e203136206269747353616665436173743a2076616c756520646f65736e27742066697420696e2038206269747353616665436173743a2076616c756520646f65736e27742066697420696e20313238206269747353616665436173743a2076616c756520646f65736e27742066697420696e203634206269747353616665436173743a2076616c756520646f65736e27742066697420696e203332206269747353616665436173743a2076616c756520646f65736e27742066697420696e20616e20696e74323536a264697066735822122027b688e7992998549bec567bb56322dd814283c9a4e748e5d0e3cfb756d6fb1064736f6c63430006060033",
  "immutableReferences": {},
  "source": "// SPDX-License-Identifier: MIT\n\npragma solidity ^0.6.0;\n\nimport \"../utils/SafeCast.sol\";\n\ncontract SafeCastMock {\n    using SafeCast for uint;\n    using SafeCast for int;\n\n    function toUint256(int a) public pure returns (uint256) {\n        return a.toUint256();\n    }\n\n    function toInt256(uint a) public pure returns (int256) {\n        return a.toInt256();\n    }\n\n    function toUint128(uint a) public pure returns (uint128) {\n        return a.toUint128();\n    }\n\n    function toUint64(uint a) public pure returns (uint64) {\n        return a.toUint64();\n    }\n\n    function toUint32(uint a) public pure returns (uint32) {\n        return a.toUint32();\n    }\n\n    function toUint16(uint a) public pure returns (uint16) {\n        return a.toUint16();\n    }\n\n    function toUint8(uint a) public pure returns (uint8) {\n        return a.toUint8();\n    }\n\n    function toInt128(int a) public pure returns (int128) {\n        return a.toInt128();\n    }\n\n    function toInt64(int a) public pure returns (int64) {\n        return a.toInt64();\n    }\n\n    function toInt32(int a) public pure returns (int32) {\n        return a.toInt32();\n    }\n\n    function toInt16(int a) public pure returns (int16) {\n        return a.toInt16();\n    }\n\n    function toInt8(int a) public pure returns (int8) {\n        return a.toInt8();\n    }\n}\n",
  "sourcePath": "/home/aaa/SYNCToken/CBOND-CONTRACT/contracts/openzeppelin/mocks/SafeCastMock.sol",
  "compiler": {
    "name": "solc",
    "version": "0.6.6+commit.6c089d02.Emscripten.clang"
  },
  "schemaVersion": "3.1.0",
  "updatedAt": "2020-10-08T19:13:25.050Z",
  "devdoc": {
    "methods": {}
  },
  "userdoc": {
    "methods": {}
  }
}