{
  "contractName": "Sync",
  "abi": [
    {
      "inputs": [],
      "stateMutability": "nonpayable",
      "type": "constructor"
    },
    {
      "anonymous": false,
      "inputs": [
        {
          "indexed": true,
          "internalType": "address",
          "name": "owner",
          "type": "address"
        },
        {
          "indexed": true,
          "internalType": "address",
          "name": "spender",
          "type": "address"
        },
        {
          "indexed": false,
          "internalType": "uint256",
          "name": "value",
          "type": "uint256"
        }
      ],
      "name": "Approval",
      "type": "event"
    },
    {
      "anonymous": false,
      "inputs": [
        {
          "indexed": true,
          "internalType": "address",
          "name": "previousOwner",
          "type": "address"
        },
        {
          "indexed": true,
          "internalType": "address",
          "name": "newOwner",
          "type": "address"
        }
      ],
      "name": "OwnershipTransferred",
      "type": "event"
    },
    {
      "anonymous": false,
      "inputs": [
        {
          "indexed": true,
          "internalType": "address",
          "name": "from",
          "type": "address"
        },
        {
          "indexed": true,
          "internalType": "address",
          "name": "to",
          "type": "address"
        },
        {
          "indexed": false,
          "internalType": "uint256",
          "name": "value",
          "type": "uint256"
        }
      ],
      "name": "Transfer",
      "type": "event"
    },
    {
      "inputs": [],
      "name": "decimals",
      "outputs": [
        {
          "internalType": "uint8",
          "name": "",
          "type": "uint8"
        }
      ],
      "stateMutability": "view",
      "type": "function"
    },
    {
      "inputs": [
        {
          "internalType": "address",
          "name": "",
          "type": "address"
        }
      ],
      "name": "mintContracts",
      "outputs": [
        {
          "internalType": "bool",
          "name": "",
          "type": "bool"
        }
      ],
      "stateMutability": "view",
      "type": "function"
    },
    {
      "inputs": [],
      "name": "name",
      "outputs": [
        {
          "internalType": "string",
          "name": "",
          "type": "string"
        }
      ],
      "stateMutability": "view",
      "type": "function"
    },
    {
      "inputs": [],
      "name": "owner",
      "outputs": [
        {
          "internalType": "address",
          "name": "",
          "type": "address"
        }
      ],
      "stateMutability": "view",
      "type": "function"
    },
    {
      "inputs": [],
      "name": "renounceOwnership",
      "outputs": [],
      "stateMutability": "nonpayable",
      "type": "function"
    },
    {
      "inputs": [],
      "name": "symbol",
      "outputs": [
        {
          "internalType": "string",
          "name": "",
          "type": "string"
        }
      ],
      "stateMutability": "view",
      "type": "function"
    },
    {
      "inputs": [
        {
          "internalType": "address",
          "name": "newOwner",
          "type": "address"
        }
      ],
      "name": "transferOwnership",
      "outputs": [],
      "stateMutability": "nonpayable",
      "type": "function"
    },
    {
      "inputs": [
        {
          "internalType": "address",
          "name": "account",
          "type": "address"
        },
        {
          "internalType": "bool",
          "name": "canMint",
          "type": "bool"
        }
      ],
      "name": "setMintAccess",
      "outputs": [],
      "stateMutability": "nonpayable",
      "type": "function"
    },
    {
      "inputs": [
        {
          "internalType": "address",
          "name": "account",
          "type": "address"
        },
        {
          "internalType": "uint256",
          "name": "amount",
          "type": "uint256"
        }
      ],
      "name": "_mint",
      "outputs": [],
      "stateMutability": "nonpayable",
      "type": "function"
    },
    {
      "inputs": [],
      "name": "totalSupply",
      "outputs": [
        {
          "internalType": "uint256",
          "name": "",
          "type": "uint256"
        }
      ],
      "stateMutability": "view",
      "type": "function"
    },
    {
      "inputs": [
        {
          "internalType": "address",
          "name": "user",
          "type": "address"
        }
      ],
      "name": "balanceOf",
      "outputs": [
        {
          "internalType": "uint256",
          "name": "",
          "type": "uint256"
        }
      ],
      "stateMutability": "view",
      "type": "function"
    },
    {
      "inputs": [
        {
          "internalType": "address",
          "name": "user",
          "type": "address"
        },
        {
          "internalType": "address",
          "name": "spender",
          "type": "address"
        }
      ],
      "name": "allowance",
      "outputs": [
        {
          "internalType": "uint256",
          "name": "",
          "type": "uint256"
        }
      ],
      "stateMutability": "view",
      "type": "function"
    },
    {
      "inputs": [
        {
          "internalType": "address",
          "name": "to",
          "type": "address"
        },
        {
          "internalType": "uint256",
          "name": "value",
          "type": "uint256"
        }
      ],
      "name": "transfer",
      "outputs": [
        {
          "internalType": "bool",
          "name": "",
          "type": "bool"
        }
      ],
      "stateMutability": "nonpayable",
      "type": "function"
    },
    {
      "inputs": [
        {
          "internalType": "address",
          "name": "spender",
          "type": "address"
        },
        {
          "internalType": "uint256",
          "name": "value",
          "type": "uint256"
        }
      ],
      "name": "approve",
      "outputs": [
        {
          "internalType": "bool",
          "name": "",
          "type": "bool"
        }
      ],
      "stateMutability": "nonpayable",
      "type": "function"
    },
    {
      "inputs": [
        {
          "internalType": "address",
          "name": "spender",
          "type": "address"
        },
        {
          "internalType": "uint256",
          "name": "tokens",
          "type": "uint256"
        },
        {
          "internalType": "bytes",
          "name": "data",
          "type": "bytes"
        }
      ],
      "name": "approveAndCall",
      "outputs": [
        {
          "internalType": "bool",
          "name": "",
          "type": "bool"
        }
      ],
      "stateMutability": "nonpayable",
      "type": "function"
    },
    {
      "inputs": [
        {
          "internalType": "address",
          "name": "from",
          "type": "address"
        },
        {
          "internalType": "address",
          "name": "to",
          "type": "address"
        },
        {
          "internalType": "uint256",
          "name": "value",
          "type": "uint256"
        }
      ],
      "name": "transferFrom",
      "outputs": [
        {
          "internalType": "bool",
          "name": "",
          "type": "bool"
        }
      ],
      "stateMutability": "nonpayable",
      "type": "function"
    },
    {
      "inputs": [
        {
          "internalType": "uint256",
          "name": "amount",
          "type": "uint256"
        }
      ],
      "name": "burn",
      "outputs": [],
      "stateMutability": "nonpayable",
      "type": "function"
    }
  ],
  "bytecode": "0x60806040526a0d3c21bcecceda1000000060035534801561001f57600080fd5b5060006100336001600160e01b036100ce16565b600080546001600160a01b0319166001600160a01b0383169081178255604051929350917f8be0079c531659141344cd1fd0a4f28419497f9722a3daafe3b4186f6b6457e0908290a350600354336000818152600160209081526040808320859055805194855251929391927fddf252ad1be2c89b69c2b068fc378daa952ba7f163c4a11628f55a4df523b3ef9281900390910190a36100d2565b3390565b611099806100e16000396000f3fe608060405234801561001057600080fd5b506004361061010b5760003560e01c806370a08231116100a2578063a9059cbb11610071578063a9059cbb14610306578063cae9ca5114610332578063ce8f5129146103b7578063dd62ed3e146103dd578063f2fde38b1461040b5761010b565b806370a08231146102b4578063715018a6146102da5780638da5cb5b146102e257806395d89b41146101105761010b565b806323b872dd116100de57806323b872dd14610217578063313ce5671461024d57806342966c681461026b5780634e6ec247146102885761010b565b806306fdde0314610110578063095ea7b31461018d5780631729f712146101cd57806318160ddd146101fd575b600080fd5b610118610431565b6040805160208082528351818301528351919283929083019185019080838360005b8381101561015257818101518382015260200161013a565b50505050905090810190601f16801561017f5780820380516001836020036101000a031916815260200191505b509250505060405180910390f35b6101b9600480360360408110156101a357600080fd5b506001600160a01b038135169060200135610451565b604080519115158252519081900360200190f35b6101fb600480360360408110156101e357600080fd5b506001600160a01b0381351690602001351515610515565b005b6102056105aa565b60408051918252519081900360200190f35b6101b96004803603606081101561022d57600080fd5b506001600160a01b038135811691602081013590911690604001356105b0565b6102556107db565b6040805160ff9092168252519081900360200190f35b6101fb6004803603602081101561028157600080fd5b50356107e0565b6101fb6004803603604081101561029e57600080fd5b506001600160a01b0381351690602001356108fe565b610205600480360360208110156102ca57600080fd5b50356001600160a01b0316610a2c565b6101fb610a47565b6102ea610afb565b604080516001600160a01b039092168252519081900360200190f35b6101b96004803603604081101561031c57600080fd5b506001600160a01b038135169060200135610b0a565b6101b96004803603606081101561034857600080fd5b6001600160a01b038235169160208101359181019060608101604082013564010000000081111561037857600080fd5b82018360208201111561038a57600080fd5b803590602001918460018302840111640100000000831117156103ac57600080fd5b509092509050610c5e565b6101b9600480360360208110156103cd57600080fd5b50356001600160a01b0316610d6f565b610205600480360360408110156103f357600080fd5b506001600160a01b0381358116916020013516610d84565b6101fb6004803603602081101561042157600080fd5b50356001600160a01b0316610daf565b6040518060400160405280600481526020016353594e4360e01b81525081565b60006001600160a01b0383166104ae576040805162461bcd60e51b815260206004820152601f60248201527f63616e6e6f7420617070726f766520746865207a65726f206164647265737300604482015290519081900360640190fd5b3360008181526002602090815260408083206001600160a01b03881680855290835292819020869055805186815290519293927f8c5be1e5ebec7d5bd14f71427d1e84f3dd0314c0f7b2291e5b200ac8c7c3b925929181900390910190a350600192915050565b61051d610eb9565b6000546001600160a01b0390811691161461057f576040805162461bcd60e51b815260206004820181905260248201527f4f776e61626c653a2063616c6c6572206973206e6f7420746865206f776e6572604482015290519081900360640190fd5b6001600160a01b03919091166000908152600460205260409020805460ff1916911515919091179055565b60035490565b6001600160a01b038316600090815260016020526040812054821115610614576040805162461bcd60e51b8152602060048201526014602482015273696e73756666696369656e742062616c616e636560601b604482015290519081900360640190fd5b6001600160a01b0384166000908152600260209081526040808320338452909152902054821115610685576040805162461bcd60e51b8152602060048201526016602482015275696e73756666696369656e7420616c6c6f77616e636560501b604482015290519081900360640190fd5b6001600160a01b0383166106e0576040805162461bcd60e51b815260206004820152601f60248201527f63616e6e6f742073656e6420746f20746865207a65726f206164647265737300604482015290519081900360640190fd5b6001600160a01b038416600090815260016020526040902054610709908363ffffffff610ebd16565b6001600160a01b03808616600090815260016020526040808220939093559085168152205461073e908363ffffffff610f0616565b6001600160a01b038085166000908152600160209081526040808320949094559187168152600282528281203382529091522054610782908363ffffffff610ebd16565b6001600160a01b0380861660008181526002602090815260408083203384528252918290209490945580518681529051928716939192600080516020611044833981519152929181900390910190a35060019392505050565b601281565b80610832576040805162461bcd60e51b815260206004820152601860248201527f6d757374206275726e206d6f7265207468616e207a65726f0000000000000000604482015290519081900360640190fd5b3360009081526001602052604090205481111561088d576040805162461bcd60e51b8152602060048201526014602482015273696e73756666696369656e742062616c616e636560601b604482015290519081900360640190fd5b6003546108a0908263ffffffff610ebd16565b600355336000908152600160205260409020546108c3908263ffffffff610ebd16565b33600081815260016020908152604080832094909455835185815293519193600080516020611044833981519152929081900390910190a350565b3360009081526004602052604090205460ff1661094c5760405162461bcd60e51b815260040180806020018281038252602681526020018061101e6026913960400191505060405180910390fd5b6001600160a01b0382166109a7576040805162461bcd60e51b815260206004820152601f60248201527f45524332303a206d696e7420746f20746865207a65726f206164647265737300604482015290519081900360640190fd5b6003546109ba908263ffffffff610f0616565b6003556001600160a01b0382166000908152600160205260409020546109e6908263ffffffff610f0616565b6001600160a01b03831660008181526001602090815260408083209490945583518581529351929391926000805160206110448339815191529281900390910190a35050565b6001600160a01b031660009081526001602052604090205490565b610a4f610eb9565b6000546001600160a01b03908116911614610ab1576040805162461bcd60e51b815260206004820181905260248201527f4f776e61626c653a2063616c6c6572206973206e6f7420746865206f776e6572604482015290519081900360640190fd5b600080546040516001600160a01b03909116907f8be0079c531659141344cd1fd0a4f28419497f9722a3daafe3b4186f6b6457e0908390a3600080546001600160a01b0319169055565b6000546001600160a01b031690565b33600090815260016020526040812054821115610b65576040805162461bcd60e51b8152602060048201526014602482015273696e73756666696369656e742062616c616e636560601b604482015290519081900360640190fd5b6001600160a01b038316610bc0576040805162461bcd60e51b815260206004820152601b60248201527f63616e6e6f742073656e6420746f207a65726f20616464726573730000000000604482015290519081900360640190fd5b33600090815260016020526040902054610be0908363ffffffff610ebd16565b33600090815260016020526040808220929092556001600160a01b03851681522054610c12908363ffffffff610f0616565b6001600160a01b0384166000818152600160209081526040918290209390935580518581529051919233926000805160206110448339815191529281900390910190a350600192915050565b3360008181526002602090815260408083206001600160a01b038916808552908352818420889055815188815291519394909390927f8c5be1e5ebec7d5bd14f71427d1e84f3dd0314c0f7b2291e5b200ac8c7c3b925928290030190a3604051638f4ffcb160e01b81523360048201818152602483018790523060448401819052608060648501908152608485018790526001600160a01b038a1694638f4ffcb194938a93928a928a92919060a401848480828437600081840152601f19601f8201169050808301925050509650505050505050600060405180830381600087803b158015610d4c57600080fd5b505af1158015610d60573d6000803e3d6000fd5b50600198975050505050505050565b60046020526000908152604090205460ff1681565b6001600160a01b03918216600090815260026020908152604080832093909416825291909152205490565b610db7610eb9565b6000546001600160a01b03908116911614610e19576040805162461bcd60e51b815260206004820181905260248201527f4f776e61626c653a2063616c6c6572206973206e6f7420746865206f776e6572604482015290519081900360640190fd5b6001600160a01b038116610e5e5760405162461bcd60e51b8152600401808060200182810382526026815260200180610ff86026913960400191505060405180910390fd5b600080546040516001600160a01b03808516939216917f8be0079c531659141344cd1fd0a4f28419497f9722a3daafe3b4186f6b6457e091a3600080546001600160a01b0319166001600160a01b0392909216919091179055565b3390565b6000610eff83836040518060400160405280601e81526020017f536166654d6174683a207375627472616374696f6e206f766572666c6f770000815250610f60565b9392505050565b600082820183811015610eff576040805162461bcd60e51b815260206004820152601b60248201527f536166654d6174683a206164646974696f6e206f766572666c6f770000000000604482015290519081900360640190fd5b60008184841115610fef5760405162461bcd60e51b81526004018080602001828103825283818151815260200191508051906020019080838360005b83811015610fb4578181015183820152602001610f9c565b50505050905090810190601f168015610fe15780820380516001836020036101000a031916815260200191505b509250505060405180910390fd5b50505090039056fe4f776e61626c653a206e6577206f776e657220697320746865207a65726f206164647265737363616c6c696e672061646472657373206973206e6f7420616c6c6f77656420746f206d696e74ddf252ad1be2c89b69c2b068fc378daa952ba7f163c4a11628f55a4df523b3efa2646970667358221220cb28c3ed0ad341dbb9e44c2c6cbebbbfe8bf52ee3d2b0f644c6e978d1c4955eb64736f6c63430006060033",
  "immutableReferences": {},
  "source": "/*\n *\n * _____/\\\\\\\\\\\\\\\\\\\\\\____/\\\\\\________/\\\\\\__/\\\\\\\\\\_____/\\\\\\________/\\\\\\\\\\\\\\\\\\____________/\\\\\\\\\\\\\\\\\\\\\\\\\\\\\\_______/\\\\\\\\\\_______/\\\\\\________/\\\\\\__/\\\\\\\\\\\\\\\\\\\\\\\\\\\\\\__/\\\\\\\\\\_____/\\\\\\_\n *  ___/\\\\\\/////////\\\\\\_\\///\\\\\\____/\\\\\\/__\\/\\\\\\\\\\\\___\\/\\\\\\_____/\\\\\\////////____________\\///////\\\\\\/////______/\\\\\\///\\\\\\____\\/\\\\\\_____/\\\\\\//__\\/\\\\\\///////////__\\/\\\\\\\\\\\\___\\/\\\\\\_\n *   __\\//\\\\\\______\\///____\\///\\\\\\/\\\\\\/____\\/\\\\\\/\\\\\\__\\/\\\\\\___/\\\\\\/___________________________\\/\\\\\\_________/\\\\\\/__\\///\\\\\\__\\/\\\\\\__/\\\\\\//_____\\/\\\\\\_____________\\/\\\\\\/\\\\\\__\\/\\\\\\_\n *    ___\\////\\\\\\_____________\\///\\\\\\/______\\/\\\\\\//\\\\\\_\\/\\\\\\__/\\\\\\_____________________________\\/\\\\\\________/\\\\\\______\\//\\\\\\_\\/\\\\\\\\\\\\//\\\\\\_____\\/\\\\\\\\\\\\\\\\\\\\\\_____\\/\\\\\\//\\\\\\_\\/\\\\\\_\n *     ______\\////\\\\\\____________\\/\\\\\\_______\\/\\\\\\\\//\\\\\\\\/\\\\\\_\\/\\\\\\_____________________________\\/\\\\\\_______\\/\\\\\\_______\\/\\\\\\_\\/\\\\\\//_\\//\\\\\\____\\/\\\\\\///////______\\/\\\\\\\\//\\\\\\\\/\\\\\\_\n *      _________\\////\\\\\\_________\\/\\\\\\_______\\/\\\\\\_\\//\\\\\\/\\\\\\_\\//\\\\\\____________________________\\/\\\\\\_______\\//\\\\\\______/\\\\\\__\\/\\\\\\____\\//\\\\\\___\\/\\\\\\_____________\\/\\\\\\_\\//\\\\\\/\\\\\\_\n *       __/\\\\\\______\\//\\\\\\________\\/\\\\\\_______\\/\\\\\\__\\//\\\\\\\\\\\\__\\///\\\\\\__________________________\\/\\\\\\________\\///\\\\\\__/\\\\\\____\\/\\\\\\_____\\//\\\\\\__\\/\\\\\\_____________\\/\\\\\\__\\//\\\\\\\\\\\\_\n *        _\\///\\\\\\\\\\\\\\\\\\\\\\/_________\\/\\\\\\_______\\/\\\\\\___\\//\\\\\\\\\\____\\////\\\\\\\\\\\\\\\\\\_________________\\/\\\\\\__________\\///\\\\\\\\\\/_____\\/\\\\\\______\\//\\\\\\_\\/\\\\\\\\\\\\\\\\\\\\\\\\\\\\\\_\\/\\\\\\___\\//\\\\\\\\\\_\n *         ___\\///////////___________\\///________\\///_____\\/////________\\/////////__________________\\///_____________\\/////_______\\///________\\///__\\///////////////__\\///_____\\/////__\n */\n\npragma solidity ^0.6.0;\n\n\ninterface ApproveAndCallFallBack {\n    function receiveApproval(address from, uint256 tokens, address token, bytes calldata data) external;\n}\n\n\n\n/**\n * @dev Interface of the ERC20 standard as defined in the EIP.\n */\ninterface IERC20 {\n    /**\n     * @dev Returns the amount of tokens in existence.\n     */\n    function totalSupply() external view returns (uint256);\n\n    /**\n     * @dev Returns the amount of tokens owned by `account`.\n     */\n    function balanceOf(address account) external view returns (uint256);\n\n    /**\n     * @dev Moves `amount` tokens from the caller's account to `recipient`.\n     *\n     * Returns a boolean value indicating whether the operation succeeded.\n     *\n     * Emits a {Transfer} event.\n     */\n    function transfer(address recipient, uint256 amount) external returns (bool);\n\n    /**\n     * @dev Returns the remaining number of tokens that `spender` will be\n     * allowed to spend on behalf of `owner` through {transferFrom}. This is\n     * zero by default.\n     *\n     * This value changes when {approve} or {transferFrom} are called.\n     */\n    function allowance(address owner, address spender) external view returns (uint256);\n\n    /**\n     * @dev Sets `amount` as the allowance of `spender` over the caller's tokens.\n     *\n     * Returns a boolean value indicating whether the operation succeeded.\n     *\n     * IMPORTANT: Beware that changing an allowance with this method brings the risk\n     * that someone may use both the old and the new allowance by unfortunate\n     * transaction ordering. One possible solution to mitigate this race\n     * condition is to first reduce the spender's allowance to 0 and set the\n     * desired value afterwards:\n     * https://github.com/ethereum/EIPs/issues/20#issuecomment-263524729\n     *\n     * Emits an {Approval} event.\n     */\n    function approve(address spender, uint256 amount) external returns (bool);\n\n    /**\n     * @dev Moves `amount` tokens from `sender` to `recipient` using the\n     * allowance mechanism. `amount` is then deducted from the caller's\n     * allowance.\n     *\n     * Returns a boolean value indicating whether the operation succeeded.\n     *\n     * Emits a {Transfer} event.\n     */\n    function transferFrom(address sender, address recipient, uint256 amount) external returns (bool);\n\n    /**\n     * @dev Emitted when `value` tokens are moved from one account (`from`) to\n     * another (`to`).\n     *\n     * Note that `value` may be zero.\n     */\n    event Transfer(address indexed from, address indexed to, uint256 value);\n\n    /**\n     * @dev Emitted when the allowance of a `spender` for an `owner` is set by\n     * a call to {approve}. `value` is the new allowance.\n     */\n    event Approval(address indexed owner, address indexed spender, uint256 value);\n}\n\n\n\n\n\n/**\n * @dev Wrappers over Solidity's arithmetic operations with added overflow\n * checks.\n *\n * Arithmetic operations in Solidity wrap on overflow. This can easily result\n * in bugs, because programmers usually assume that an overflow raises an\n * error, which is the standard behavior in high level programming languages.\n * `SafeMath` restores this intuition by reverting the transaction when an\n * operation overflows.\n *\n * Using this library instead of the unchecked operations eliminates an entire\n * class of bugs, so it's recommended to use it always.\n */\nlibrary SafeMath {\n    /**\n     * @dev Returns the addition of two unsigned integers, reverting on\n     * overflow.\n     *\n     * Counterpart to Solidity's `+` operator.\n     *\n     * Requirements:\n     *\n     * - Addition cannot overflow.\n     */\n    function add(uint256 a, uint256 b) internal pure returns (uint256) {\n        uint256 c = a + b;\n        require(c >= a, \"SafeMath: addition overflow\");\n\n        return c;\n    }\n\n    /**\n     * @dev Returns the subtraction of two unsigned integers, reverting on\n     * overflow (when the result is negative).\n     *\n     * Counterpart to Solidity's `-` operator.\n     *\n     * Requirements:\n     *\n     * - Subtraction cannot overflow.\n     */\n    function sub(uint256 a, uint256 b) internal pure returns (uint256) {\n        return sub(a, b, \"SafeMath: subtraction overflow\");\n    }\n\n    /**\n     * @dev Returns the subtraction of two unsigned integers, reverting with custom message on\n     * overflow (when the result is negative).\n     *\n     * Counterpart to Solidity's `-` operator.\n     *\n     * Requirements:\n     *\n     * - Subtraction cannot overflow.\n     */\n    function sub(uint256 a, uint256 b, string memory errorMessage) internal pure returns (uint256) {\n        require(b <= a, errorMessage);\n        uint256 c = a - b;\n\n        return c;\n    }\n\n    /**\n     * @dev Returns the multiplication of two unsigned integers, reverting on\n     * overflow.\n     *\n     * Counterpart to Solidity's `*` operator.\n     *\n     * Requirements:\n     *\n     * - Multiplication cannot overflow.\n     */\n    function mul(uint256 a, uint256 b) internal pure returns (uint256) {\n        // Gas optimization: this is cheaper than requiring 'a' not being zero, but the\n        // benefit is lost if 'b' is also tested.\n        // See: https://github.com/OpenZeppelin/openzeppelin-contracts/pull/522\n        if (a == 0) {\n            return 0;\n        }\n\n        uint256 c = a * b;\n        require(c / a == b, \"SafeMath: multiplication overflow\");\n\n        return c;\n    }\n\n    /**\n     * @dev Returns the integer division of two unsigned integers. Reverts on\n     * division by zero. The result is rounded towards zero.\n     *\n     * Counterpart to Solidity's `/` operator. Note: this function uses a\n     * `revert` opcode (which leaves remaining gas untouched) while Solidity\n     * uses an invalid opcode to revert (consuming all remaining gas).\n     *\n     * Requirements:\n     *\n     * - The divisor cannot be zero.\n     */\n    function div(uint256 a, uint256 b) internal pure returns (uint256) {\n        return div(a, b, \"SafeMath: division by zero\");\n    }\n\n    /**\n     * @dev Returns the integer division of two unsigned integers. Reverts with custom message on\n     * division by zero. The result is rounded towards zero.\n     *\n     * Counterpart to Solidity's `/` operator. Note: this function uses a\n     * `revert` opcode (which leaves remaining gas untouched) while Solidity\n     * uses an invalid opcode to revert (consuming all remaining gas).\n     *\n     * Requirements:\n     *\n     * - The divisor cannot be zero.\n     */\n    function div(uint256 a, uint256 b, string memory errorMessage) internal pure returns (uint256) {\n        require(b > 0, errorMessage);\n        uint256 c = a / b;\n        // assert(a == b * c + a % b); // There is no case in which this doesn't hold\n\n        return c;\n    }\n\n    /**\n     * @dev Returns the remainder of dividing two unsigned integers. (unsigned integer modulo),\n     * Reverts when dividing by zero.\n     *\n     * Counterpart to Solidity's `%` operator. This function uses a `revert`\n     * opcode (which leaves remaining gas untouched) while Solidity uses an\n     * invalid opcode to revert (consuming all remaining gas).\n     *\n     * Requirements:\n     *\n     * - The divisor cannot be zero.\n     */\n    function mod(uint256 a, uint256 b) internal pure returns (uint256) {\n        return mod(a, b, \"SafeMath: modulo by zero\");\n    }\n\n    /**\n     * @dev Returns the remainder of dividing two unsigned integers. (unsigned integer modulo),\n     * Reverts with custom message when dividing by zero.\n     *\n     * Counterpart to Solidity's `%` operator. This function uses a `revert`\n     * opcode (which leaves remaining gas untouched) while Solidity uses an\n     * invalid opcode to revert (consuming all remaining gas).\n     *\n     * Requirements:\n     *\n     * - The divisor cannot be zero.\n     */\n    function mod(uint256 a, uint256 b, string memory errorMessage) internal pure returns (uint256) {\n        require(b != 0, errorMessage);\n        return a % b;\n    }\n}\n\n\n\n\n\n\n\n\n\n/*\n * @dev Provides information about the current execution context, including the\n * sender of the transaction and its data. While these are generally available\n * via msg.sender and msg.data, they should not be accessed in such a direct\n * manner, since when dealing with GSN meta-transactions the account sending and\n * paying for execution may not be the actual sender (as far as an application\n * is concerned).\n *\n * This contract is only required for intermediate, library-like contracts.\n */\nabstract contract Context {\n    function _msgSender() internal view virtual returns (address payable) {\n        return msg.sender;\n    }\n\n    function _msgData() internal view virtual returns (bytes memory) {\n        this; // silence state mutability warning without generating bytecode - see https://github.com/ethereum/solidity/issues/2691\n        return msg.data;\n    }\n}\n\n/**\n * @dev Contract module which provides a basic access control mechanism, where\n * there is an account (an owner) that can be granted exclusive access to\n * specific functions.\n *\n * By default, the owner account will be the one that deploys the contract. This\n * can later be changed with {transferOwnership}.\n *\n * This module is used through inheritance. It will make available the modifier\n * `onlyOwner`, which can be applied to your functions to restrict their use to\n * the owner.\n */\ncontract Ownable is Context {\n    address private _owner;\n\n    event OwnershipTransferred(address indexed previousOwner, address indexed newOwner);\n\n    /**\n     * @dev Initializes the contract setting the deployer as the initial owner.\n     */\n    constructor () internal {\n        address msgSender = _msgSender();\n        _owner = msgSender;\n        emit OwnershipTransferred(address(0), msgSender);\n    }\n\n    /**\n     * @dev Returns the address of the current owner.\n     */\n    function owner() public view returns (address) {\n        return _owner;\n    }\n\n    /**\n     * @dev Throws if called by any account other than the owner.\n     */\n    modifier onlyOwner() {\n        require(_owner == _msgSender(), \"Ownable: caller is not the owner\");\n        _;\n    }\n\n    /**\n     * @dev Leaves the contract without owner. It will not be possible to call\n     * `onlyOwner` functions anymore. Can only be called by the current owner.\n     *\n     * NOTE: Renouncing ownership will leave the contract without an owner,\n     * thereby removing any functionality that is only available to the owner.\n     */\n    function renounceOwnership() public virtual onlyOwner {\n        emit OwnershipTransferred(_owner, address(0));\n        _owner = address(0);\n    }\n\n    /**\n     * @dev Transfers ownership of the contract to a new account (`newOwner`).\n     * Can only be called by the current owner.\n     */\n    function transferOwnership(address newOwner) public virtual onlyOwner {\n        require(newOwner != address(0), \"Ownable: new owner is the zero address\");\n        emit OwnershipTransferred(_owner, newOwner);\n        _owner = newOwner;\n    }\n}\n\n\n\ncontract Sync is IERC20, Ownable {\n  using SafeMath for uint256;\n\n  mapping (address => uint256) private balances;\n  mapping (address => mapping (address => uint256)) private allowed;\n  string public constant name  = \"SYNC\";\n  string public constant symbol = \"SYNC\";\n  uint8 public constant decimals = 18;\n  uint256 _totalSupply = 16000000 * (10 ** 18); // 16 million supply\n\n  mapping (address => bool) public mintContracts;\n\n  modifier isMintContract() {\n    require(mintContracts[msg.sender],\"calling address is not allowed to mint\");\n    _;\n  }\n\n  constructor() public Ownable(){\n    balances[msg.sender] = _totalSupply;\n    emit Transfer(address(0), msg.sender, _totalSupply);\n  }\n\n  function setMintAccess(address account, bool canMint) public onlyOwner {\n    mintContracts[account]=canMint;\n  }\n\n  function _mint(address account, uint256 amount) public isMintContract {\n    require(account != address(0), \"ERC20: mint to the zero address\");\n    _totalSupply = _totalSupply.add(amount);\n    balances[account] = balances[account].add(amount);\n    emit Transfer(address(0), account, amount);\n  }\n\n  function totalSupply() public view override returns (uint256) {\n    return _totalSupply;\n  }\n\n  function balanceOf(address user) public view override returns (uint256) {\n    return balances[user];\n  }\n\n  function allowance(address user, address spender) public view override returns (uint256) {\n    return allowed[user][spender];\n  }\n\n  function transfer(address to, uint256 value) public override returns (bool) {\n    require(value <= balances[msg.sender],\"insufficient balance\");\n    require(to != address(0),\"cannot send to zero address\");\n\n    balances[msg.sender] = balances[msg.sender].sub(value);\n    balances[to] = balances[to].add(value);\n\n    emit Transfer(msg.sender, to, value);\n    return true;\n  }\n\n  function approve(address spender, uint256 value) public override returns (bool) {\n    require(spender != address(0),\"cannot approve the zero address\");\n    allowed[msg.sender][spender] = value;\n    emit Approval(msg.sender, spender, value);\n    return true;\n  }\n\n  function approveAndCall(address spender, uint256 tokens, bytes calldata data) external returns (bool) {\n        allowed[msg.sender][spender] = tokens;\n        emit Approval(msg.sender, spender, tokens);\n        ApproveAndCallFallBack(spender).receiveApproval(msg.sender, tokens, address(this), data);\n        return true;\n    }\n\n  function transferFrom(address from, address to, uint256 value) public override returns (bool) {\n    require(value <= balances[from],\"insufficient balance\");\n    require(value <= allowed[from][msg.sender],\"insufficient allowance\");\n    require(to != address(0),\"cannot send to the zero address\");\n\n    balances[from] = balances[from].sub(value);\n    balances[to] = balances[to].add(value);\n\n    allowed[from][msg.sender] = allowed[from][msg.sender].sub(value);\n\n    emit Transfer(from, to, value);\n    return true;\n  }\n\n  function burn(uint256 amount) external {\n    require(amount != 0,\"must burn more than zero\");\n    require(amount <= balances[msg.sender],\"insufficient balance\");\n    _totalSupply = _totalSupply.sub(amount);\n    balances[msg.sender] = balances[msg.sender].sub(amount);\n    emit Transfer(msg.sender, address(0), amount);\n  }\n\n}\n",
  "sourcePath": "/home/aaa/SYNCToken/CBOND-CONTRACT/contracts/Sync_flat_final.sol",
  "compiler": {
    "name": "solc",
    "version": "0.6.6+commit.6c089d02.Emscripten.clang"
  },
  "schemaVersion": "3.1.0",
  "updatedAt": "2020-10-08T19:13:24.831Z",
  "devdoc": {
    "methods": {
      "owner()": {
        "details": "Returns the address of the current owner."
      },
      "renounceOwnership()": {
        "details": "Leaves the contract without owner. It will not be possible to call `onlyOwner` functions anymore. Can only be called by the current owner.     * NOTE: Renouncing ownership will leave the contract without an owner, thereby removing any functionality that is only available to the owner."
      },
      "transferOwnership(address)": {
        "details": "Transfers ownership of the contract to a new account (`newOwner`). Can only be called by the current owner."
      }
    }
  },
  "userdoc": {
    "methods": {}
  }
}